:0600000002008D0223B195
:01000B0032C2
:0100130032BA
:01001B0032B2
:0100230032AA
:01002B0032A2
:030033000220C4E4
:01003B003292
:01004300328A
:03004B000226C8C2
:0300530002033F66
:03005B0002057922
:01006300326A
:03006B000221501F
:01007300325A
:01007B003252
:03008300022467ED
:0300E6000200868F
:05008600120FA380FE33
:1000E900AA82AB83C002C003122392D003D002902C
:1000F900DF06EAF00223807A007B0090F007E0FC3B
:10010900A3E0FD8A068B07C3EE9CEF9D503AEA24D3
:1001190015FCEB34F0FD90F005E0F510A3E0F511C6
:100129008A828B83C002C003C004C00512279DAE1A
:1001390082AF83D005D004D003D0028C828D83EEA8
:10014900F00ABA00B60B80B390F001E4F0A3F0A373
:10015900F0A3F022AA82E59CC39AF59CE59C24FAB7
:10016900F59C439E10D2BA22539EEF22AA82AB83FA
:1001790090F000E0FC601CBC0102801790280AC0C6
:1001890002C00312216F90F000E0F5821221A2D083
:1001990003D002C002C003120171D003D00290F053
:1001A90009E4F0A3F090F009E0FCA3E0FD8C828D56
:1001B90083C002C00312028BD003D00290DF3BE060
:1001C900FCB40100E433FCBC0D0280F090DF3AE09E
:1001D900FC53047FBC6000402F90F009E0FCA3E0D1
:1001E900FD0CBC00010D90F009ECF0A3EDF0D291EB
:1001F90090000AC002C003122571C29190000A1230
:100209002571D003D002809D90F0007402F090F81F
:10021900E1E0FCA3E0FDA3E0A3E090F00BECF0A388
:10022900EDF090F00FEAF0A3EBF02290F000E4F08B
:1002390090F8E1E0FAA3E0FBA3E0A3E090F00BEA79
:10024900F0A3EBF02290F0007404F090F8E1E0FAEA
:10025900A3E0FBA3E0A3E090F00BEAF0A3EBF0220C
:1002690090F0007405F090F013E4F0A3F090F8E139
:10027900E0FAA3E0FBA3E0A3E090F00BEAF0A3EB24
:10028900F022AA82AB83EA2415F582EB34F0F583D8
:10029900E0FA7B008A828B830200E98582108583DC
:1002A9001185F01290F011E075F029A4FA2487F570
:1002B90082E434F3F583E508F0EA2487FAE434F3B9
:1002C900FB0ABA00010B7C008508137514008A82A9
:1002D9008B838CF012272C90F011E0FA0A90F01120
:1002E900EAF0BA0500400590F011E4F022AA82ABC9
:1002F9008390F385EAF0A3EBF0222290F009E0FA6B
:10030900A3E0FB0ABA00010B90F009EAF0A3EBF0B5
:10031900C3EA9470EB9403400790F009E4F0A3F06A
:1003290090F009E0FAA3E0FBEA2415F582EB34F03A
:10033900F583E0F58222C020C0E0C0F0C082C0830E
:10034900C002C003C004C005C006C007C000C00188
:10035900C0D075D00090F8D3E02401F0A3E03400B8
:10036900F090F001E0FAA3E0FBA3E0FCA3E0FD902C
:10037900F8D3E0FEA3E0FF78007900C3EE9AEF9B83
:10038900E89CE99D500302055C90F8D3E0FAA3E0EC
:100399008A037A00AC9C7D00EC4202ED420390F0A6
:1003A9000DEAF0A3EBF090F009E0FAA3E0FB0ABA3A
:1003B90000010B90F009EAF0A3EBF090F007E0FCE4
:1003C900A3E0FDC3EA9CEB9D400790F009E4F0A38C
:1003D900F090F009E0FAA3E0FB8A828B8312028B8A
:1003E90090F8D3E4F0A3F090F000E0FABA03030226
:1003F90004E8BA04030204E8BA0502800302055CB2
:1004090090001912257190F454741CF090F009E0D1
:10041900FAA3E0FB8A0490F455ECF08B0290F456B1
:10042900EAF090F4577442F090F458744CF090F458
:10043900597441F090F45A7448F090F45B7442F0A6
:1004490090F45C744CF090F45D7441F090F45E7437
:1004590048F090F45F7442F090F460744CF090F4BA
:10046900617441F090F4627448F090F4637442F05E
:1004790090F464744CF090F4657441F090F46674EF
:1004890048F090F4677442F090F468744CF090F47A
:10049900697441F090F46A7448F090F46B7442F016
:1004A90090F46C744CF090F46D7441F090F46E74A7
:1004B90048F090F46F7420F090F454E0FA8A0D75C6
:1004C9000E0090F4541222C890F013E0FAA3E0FB56
:1004D9000ABA00010B90F013EAF0A3EBF0807490D4
:1004E900F012E075F029A42487FAE434F3FB8A8238
:1004F9008B83E0605EB29190001912257190F01221
:10050900E075F029A42487FAE434F3FB90DF04E0D2
:100519005401FCB40100E4332AFCE43BFD8A828BDC
:1005290083E0FA8A0D750E008C828D831222C890A1
:10053900F012E0FA75F029A42487F582E434F3F582
:1005490083E4F00A90F012EAF0EA24FA500590F0F8
:1005590012E4F0D0D0D001D000D007D006D005D019
:1005690004D003D002D083D082D0F0D0E0D02032A2
:100579003290F000E4F090F011F090F012F090F069
:1005890009F0A3F090F0057453F0A3E4F090F0079C
:100599007453F0A3E4F090F00DF0A3F090F00BE4A5
:1005A900F0A3F090F001E4F0A3F0A3F0A3F090F031
:1005B9000FE4F0A3F090F013E4F0A3F0120100901F
:1005C900F000E4F0759DDC859E9E439E0443CB10AC
:1005D900227ABB7B088A828B8312142690F8E1E485
:1005E900F0A3F0A3F0A3F012057A02238090F000A3
:1005F900E0FA24FA500122EA2A2A9006077302082F
:10060900160207070206190208160208160207F75A
:10061900E50C700302070090F8DF740DF0539AFEA1
:10062900E50C20E40302070090F0007403F090F851
:10063900D5E0FAA3E08A8212015D90283812216F71
:1006490090F8D5E0FAA3E0FB8A828B831221BD9052
:10065900F5CDE0FB7A00EA24CEFAEB34F5FB8A8289
:100669008B8312216F90F5CDE0FAB40100E433FADF
:1006790024D0FBE434F7FC8B828C83E06003020610
:10068900FD90DF04E0FB30E0378A038B047B00EB4D
:1006990024CEF582EC34F5F583E0FD8D1175120059
:1006A900EB24CEFBEC34F5FC74012BF513E43CF59B
:1006B90014751001758242C002120FCFD002802733
:1006C90090DF02E0FB8B117512008A038B047B001B
:1006D900EB24CEF513EC34F5F5147510017582424F
:1006E900C002120FCFD002EA24D0F582E434F7F524
:1006F900837401F0530CEF750C00439A0122E50C49
:1007090070030207F090F8DF740DF0539AFEE50CC0
:1007190020E4030207F090F5CDE0FAB40100E433D8
:10072900FA90284DC00212216FD0028A037A00EA9A
:1007390024CEFCEB34F5FD8C828D83C002C00312FC
:1007490021BDD003D002EA24CEFAEB34F5FB8A822C
:100759008B8312216F90F5CDE0FAB40100E433FAEE
:1007690024D0FBE434F7FC8B828C83E0600302071E
:10077900ED90DF04E0FB30E0378A038B047B00EB6C
:1007890024CEF582EC34F5F583E0FD8D1175120068
:10079900EB24CEFBEC34F5FC74012BF513E43CF5AA
:1007A90014751001758242C002120FCFD002802742
:1007B90090DF02E0FB8B117512008A038B047B002A
:1007C900EB24CEF513EC34F5F5147510017582425E
:1007D900C002120FCFD002EA24D0F582E434F7F533
:1007E900837401F0530CEF750C00439A012290F0C9
:1007F90013E0FAA3E0FB90F007E0FCA3E0FDC3EAF5
:100809009CEB9D50012290F0007404F022E50C70DD
:10081900012290F8DF740DF0E50C5430700122903C
:10082900F5CDE0FAB40100E433FA24D0FBE434F75F
:10083900FC8B828C83E060030208B790DF04E0FB45
:1008490030E0378A038B047B00EB24CEF582EC344D
:10085900F5F583E0FD8D11751200EB24CEFBEC3428
:10086900F5FC74012BF513E43CF514751001758240
:1008790042C002120FCFD002802790DF02E0FB8B2B
:10088900117512008A038B047B00EB24CEF513EC5F
:1008990034F5F514751001758242C002120FCFD0DC
:1008A90002EA24D0F582E434F7F5837401F0530C9D
:1008B900CF2290F5ABE0FAA3E0FB90F5B0E0FCBCE9
:1008C90042028003020CEA90F5B1E0FD24DB5003FB
:1008D900020CD9ED240983C0E0ED242883C0E0226D
:1008E900D9D993BE33D9D9D9D9D9D9D9D9D9D9D976
:1008F9002DA1D65D8BA6E9F2D9D9D9D9D9D9D9D91A
:1009090033C4FF0A350C0C0909090C0C0C0C0C0C2E
:100919000C0C0C0C0C0A0A0A0B0B0B0B090C0C0C1B
:100929000C0C0C0C0C0C0C0B0B0B8A828B83E0FE51
:10093900A3AA82AB83BE0102800ABE0202801FBE47
:100949000327800DC002C003122380D003D0028088
:1009590018C002C003122392D003D002800BC00238
:10096900C00312226ED003D00290F5B0E0FE90F5DC
:10097900B1E0F51090F5AEE0F511A3E0F5128A1398
:100989008B148E82120FCF020CEAE4F50DF50E8A54
:10099900828B831222C890F5B0E0FE90F5B1E0F5A4
:1009A90010751367751428751101E4F5128E8212FA
:1009B9000FCF020CEA8A828B83E0FE7F008E828F42
:1009C90083C002C0031202F6D003D00290F5B0E052
:1009D900FE90F5B1E0F510751101E4F5128A138B5B
:1009E900148E82120FCF020CEA8A098B0A750B004A
:1009F90090F5AEE0F9A3E08908850982850A838527
:100A09000BF01202A490F5B0E0FE90F5B1E0F510FC
:100A1900751367751428751101E4F5128E82120F8A
:100A2900CF020CEA8A828B83E0FE7F0090F005EE0C
:100A3900F0A3EFF0C374709E74039F404574022ABB
:100A4900FAE43BFB8A108B1175120090F005E0F572
:100A590013A3E0F51490F01575F00012272C90F50A
:100A6900B0E0FE90F5B1E0F51074052400F513E44B
:100A790034F0F514751102E4F5128E82120FCF02CB
:100A89000CEA7513697514288D10751108E4F512AF
:100A99008C82120FCF020CEA1203047F008F83129B
:100AA900028B90F5B0E0FE90F5B1E0F51090F009F9
:100AB900E0FFA3E0F8EF2415F513E834F0F5147519
:100AC9001101E4F5128E82120FCF020CEA8A828B91
:100AD90083E0FE7F008E828F83C002C0031200E98B
:100AE900D003D00290F5B0E0FE90F5B1E0F51075B5
:100AF9001101E4F5128A138B148E82120FCF020CA6
:100B0900EA758200C002C00312015DD003D00290D1
:100B1900F5B0E0FE90F5B1E0F510751101E4F512BC
:100B29008A138B148E82120FCF020CEAC002C00303
:100B3900120171D003D00290F5B0E0FE90F5B1E05A
:100B4900F510751101E4F5128A138B148E82120FB8
:100B5900CF020CEA8A828B83E0FE7F00780079005D
:100B690090F001EEF0A3EFF0A3E8F0A3E9F08D1007
:100B7900751101E4F5128A138B148C82120FCF02BE
:100B89000CEA74012400F513E434F0F5148D1075A2
:100B99001104E4F5128C82120FCF020CEA8A828BBF
:100BA90083E0FE7F008E108F11751200751315E416
:100BB900F51490F00075F000C002C00312272CD084
:100BC90003D00290F5B0E0FE90F5B1E0F510751193
:100BD90015E4F5128A138B148E82120FCF020CEAD8
:100BE9007513007514F08D10751115E4F5128C82CA
:100BF900120FCF020CEA8A828B83E0FE7F008E827D
:100C09008F83C002C003120175D003D00290F5B0E2
:100C1900E0FE90F5B1E0F510751101E4F5128A13C3
:100C29008B148E82120FCF020CEA90F8E1E0FEA33A
:100C3900E0FFA3E0F8A3E0F990F00BEEF0A3EFF0EA
:100C49008A828B83E0FE90F000F090F000E0FFEEE6
:100C590024FA404BEF2F2F900C6473020C76020C90
:100C690076020C76020C9A020C9A020C83C002C01E
:100C790003120171D003D002802590F013E4F0A390
:100C8900F0758200C002C00312015DD003D002805A
:100C99000E758200C002C00312015DD003D002901C
:100CA900F5B0E0FE90F5B1E0F510751101E4F5122B
:100CB9008A138B148E82120FCF8026751300751438
:100CC900F08D10751101E4F5128C82120FCF80118D
:100CD9008D10751101E4F5128A138B148C82120F91
:100CE900CF90F5B4E0FA5302FD90F5B4EAF0900024
:100CF90000222290F5B9E0FABA014490F599E0FA98
:100D0900A3E0FBA3E090F5BCE0FCA3E0FD90F59C1B
:100D1900E0FEA3E0FFEE4F6004780180027800E86E
:100D2900601D8A828B83E0F8A3AA82AB838C828DB3
:100D390083E8F0A3AC82AD831EBEFF011F80D6906D
:100D4900F5A2E0FA5302FD90F5A2EAF022AA82ABDD
:100D590083ACF01227EAFD20E703020E7D74012A15
:100D6900FDE43BFE8C078D828E838FF01227EAFD0E
:100D7900601FBD0102802CBD0202803EBD0303023B
:100D89000DFFBD0403020E24BDFE03020E3D020E3B
:100D99007D752D02E4F52E90F8DF75F0001211E350
:100DA900020E7D90DE00E0FD7E00752F28E4F5300F
:100DB9008D828E83121242020E7D74022AFDE43B5B
:100DC900FE8C078D828E838FF01227EAFDA31227EE
:100DD900EAFE74062AFFE43BF88C018F8288838936
:100DE900F01227EAF52FA31227EAF5308D828E83B8
:100DF900121242020E7D74062AFDE43BFE8C078D19
:100E0900828E838FF01227EAF52DA31227EAF52E99
:100E19008A828B838CF01211E3805990F599E0FD59
:100E2900A3E0FEA3E08D828E83752F10E4F53012C6
:100E39001242804074022AFAE43B7B007C40751020
:100E490071751128751280751304E4F5148A828B63
:100E5900838CF0122636E5828583F045F06012D244
:100E69009190012C122571C29190012C122571804B
:100E79000375C9839000002290DF2FE4F090DF30E2
:100E8900F090DF31F090DF00740CF090DF01744EC8
:100E9900F090DF0274FFF090DF037440F090DF04FC
:100EA9007401F090DF05E4F090DF06F090DF07743D
:100EB90006F090DF08E4F090DF097424F090DF0A6F
:100EC900743AF090DF0B74F1F090DF0C74CAF09073
:100ED900DF0D74A3F090DF0E7403F090DF0F74231D
:100EE900F090DF107411F090DF117436F090DF127A
:100EF9007407F090DF13743FF090DF147418F090CA
:100F0900DF157417F090DF16746CF090DF17740317
:100F1900F090DF187440F090DF197491F090DF1AA7
:100F29007456F090DF1B7410F090DF1C74E9F09098
:100F3900DF1D742AF090DF1EE4F090DF1F741FF0AC
:100F490090DF237488F090DF247431F090DF2574EA
:100F590009F090DF2E7450F090DF07740CF090DFE9
:100F6900097425F090DF0A7495F090DF0B7455F041
:100F790090DF1A74B6F090DF1B7410F090DF1C74C8
:100F8900EAF090DF1D742AF090DF1EE4F090DF1F75
:100F9900741FF0221226A00226C2120F9D1211D12F
:100FA9001222071205DA1211DDD2AF1210B2D29154
:100FB900900002122571C29190000A122571121F28
:060FC900731205F680F82A
:10280A004648535320737461746520656E7465720B
:10281A00696E672053594E4348494E472066726F86
:10282A006D2077726F6E67207374617465006E65D0
:10283A0074776F726B207061636B65742873796E3D
:10284A006329006E6574776F726B207061636B65C4
:10285A007428646973636F76657279290000004E83
:0C286A004F204445414C005253544E0096
:100FCF00AA827B0190DE0E7405F0E51145127001C7
:100FDF00227C1E7D0090DE11E0FE30E00D90F8E0E7
:100FEF007401F01CBCFFEE1D80EBBB012F7B00904A
:100FFF00DE2A7440F0EAF0E510F0AC117D0090DECF
:10100F002AECF0E512F0C3743B9511E495125006EB
:10101F007C3B7D00801AAC11AD128014C3744095D7
:10102F0011E4951250067C407D008004AC11AD1286
:10103F0043D682AE13AF148F0090F5BEE8F07F0059
:10104F0090F5BFEEF090F5C074DEF090F5C1742A04
:10105F00F08C0690F5C3EEF090F5C2E054E0F090FE
:10106F00F5C5E0543F4440F090F5C5E054CFF04350
:10107F00D60243D702E5D130E1FB53D1FD90DE0E0E
:10108F007405F090DE11E0FE4401F0E511C39CF50C
:10109F0011E5129DF512EC2513F513ED3514F5142A
:1010AF00020FD9E5217005121F7380F72253BE7FFF
:1010BF0043BE8090DE0B74F7F090DE0774FFF09064
:1010CF00DE0974FFF0438C10538CFED2BD439A029D
:1010DF00758900C2C5758B00C2E87ABE7BF58BD3CC
:1010EF007ABE7BF58AD290F5C2E0541FF090F5C41A
:1010FF00E0547FF090F5C2E054E0F090F5C4E05476
:10110F009F4420F090F5C4E054E0F090F5C5E04422
:10111F0008F0E054FBF090F5C5E054FC4401F0906A
:10112F00DE01E054FEF07524007522007523007572
:10113F00210090DE0EE4F090DE107404F090DE13C8
:10114F007404F090F5A3E4F090F5A2F090F597F009
:10115F00A3F090F5997470F0A374F4F0A3E4F090F9
:10116F00F59CF0A3F090F59EE4F090F59FF090F5CC
:10117F00A0F0A3F090DE0E7405F090DE107408F06E
:10118F0090DE137408F090DE12E04480F090F5B515
:10119F00E4F090F5B4F090F5A9F0A3F090F5AB74EE
:1011AF0090F0A374F4F0A3E4F090F5AEF0A3F090F8
:1011BF00F5B0E4F090F5B1F090F5B2F0A3F0439AEA
:1011CF00022290F8DF7402F043BE800210BCD2906E
:1011DF0022C29022AA82AB83ACF090F5A3E06034D8
:1011EF00D2919003E8122571C2919003E8122571F4
:1011FF00D2919003E8122571C2919003E8122571E4
:10120F00D2919003E8122571C2919003E8122571D3
:10121F0090FFFF2290F594EAF0A3EBF0A3ECF0908F
:10122F00F597E52DF0A3E52EF090F5A37401F0905E
:10123F00000022AA82AB8390F5A3E06034D2919094
:10124F0003E8122571C2919003E8122571D2919093
:10125F0003E8122571C2919003E8122571D2919083
:10126F0003E8122571C2919003E812257190FFFFD8
:10127F00227C0090F594EAF0A3EBF0A3ECF090F54C
:10128F0097E52FF0A3E530F090F5A37401F09000EF
:10129F0000227A0290DE0EE4F090F597E0FBA3E0D7
:1012AF00FCC374209BE49C50047D2080048B057A42
:1012BF000A8D067F00EBC39EFBEC9FFC90F597EB2E
:1012CF00F0A3ECF08D03EB60047C0180027C00EC5A
:1012DF00603690F594E0FCA3E0FDA3E0FE8C828DD8
:1012EF00838EF01227EA90DE20F090F594E0FCA3B5
:1012FF00E0FDA3E0FE0CBC00010D90F594ECF0A313
:10130F00EDF0A3EEF01B80BE90DE11E04AF090F5F9
:10131F0097E0FAA3E0FB4A700590F5A3E4F0229062
:10132F00F5A37402F07582002290F599E0FAA3E01C
:10133F00FB90DE11E0FCB40100E433FC20E0F290FE
:10134F00DE0EE4F090DE16E0FC7D0090F59CECF0F4
:10135F00A3EDF090F5A2E0FE30E10A90F5A374033F
:10136F00F090FFFF2290F5A2E0FE43060290F5A257
:10137F00EEF090F59CE0FEA3E0FFC374209EE49F87
:10138F005018D29190012CC002C003122571C29146
:10139F0090012C122571D003D00290F59CE0FCA394
:1013AF00E0FDEC4D60027401FE601690DE20E0FE61
:1013BF008A828B83F0A3AA82AB831CBCFF011D80A2
:1013CF00E1E5274528600985278285288312008B50
:1013DF0090F59CE0FAA3E0FBC3EA9420EB94005055
:1013EF001CE5254526600985258285268312008BFD
:1013FF0090DE11E0FA4408F090F5A3E4F090DE11CE
:10140F00E04440F090F59CE0FAA3E08A82F5832255
:10141F0085822985832A2285822B85832C22752D0F
:10142F0001E4F52E90002475F0400211E3AA82AB7F
:10143F0083ACF074022AFAE43BFB8A828B838CF034
:10144F001227EAFAA31227EA8A247521012285823C
:10145F00117BA97C287D8074012BFEE43CFF8D005D
:10146F008E828F8388F01227EAFEAF10BEFF0280B4
:10147F0052EEB5112BEF70047EFF80F01F8B828C24
:10148F00838DF01227EA2BFBE43CFC74012BF8E46C
:10149F003CF98D02888289838AF01227EAFE80CC7C
:1014AF008B828C838DF01227EA2BFBE43CFC7401BA
:1014BF002BFAE43CF88D018A82888389F01227EA9F
:1014CF00FE80A98B828C838DF022858231858332B9
:1014DF0085F03374022531F53BE43532F53C853325
:1014EF003D853B82853C83853DF01227EAF8A312A8
:1014FF0027EAF98939753A007401B53906E4B53A26
:10150F0002801A7402B53906E4B53A02802C7403CE
:10151F00B53907E4B53A030215C70215E489827598
:10152F00100012145D85823485833585F0361227BD
:10153F00EAFA8A377538000215FD898288048C1003
:10154F0012145D85823485833585F0367402253417
:10155F00FCE43535FDAE368C828D838EF01227EA92
:10156F00FC8C37753800853B82853C83853DF012B6
:10157F0027EAA31227EAFC7D0074012534FEE43527
:10158F0035FFAA368E828F838AF01227EAFE7A0001
:10159F00ECB50606EDB502028054853B82853C838F
:1015AF00853DF01227EAFAA31227EAFB750F108A7E
:1015BF00828B831225B680E2898288028A101214E8
:1015CF005D85823485833585F0361227EAFA8A37AE
:1015DF0075380080198982881012145D85823485D0
:1015EF00833585F0361227EAFA8A37753800740684
:1015FF002531FAE43532FBAC338A828B838CF012BF
:10160F0027EAFAA31227EAFBC3EA9537EB9538507E
:10161F00048A378B3885372D85382E85348285356A
:10162F00838536F00211E390DE0EE4F090DE11E0D8
:10163F00FA30E40D90F5A3E4F090DE11E0FB448066
:10164F00F0EA30E22490DE11E4F090F8E07404F058
:10165F0090F5A3E4F0D2919000C8C002122571C298
:10166F00919000C8122571D00290F5A3E0FBBB0347
:10167F0019D2919001F4C002122571C2919001F418
:10168F00122571D00290F5A3E4F090F5A3E060036A
:10169F000218D5EA20E0030218D590DE0EE4F07AA6
:1016AF00007B3E7C007D40BA0800501690DE20E0A3
:1016BF00FE8B828C838DF0122784A3AB82AC830ABE
:1016CF0080E5E53EFA20E7030217DD74605AFB6000
:1016DF0015BB20030218BFBB40030217A2BB600358
:1016EF000217CA0218BF741F5AFB7046AC3FBC00EA
:1016FF0002801CBC06028005BC082B800C90003EAB
:10170F0075F0401214D90218BF12142D0218BFE43D
:10171F00F546F547752D02E4F52E90004675F0401D
:10172F001211E30218BF90003E75F04012216E02B5
:10173F0018BFBB011AAC3FBC00030218BFBC0A03A1
:10174F000218BF90003E75F04012216E0218BFBB09
:10175F00022DAC3FBC00028008BC12030218BF80F0
:10176F0012752D02E4F52E90288975F0801211E381
:10177F000218BF90003E75F04012216E0218BF9004
:10178F00003E75F04012216E90DE11E0FC4420F017
:10179F000218BFE529452A601674BBC0E07417C054
:1017AF00E0C029C02A90003E75F040220218BF9079
:1017BF00003E75F0401218EC0218BF90DE11E044A5
:1017CF0020F090003E75F04012216E0218BF746039
:1017DF005AFC6015BC20030218BFBC4003021888D6
:1017EF00BC60030218AE0218BF741F5AFB703FAAE9
:1017FF003FBA01030218BFBA03030218BFBA0502AA
:10180F00800BBA07030218BFBA0917800990DE00D0
:10181F00E540F00218BF90003E75F04012143C02F4
:10182F0018BF90003E75F04012216E0218BFBB0129
:10183F001CAA3FBA01028078BA03028073BA110260
:10184F00806E90003E75F04012216E8063BB0217D0
:10185F00AA3FBA01028059BA0302805490003E7524
:10186F00F04012216E804990DE11E04420F090008C
:10187F003E75F04012216E8037E529452A601574B8
:10188F00A1C0E07418C0E0C029C02A90003E75F0D6
:10189F004022801C90003E75F0401218EC80119091
:1018AF00003E75F04012216E90DE11E0FA4420F0F8
:1018BF0090DE11E0FA4440F0E5444545700890DEB3
:1018CF0011E0FA4408F090F5A3E0FABA01031212FE
:1018DF00A190F5A3E0FABA020302133822AA82AB51
:1018EF0083ACF01227EAFD20E703021A1B74012ACA
:1018FF00FDE43BFE8C078D828E838FF01227EAFD6D
:10190F00601FBD0102802CBD0202803EBD03030299
:10191F001995BD04030219BBBDFE030219D5021AA6
:10192F008F752D02E4F52E90F8DF75F0001211E39C
:10193F00021A8F90DE00E0FD7E00752F28E4F5304F
:10194F008D828E83121242021A8F74022AFDE43B9B
:10195F00FE8C078D828E838FF01227EAFDA312274C
:10196F00EAFE74062AFFE43BF88C018F8288838994
:10197F00F01227EAF52FA31227EAF5308D828E8316
:10198F00121242021A8F74062AFDE43BFE8C078D59
:10199F00828E838FF01227EAF52DA31227EAF52EF8
:1019AF008A828B838CF01211E3021A8F90F599E0E3
:1019BF00FDA3E0FEA3E08D828E83752F10E4F5303A
:1019CF00121242021A8F74022AFDE43B8C077E002A
:1019DF007F4075108C751128751280751304E4F50E
:1019EF00148D828E838FF0122636E5828583F04523
:1019FF00F06013D29190012C122571C29190012C9D
:101A0F00122571021A8F75C983021A8F90F5B9E0EA
:101A1F00FDBD015F74022AFAE43BFB8A828B838C43
:101A2F00F01227EAFAA31227EAFB90DE0EE4F090F9
:101A3F00DE16E0FC7D00750F088C828D83C002C01E
:101A4F0003C004C0051225B6D005D004D003D002C0
:101A5F00EC4D60047E0180027E00EE601690DE2069
:101A6F00E0FE8A828B83F0A3AA82AB831CBCFF01AA
:101A7F001D80DD90F5A2E0FA5302FD90F5A2EAF089
:101A8F009000002290DE0E7405F090F5B4E0FA306D
:101A9F00E10A90F8E07405F090FFFF2290DE16E067
:101AAF00FA7B0090DE17E0FDE42AFAED3BFB90F5A0
:101ABF00B2E0FCA3E0FD4C705590F5AEE4F0A3F05E
:101ACF0090DE2AE090F5B0F090DE2AE090F5B1F0CC
:101ADF0090DE2AE0FC7D0090F5B2ECF0A3EDF090E3
:101AEF00DE2AE0FFE4FE2CFCEF3DFD90F5B2ECF0BA
:101AFF00A3EDF0EA24FCFAEB34FFFBC374049C74EF
:101B0F00019D500A90F5B27404F0A37401F0E5D171
:101B1F0030E11AD291900014C002C003122571C295
:101B2F0091900014122571D003D00280E190F5AB93
:101B3F00E0FCA3E0FDA3E090F5AEE0FFA3E0F8EF3B
:101B4F002CFCE83DFD43D68290F5BE74DEF090F597
:101B5F00BF742AF08D0690F5C0EEF090F5C1ECF051
:101B6F0090F5C5E0543FF090F5C5E054CF4410F028
:101B7F0090DE16E090F5C3F090DE17E090F5C254BA
:101B8F001FF5F0E054E045F0F0EF2AFCE83BFDC311
:101B9F0074049C74019D50097404C39FFA740198D6
:101BAF00FBC374409AE49B501B90F8E07406F090CE
:101BBF00DE14E054FEF0750F108A828B831225B667
:101BCF0090FFFF2243D60243D702EA2FFAEB38FBEE
:101BDF0090F5AEEAF0A3EBF0E5D130E1FB53D1FD88
:101BEF0090F5AEE0FAA3E0FB90F5B2E0FCA3E0FDC8
:101BFF00C3EA9CEB9D402590F5B4E0FA43020290B6
:101C0F00F5B4EAF090F5B2E4F0A3F090DE0E7405AF
:101C1F00F090DE14E054FEF09000012290DE0E747E
:101C2F0005F090DE14E054FEF09000002290F5B421
:101C3F00E090F5ABE0FAA3E0FB90F5B0E0FCBCFF61
:101C4F00028003021F6390F5B1E0FDBD8002802D7D
:101C5F00BD8103021CF5BD8203021E7CBD830302FE
:101C6F001E94BD8403021DA7BD8503021EAABD8657
:101C7F0003021ECABD8F03021EDF021F378A828B2B
:101C8F0083E0FEA3AA82AB837F0090F5B2EEF0A3B0
:101C9F00EFF08A828B83E0F8A3AA82AB8388017866
:101CAF0000E82EFEE93FFF90F5B2EEF0A3EFF08AC9
:101CBF00828B83E0F8A38848754900E0F97800E843
:101CCF002548F548E93549F549AA48AB498D108EA5
:101CDF00118F128A138B148C82120FCF90F5B2E4EE
:101CEF00F0A3F0021F558A828B83E0FEA38E487506
:101CFF004900E0FEA3AA82AB838E077E00EE254843
:101D0F00F548EF3549F549A848A94990F5B6E8F0E7
:101D1F00A3E9F090F5AEE0FEA3E0FFEE24FEF54858
:101D2F00EF34FFF5498A4D8B4E85484B85494CE57D
:101D3F004B454C6005754A018003754A00E54A60C2
:101D4F003BC00490F5B6E0FCA3E0F874012CF9E475
:101D5F0038FE90F5B6E9F0A3EEF0854D82854E83FF
:101D6F00E0FEA385824D85834E8C828883EEF0152D
:101D7F004B74FFB54B02154CD00480B390F5B2E015
:101D8F00FEA3E0FF8E138F148D10751102E4F51270
:101D9F008C82120FCF021F5590F5B4E0FE20E22D7A
:101DAF008A828B83E0FEA38E48754900E0FEA3AACA
:101DBF0082AB838E077E00EE2548F548EF3549F557
:101DCF0049A848A94990F5B6E8F0A3E9F090F5B213
:101DDF00E0FEA3E0FF8E488F49C374409548E49519
:101DEF00495006754840E4F549EEC39548FEEF9516
:101DFF0049FF90F5B2EEF0A3EFF08A4F8B50854874
:101E0F004B85494CE54B454C6005754D018003757D
:101E1F004D00E54D603BC00490F5B6E0FCA3E0F843
:101E2F0074012CF9E438FE90F5B6E9F0A3EEF085D5
:101E3F004F82855083E0FEA385824F8583508C822D
:101E4F008883EEF0154B74FFB54B02154CD0048010
:101E5F00B390F5B2E0FEA3E0FF8E138F148D1075D3
:101E6F001102E4F5128C82120FCF021F5590F5AEBE
:101E7F00E0F511A3E0F5128D108A138B148C8212EA
:101E8F000FCF021F557513917514288D1075110DF5
:101E9F00E4F5128C82120FCF021F5590F8E1E0FE8D
:101EAF00A3E0FFA3E0A3E08E138F148D1075110430
:101EBF00E4F5128C82120FCF021F5575137D751426
:101ECF00288D1075110CE4F5128C82120FCF8076CD
:101EDF008A048B057E0075109F7511287512807509
:101EEF001309E4F5148C828D838EF0C002C00312A7
:101EFF002636E5828583F0D003D00245F070477512
:101F0F00C98090F5B0E0FC90F5B1E0F51090F5AE1A
:101F1F00E0F511A3E0F5128A138B148C82C002C076
:101F2F0003120FCFD003D00290F5B0E0FC90F5B1C3
:101F3F00E0F51090F5AEE0F511A3E0F5128A138BE2
:101F4F00148C82120FCF90F5B4E0FA5302FD90F586
:101F5F00B4EAF022E52B452C6009852B82852C8372
:101F6F0002008B22AA22AB23EA30E0117521027402
:101F7F00FE5522FCAD238C228D2343BE01EA54066D
:101F8F00602C90F8DF740AF075210374FD5522FA66
:101F9F00AB238A228B2390DE01E04404F0900008EB
:101FAF0012257190DE01E0FA54FBF075210190DEED
:101FBF000EE4F090DE11E0FA30E21B90DE11E0FA51
:101FCF0054DBF090F597E4F0A3F090F59CE4F0A3C8
:101FDF00F090F5A3E4F090DE0E7405F090DE11E0C2
:101FEF00FA30E52190DE11E0FA54CFF090F8E0746A
:101FFF0008F090F5A9E4F0A3F090F5AEE4F0A3F0AB
:10200F0090F5B5E4F090DE14E0FA30E62190DE149E
:10201F00E0FA549FF090F8E07408F090F5A9E4F01E
:10202F00A3F090F5AEE4F0A3F090F5B5E4F0E5225F
:10203F0020E2057404B521141210BC90F8DF740B64
:10204F00F074FB5522FAAB238A228B23E52230E46E
:10205F001112163674E75522FA740F5523FB8A2294
:10206F008B23E52330E62190F8DF740CF0121A93DE
:10207F00AA82AB83BA0106BB0003121C3CAA2274CE
:10208F00BF5523FB8A228B23AA22AB23EA54E0708D
:10209F0005EB54BD601E90F8E07409F0750F108ABF
:1020AF00828B831225B674E05522FA74BD5523FB3B
:1020BF008A228B2322C0E0C082C083C002C003C02B
:1020CF0004C005C0D075D000E5BE30E6FB90DE063B
:1020DF00E0FA7B00E5224202E52342038A228B23AA
:1020EF0090DE02E0FCE4C454F0CCC4CC6CCC54F0D1
:1020FF00CC6CFDEC4202ED42038A228B2390DE046E
:10210F00E025E0FDE4FC4202ED42038A22EBF523D9
:10211F0030E11890F5B4E0FA5302FE90F5B4EAF00E
:10212F00AA2274FD5523FB8A228B23758B00C2E8EC
:10213F00D0D0D005D004D003D002D083D082D0E04D
:10214F0032C0E0E5BE30E6FBC2AFE58930E703758C
:10215F00210353BEFC758900C2C5D2AFD0E0322235
:1028760053444343762201444F4E53444F4E474CF4
:102886004500000000005253544E00554E494D502D
:102896004C454D454E5445440052455345545F4EB4
:1028A6004F57001201000200000020510415470096
:1028B60001010203010A06000200000020010009CE
:1028C60002200001010080FA0904000002FFFF0156
:1028D60000070585024000010705050240000104C6
:1028E6000309042403610074006C00610073002076
:1028F6000069006E0073007400720075006D00655B
:10290600006E00740073001E034300430031003163
:102916000031003100200055005300420020006EB7
:1029260000690063000A0330003000300033000005
:01293600FFA1
:10216F00AA82AB837C007D008A068B078E828F83C9
:10217F00E493F8A3AE82AF83E860070CBC00ED0DCB
:10218F0080EA8A138B147510F08C118D127582FEF4
:10219F00020FCFE58290F5C6F07513C67514F5756D
:1021AF0010F1751101E4F5127582FE020FCFAA83AB
:1021BF00E58290F5C7F0A3EAF07513C77514F575AE
:1021CF0010F2751102E4F5127582FE020FCFAA828A
:1021DF00AB83ACF0FD90F5C9EAF0A3EBF0A3ECF004
:1021EF00A3EDF07513C97514F57510F3751104E4AB
:1021FF00F5127582FE020FCF90F8D5E4F0A3F090A0
:10220F00F7CEE4F090F7CFF053C6C7759D00859ECB
:10221F009E439E0490F8D27403F07AD77BF88BD547
:10222F007AD77BF88AD47510007511007512029059
:10223F00F5CE75F00012270D120E81D2A87591D12F
:10224F0075E900750C00439A0102228175E1029035
:10225F00DF3BE0FA540D60F790F8D27401F022756D
:10226F00E10390DF3BE0FA541360F790F8D2740269
:10227F00F02275E10490DF3BE0FA30E0F890F8D2FD
:10228F007403F0227A007B00C3EA94DCEB940550D0
:10229F002490DF3CE0FC5450600490000122900039
:1022AF0032C002C003122598D003D00274322AFA2A
:1022BF00E43BFB80D390000022AA82AB83E50D455F
:1022CF000E702C8A828B83E0FC7D008C0D8D0E901E
:1022DF00DF04E0FE530603BE0002800EBE01107441
:1022EF00012CF50DE43DF50E80050ABA00010BD265
:1022FF00A88A108B11751200850D13850E1490F797
:10230F00D275F00012272C90F8E5E4F075E10390F8
:10231F00DF3BE0FA541360F775820122D2A87510E3
:10232F000075110075120190F5CE75F00012270D92
:10233F0090F7CEE4F090F7CFF090F7D0F090F7D180
:10234F007401F090F5CDE4F0539BFC53E9EF75E188
:10235F000290DF3BE0FA540D60F743911022539146
:10236F00EF12228143D68153D1FE539BFC53E9EFE9
:10237F002290F8D2E0FABA01012290F8D27401F05B
:10238F0002232B90F8D2E0FABA010912236D90F8CC
:10239F00D27403F02290F8E67401F02290F8E6E48C
:1023AF00F022C0E0C082C083C002C003C004C005D9
:1023BF00C006C007C0D075D00090F8DF7411F09040
:1023CF00DF3BE0FABA0D5990F5CDE0FB7A00EA2435
:1023DF00CEFAEB34F5FB90F5CDE024CEFCE434F7E8
:1023EF00FD8C828D83E0FE04FF8C828D83F07C0058
:1023FF00EE2AF582EC3BF583E5D9F090F5CDE0249C
:10240F00CEFAE434F7FB8A828B83E0703490F5CDFB
:10241F00E0FA24CEF582E434F7F58374FFF08021DF
:10242F0090DF3BE0FABA131990F8E5E0FA90F8E57F
:10243F00E02401F0EA24D2F582E434F7F583E0F5E5
:10244F00D9C289D0D0D007D006D005D004D003D0C0
:10245F0002D083D082D0E032C0E0C082C083C002FD
:10246F00C003C004C005C0D075D00090F8DF741051
:10247F00F0539BFCE5E9420CE5E930E01C90F8D302
:10248F00E0FAA3E08A037A00AC9C7D0090F8D5EACD
:10249F004CF0EB4DA3F053E9FEE5E95470700302E5
:1024AF00250E90F8D2E0FABA020543D681804D90FE
:1024BF00F5CDE0FAB40100E43324D0F582E434F72B
:1024CF00F583E0FABA012190F5CDE06401F090F5C3
:1024DF00CDE0FA24CEF582E434F7F583E4F090F7FB
:1024EF00D0F090F7D1F08014B29190F5CDE0FA24AE
:1024FF00CEF582E434F7F583E4F0B29153E9CFE5FA
:10250F00E930E62490F8E07410F0B29175E1049090
:10251F00DF3BE0FA30E0F875E10290DF3BE0FA5480
:10252F000D60F7B29153E9BFE5E930E72490F8E089
:10253F007411F0B29175E10490DF3BE0FA30E0F8EE
:10254F0075E10290DF3BE0FA540D60F7B29153E969
:10255F007FD0D0D005D004D003D002D083D082D08A
:02256F00E03258
:0229370000009E
:10257100AA82AB831ABAFF011BC3E49A74808BF061
:1025810063F08095F0500F7C4C7D041CBCFF011D55
:10259100EC4D70F780DE22AA82E583CA25E0CA33BA
:1025A100FB1ABAFF011BC3E49A74808BF063F080BD
:1025B10095F040ED22AA82AB83D2919003E8C0024C
:1025C100C003122571C2919001F4122571D003D07C
:1025D10002150FAC0FEC20E754EA30E0249000190B
:1025E100C002C003C004122571D2919002261225A7
:1025F10071C291900019122571D004D003D00280CC
:1026010022900113C002C003C004122571D291901F
:102611000032122571C291900113122571D004D09C
:1026210003D002EBC313CA13CAFB1C80A8C291904A
:1026310003E8022571AA82AB83ACF0AD10AE11AFF5
:1026410012A813A914E849600575160180037516CF
:1026510000E5166046C000C0018A828B838CF012AF
:1026610027EAF88D828E838FF01227EAF9E8C39961
:10267100F515D001D000E5156010E515F517339576
:10268100E0F518851782851883220ABA00010B0D1F
:10269100BD00010E18B8FF011980AA900000225355
:1026A100BEFBE5BE30E6FB53C6B8E5C620E6FB43FC
:1026B100BE04E5BE30E6FB53C6C743E40C43E40168
:1026C1002243FE03C29122C0E0C082C083C002C087
:1026D10003C004C005C0D075D00090F8E1E0FAA3B2
:1026E100E0FBA3E0FCA3E0FD90F8E174012AF0E433
:1026F1003BA3F0E43CA3F0E43DA3F0D0D0D005D05F
:0C27010004D003D002D083D082D0E0329C
:0600BC00E478FFF6D8FD18
:10270D00AC82AD83AE11AF12BE0004EF600C1F0F93
:10271D00E510122784A3DEFADFF88C828D8322AABE
:10272D0082AB83ACF08A158B168C17A810A911AD4E
:10273D0012881889198D1AA813A9148805890618E5
:10274D00B8FF0119ED4E6025851882851983851A0C
:10275D00F01227EAFDA38582188583198A828B835F
:10276D008CF0ED122784A3AA82AB8380CE851582CF
:07277D008516838517F02289
:10009A007902E94400601B7A0190293778E5759363
:1000AA00F8E493F2A308B800020593D9F4DAF275DA
:0200BA0093FFB2
:1027840020F71030F6118883A88220F507F6A88375
:1027940075830022F280F7F022E510451160467A35
:1027A40001E51025E0F510E511334012F511E5823D
:1027B4009510E583951140030A80E6C3E51113F5EE
:1027C40011E51013F510C3E5829510F5F0E5839536
:1027D400114005F58385F082C3E51113F511E51069
:0627E40013F510DAE122FA
:1000C2007800E84400600A79007593F0E4F309D8F7
:1000D200FC78E5E84408600C790990F000E4F0A3AC
:0400E200D8FCD9FA73
:0F008B00E473758150122806E582600302008637
:1027EA0020F71430F6148883A88220F507E6A88318
:1027FA0075830022E280F7E49322E02275820022A8
:00000001FF
