:0614000002148D023E12F1
:01140B0032AE
:0114130032A6
:01141B00329E
:011423003296
:01142B00328E
:0314330002380D6F
:01143B00327E
:011443003276
:03144B000243A3B6
:0314530002174A33
:03145B0002199CD7
:011463003256
:03146B00023899AB
:011473003246
:01147B00323E
:0314830002401D07
:0314EB0002148662
:051486001225D080FEDC
:1014EE00AA82AB8375E10490DF3BE0FCBC01F8906F
:1014FE00DF06EAF075E10290DF3BE0FABA0DF82262
:10150E007A007B0090F007E0FCA3E0FD8A068B07D3
:10151E00C3EE9CEF9D503AEA2415FCEB34F0FD909F
:10152E00F005E0F56EA3E0F56F8A828B83C002C0F2
:10153E0003C004C005124812AE82AF83D005D0049A
:10154E00D003D0028C828D83EEF00ABA00B60B80E7
:10155E00B390F001E4F0A3F0A3F0A3F022AA82E589
:10156E009CC39AF59CE59C24FAF59C439E10D2BA36
:10157E0022539EEF22AA82AB8390F000E0FC601C07
:10158E00BC010280179049D4C002C0031238B89033
:10159E00F000E0F5821238EBD003D002C002C00397
:1015AE0012157FD003D00290F009E4F0A3F090F072
:1015BE0009E0FCA3E0FD8C828D83C002C0031216ED
:1015CE0096D003D00290DF3BE0FCBC0DF890DF3AE2
:1015DE00E0FC53047FBC6000402F90F009E0FCA3B8
:1015EE00E0FD0CBC00010D90F009ECF0A3EDF0D283
:1015FE009090000AC002C00312424CC29090000AA2
:10160E0012424CD003D00280A590F0007402F090EC
:10161E00FAEFE0FCA3E0FDA3E0A3E090F00BECF00A
:10162E00A3EDF090F00FEAF0A3EBF02290F000E4BF
:10163E00F090FAEFE0FAA3E0FBA3E0A3E090F00B4A
:10164E00EAF0A3EBF02290F0007404F090FAEFE0D1
:10165E00FAA3E0FBA3E0A3E090F00BEAF0A3EBF01B
:10166E002290F0007405F090F013E4F0A3F090FADD
:10167E00EFE0FAA3E0FBA3E0A3E090F00BEAF0A307
:10168E00EBF075820002156BAA82AB83EA2415F586
:10169E0082EB34F0F583E0FA7B008A828B830214AE
:1016AE00EE85826E85836F85F07090F011E075F097
:1016BE0029A4FA2487F582E434F3F583E508F0EAE9
:1016CE002487FAE434F3FB0ABA00010B7C00850888
:1016DE00717572008A828B838CF012473890F011EC
:1016EE00E0FA0A90F011EAF0BA0500400590F01108
:1016FE00E4F022AA82AB8390F385EAF0A3EBF0220A
:10170E002290F009E0FAA3E0FB0ABA00010B90F078
:10171E0009EAF0A3EBF0C3EA9470EB940340079050
:10172E00F009E4F0A3F090F009E0FAA3E0FBEA245C
:10173E0015F582EB34F0F583E0F58222C020C0E08F
:10174E00C0F0C082C083C002C003C004C005C00682
:10175E00C007C000C001C0D075D00090FAE8E024E8
:10176E0001F0A3E03400F090F001E0FAA3E0FBA357
:10177E00E0FCA3E0FD90FAE8E0FEA3E0FF7800793C
:10178E0000C3EE9AEF9BE89CE99D500302197F90EF
:10179E00FAE8E0FAA3E08A037A00AC9C7D00EC4202
:1017AE0002ED420390F00DEAF0A3EBF090F009E0A9
:1017BE00FAA3E0FB0ABA00010B90F009EAF0A3EBE2
:1017CE00F090F007E0FCA3E0FDC3EA9CEB9D400720
:1017DE0090F009E4F0A3F090DF3BE0FABA130302B5
:1017EE00197F90F009E0FAA3E0FB8A828B83121630
:1017FE009690FAE8E4F0A3F090F000E0FABA030352
:10180E00021903BA0403021903BA0502800302196E
:10181E007F90001912424C90F454741CF090F00911
:10182E00E0FAA3E0FB8A0490F455ECF08B0290F4FE
:10183E0056EAF090F4577442F090F458744CF090CD
:10184E00F4597441F090F45A7448F090F45B744279
:10185E00F090F45C744CF090F45D7441F090F45E92
:10186E007448F090F45F7442F090F460744CF09011
:10187E00F4617441F090F4627448F090F463744231
:10188E00F090F464744CF090F4657441F090F4664A
:10189E007448F090F4677442F090F468744CF090D1
:1018AE00F4697441F090F46A7448F090F46B7442E9
:1018BE00F090F46C744CF090F46D7441F090F46E02
:1018CE007448F090F46F7420F075121CE4F513E474
:1018DE00F514F515F516F51790F455123B5E90F0CC
:1018EE0013E0FAA3E0FB0ABA00010B90F013EAF042
:1018FE00A3EBF0807C90F012E075F029A42487FA17
:10190E00E434F3FB8A828B83E06066B29090001918
:10191E0012424C90F012E075F029A42487FAE434B8
:10192E00F3FB90DF04E05401FCB40100E4332AFC25
:10193E00E43BFD8A828B83E0FA8A12E4F513F514F8
:10194E00F515F516F5178C828D83123B5E90F0120D
:10195E00E0FA75F029A42487F582E434F3F583E4E4
:10196E00F00A90F012EAF0BA0500400590F012E489
:10197E00F0D0D0D001D000D007D006D005D004D002
:10198E0003D002D083D082D0F0D0E0D0203232907B
:10199E00F000E4F090F011F090F012F090F009F0F9
:1019AE00A3F090F0057453F0A3E4F090F007745395
:1019BE00F0A3E4F090F00DF0A3F090F00BE4F0A3A0
:1019CE00F090F001E4F0A3F0A3F0A3F090F00FE498
:1019DE00F0A3F090F013E4F0A3F012150E90F000C7
:1019EE00E4F0759DDC859E9E439E0443CB10227AC7
:1019FE00B27B1D8A828B83122AD790FAEFE4F0A372
:101A0E00F0A3F0A3F002199D90F000E0FABA0003E3
:101A1E00021CC8BA0103021BBDBA0203021AD3BAD2
:101A2E000303021CC8BA0403021CC8BA0503021C35
:101A3E00A9BA40028006BA410280372275E10490AD
:101A4E00DF3BE0FABA01F890DF0374E5F090DF04B3
:101A5E007404F090DF077412F090DF08E4F090DF6A
:101A6E00147410F090DF17E0FA44C0F090F0007498
:101A7E0041F07A0090F013E0FBA3E0FC8A057E00B3
:101A8E00C3ED9BEE9C502790DF06EAF075E10290C5
:101A9E000002C00212424CD002EA24E1FDE434F608
:101AAE00FE90DF3AE0FF8D828E83F00A80C675E1EC
:101ABE00048B327533007531017534E17535F67569
:101ACE008243022602E5117003021BB690FAED74F2
:101ADE000DF0539AFEE51120E403021BB690F000C0
:101AEE007403F090FAEAE0FAA3E08A8212156B9082
:101AFE004A021238B890FAEAE0FAA3E0FB8A828B27
:101B0E008312390690F6E0E025E0FBE424E1FAEBDF
:101B1E0034F6FB8A828B831238B890F6E0E0FAB482
:101B2E000100E433FA24E5FBE434FAFC8B828C8367
:101B3E00E0707290DF04E0FB30E0378A03EB2BFCA1
:101B4E00E4FB24E1F582EC34F6F583E0FD8D32758D
:101B5E003300EB24E1FBEC34F6FC74012BF534E49A
:101B6E003CF535753101758242C002122602D00253
:101B7E00802690DF02E0FB8B327533008A03EB2B5D
:101B8E00FCE424E1F534EC34F6F53575310175825B
:101B9E0042C002122602D002EA24E5F582E434FAAB
:101BAE00F5837401F05311EF751100439A0122E58C
:101BBE00117003021CA290FAED740DF0539AFEE51B
:101BCE001120E403021CA290F6E0E0FAB40100E456
:101BDE0033FA904A17C0021238B8D002EA2AFBE450
:101BEE00FA24E1FCEB34F6FD8C828D83C002C00337
:101BFE00123906D003D002EA24E1FAEB34F6FB8A5E
:101C0E00828B831238B890F6E0E0FAB40100E43328
:101C1E00FA24E5FBE434FAFC8B828C83E07072903C
:101C2E00DF04E0FB30E0378A03EB2BFCE4FB24E11E
:101C3E00F582EC34F6F583E0FD8D32753300EB243E
:101C4E00E1FBEC34F6FC74012BF534E43CF5357510
:101C5E003101758242C002122602D002802690DF28
:101C6E0002E0FB8B327533008A03EB2BFCE424E19C
:101C7E00F534EC34F6F535753101758242C0021239
:101C8E002602D002EA24E5F582E434FAF5837401E3
:101C9E00F05311EF751100439A012290F013E0FA00
:101CAE00A3E0FB90F007E0FCA3E0FDC3EA9CEB9DF4
:101CBE0050012290F0007404F022E5117001229080
:101CCE00FAED740DF0E511543070012290F6E0E05B
:101CDE00FAB40100E433FA24E5FBE434FAFC8B8217
:101CEE008C83E06003021D7B90DF04E0FB30E03765
:101CFE008A03EB2BFCE4FB24E1F582EC34F6F5834E
:101D0E00E0FD8D32753300EB24E1FBEC34F6FC7410
:101D1E00012BF534E43CF535753101758242C00274
:101D2E00122602D002803990FAF3E0FB600A90FA94
:101D3E00F6E0FBA3E0FC800890DF02E0FDFB7C00F8
:101D4E008A05ED2DFEE424E1F534EE34F6F5357515
:101D5E0031018B328C33758242C002122602D002C0
:101D6E00EA24E5F582E434FAF5837401F05311CFD9
:101D7E0022E58290F470F090F6B7E0FA5302FD90EF
:101D8E00F6B7EAF090F6B3E0FA90F6B4E0F53190DB
:101D9E00F470E0FB8B32753300850B34850C358A7D
:101DAE008202260290F6AEE0FAA3E0FB90F6B3E0D4
:101DBE00FCBC4202800302231290F6B4E0FCBC028B
:101DCE0003021EF1BC03030220A9BC0403021E9DE4
:101DDE00BC0503021F86BC0603022032BC070302A9
:101DEE002048BC0803022057BC0903022080BC1007
:101DFE00030220F4BC1103022166BC120302218BE4
:101E0E00BC13030221E2BC1403022209BC15030217
:101E1E00221DBC1603022250BC17030220CDBC1893
:101E2E0003022151BC2003022283BC21030222FAA9
:101E3E00BC220302225FBC23030221AFBC24030297
:101E4E0021CABC40028008BC41028031022308C076
:101E5E0002C00312157FD003D00290F0007440F040
:101E6E008A828B83E0FC7D0090F013ECF0A3EDF002
:101E7E008A0B8B0C758201121D7F02231290F000CB
:101E8E00E4F08A0B8B0C758201121D7F0223128ADD
:101E9E00828B83E0FCA3AA82AB83BC0102800ABCC6
:101EAE0002028021BC0329800DC002C003123A5DDC
:101EBE00D003D002801AC290C002C003123AA1D041
:101ECE0003D002800BC002C003123A7AD003D002B4
:101EDE0090F6B1E0FCA3E08C828A0B8B0C121D7F76
:101EEE0002231290F000E06009904A311238B802D5
:101EFE0023128A828B83E0FCA3AA82AB837D008AA5
:101F0E00828B83E0FEA3AA82AB838E07E42CFCEFC8
:101F1E003DFD90F471ECF0A3EDF08A828B83E0FE30
:101F2E00A3AA82AB837F008A828B83E0F8A3AA8266
:101F3E00AB838801E42EF514E93FF5158A828B8375
:101F4E00E0FEA3AA82AB837F008A828B83E0F8A394
:101F5E00AA82AB838801E42EF516E93FF5178C12A1
:101F6E008D138A828B83123B5E750B71750CF47523
:101F7E008201121D7F0223128A828B83E0FCA3AAA8
:101F8E0082AB8390FAF6ECF0A3E4F08A828B83E0C6
:101F9E00FD7C0090FAF6E0FEA3E0FF90FAF6EC2E40
:101FAE00F0ED3FA3F090FAF6E0FCA3E0FD4C6040AC
:101FBE0090FAF37401F090FAF4E0FCA3E0FD4C709B
:101FCE0044123AA190FAF6E0FCA3E0FD90FAF4EC8C
:101FDE00F0A3EDF090FAF4E0FCA3E090DF02ECF059
:101FEE0090DF04E054FCF0E04402F0123A5D8015FC
:101FFE0090FAF3E4F090FAF4F0A3F090FAF6E4F02D
:10200E00A3F0123AA190F6B3E0FC90F6B4E0F531ED
:10201E007534F67535FA753201E4F5338C82122675
:10202E00020223128A828B83E090FB05F08A0B8BCF
:10203E000C758201121D7F022312750B05750CFBA8
:10204E00758201121D7F02231290FB05E0FC74F0D5
:10205E005CF56F756E068A828B83C002C0031244D4
:10206E00E9D003D0028A0B8B0C758210121D7F02F1
:10207E00231290FB05E0FC74F05CF56F756E048A1C
:10208E00828B83C002C0031244E9D003D0028A0BB4
:10209E008B0C758210121D7F0223128A828B83E0B5
:1020AE00FC7D008C828D83C002C003121701D00309
:1020BE00D0028A0B8B0C758201121D7F0223128AAD
:1020CE00048B057E0090F6B1E0FFA3E08F088C82B2
:1020DE008D838EF01216AF750B56750C4A758201F4
:1020EE00121D7F0223128A828B83E0FC7D0090F00A
:1020FE0005ECF0A3EDF0C374709C74039D40357431
:10210E00022AFAE43BFB8A6E8B6F75700090F00525
:10211E00E0F571A3E0F57290F01575F000124738F6
:10212E0074052400F50BE434F0F50C758202121DD3
:10213E007F022312750B58750C4A758208121D7F8B
:10214E0002231290F005E0FCA3E0750B15750CF060
:10215E008C82121D7F02231212170F7D008D8312A7
:10216E00169690F009E0FCA3E0FDEC2415F50BEDBE
:10217E0034F0F50C758201121D7F0223128A828BB8
:10218E0083E0FC7D008C828D83C002C0031214EEAE
:10219E00D003D0028A0B8B0C758201121D7F022395
:1021AE0012758200C002C00312156BD003D0028AD2
:1021BE000B8B0C758201121D7F022312C002C0030D
:1021CE0012157FD003D0028A0B8B0C758201121D63
:1021DE007F0223128A828B83E0FC7D007E007F00CB
:1021EE0090F001ECF0A3EDF0A3EEF0A3EFF08A0B6C
:1021FE008B0C758201121D7F02231274012400F5CF
:10220E000BE434F0F50C758204121D7F0223128A42
:10221E00828B83E0FC7D008C6E8D6F757000757106
:10222E0015E4F57290F00075F000C002C00312477D
:10223E0038D003D0028A0B8B0C758215121D7F02CB
:10224E002312750B00750CF0758215121D7F02237B
:10225E00128A828B83E0FC7D008C828D83C002C04B
:10226E0003121583D003D0028A0B8B0C75820112D8
:10227E001D7F02231290FAEFE0FCA3E0FDA3E0FE27
:10228E00A3E0FF90F00BECF0A3EDF08A828B83E0DD
:10229E00FC90F000F090F000E0FDEC24FA4041EDEF
:1022AE002D2D9022B4730222C60222C60222C6022D
:1022BE0022E00222E00222D3C002C00312157FD018
:1022CE0003D002801BC002C00312166FD003D002CF
:1022DE00800E758200C002C00312156BD003D002AF
:1022EE008A0B8B0C758201121D7F8018750B007581
:1022FE000CF0758201121D7F800A8A0B8B0C758281
:10230E0001121D7F90F6B7E0FA5302FD90F6B7EA80
:10231E00F0900000222290F6BCE0FABA014490F64A
:10232E009CE0FAA3E0FBA3E090F6BFE0FCA3E0FD87
:10233E0090F69FE0FEA3E0FFEE4F6004780180026E
:10234E007800E8601D8A828B83E0F8A3AA82AB83B3
:10235E008C828D83E8F0A3AC82AD831EBEFF011F7D
:10236E0080D690F6A5E0FA5302FD90F6A5EAF0901D
:10237E00DE11E04408F022AA82AB83ACF012497160
:10238E00FD20E7030224AC74012AFDE43BFE8C071A
:10239E008D828E838FF0124971FD601FBD01028008
:1023AE002CBD0202803EBD030302242EBD04030297
:1023BE002453BDFE0302246C0224AC753602E4F5F0
:1023CE003790FAED75F0001228940224AC90DE00DE
:1023DE00E0FD7E00753828E4F5398D828E83122853
:1023EE00F30224AC74022AFDE43BFE8C078D828E30
:1023FE00838FF0124971FDA3124971FE74062AFFF4
:10240E00E43BF88C018F82888389F0124971F5388C
:10241E00A3124971F5398D828E831228F30224ACF2
:10242E0074062AFDE43BFE8C078D828E838FF0129C
:10243E004971F536A3124971F5378A828B838CF078
:10244E00122894805990F69CE0FDA3E0FEA3E08D47
:10245E00828E83753810E4F5391228F380407402A9
:10246E002AFAE43B7B007C40756E60756F4A75708E
:10247E0080757104E4F5728A828B838CF01243119D
:10248E00E5828583F045F06012D29090012C1242C5
:10249E004CC29090012C12424C800375C98390005F
:1024AE00002290DF2FE4F090DF30F090DF31F090DB
:1024BE00DF00740CF090DF01744EF090DF0274FFB9
:1024CE00F090DF037440F090DF04E4F090DF05F04D
:1024DE0090DF06F090DF077406F090DF08E4F090CE
:1024EE00DF097424F090DF0A743AF090DF0B74F178
:1024FE00F090DF0C74CAF090DF0D74A3F090DF0E35
:10250E007401F090DF0F7423F090DF107411F090CF
:10251E00DF117436F090DF127407F090DF13743F02
:10252E00F090DF147418F090DF157417F090DF162A
:10253E00746CF090DF177403F090DF187440F09015
:10254E00DF197491F090DF1A7456F090DF1B74103F
:10255E00F090DF1C74E9F090DF1D742AF090DF1EFE
:10256E00E4F090DF1F741FF090DF237488F090DF8B
:10257E00247431F090DF257409F090DF2E74C0F0D2
:10258E0090DF07740CF090DF097425F090DF0A7469
:10259E0095F090DF0B7455F090DF1A74B6F090DF63
:1025AE001B7410F090DF1C74EAF090DF1D742AF09B
:1025BE0090DF1EE4F090DF1F741FF02212437B02A7
:1025CE00439D1225CA1239501243E812285D123A61
:1025DE00CD1219FD12288ED2AF122739D29090004B
:1025EE000212424CC29090000A12424C1236BC1299
:0425FE001A1680F831
:1049D4004648535320737461746520656E74657220
:1049E400696E672053594E4348494E472066726F9B
:1049F4006D2077726F6E67207374617465006E65E5
:104A040074776F726B207061636B65742873796E51
:104A14006329006E6574776F726B207061636B65D8
:104A24007428646973636F766572792900637261AF
:104A3400702C20706C656173652075736520464821
:104A44005353786D6974282920696E7374656164A1
:104A5400210000004E4F204445414C005253544E17
:014A64000051
:10260200AA827B0190DE0E7405F0E532453370013B
:10261200227C107D2790DE11E0FE30E00D90FAEE74
:102622007401F01CBCFFEE1D80EBEC4D7014D290D7
:1026320090006412424CC29090006412424C90FF8F
:10264200FF22BB012F7B0090DE2A7440F0EAF0E506
:1026520031F0AC327D0090DE2AECF0E533F0C37449
:102662003B9532E4953350067C3B7D00801AAC32B8
:10267200AD338014C374409532E4953350067C40E8
:102682007D008004AC32AD337480252842D6852586
:1026920082852683AE34AF358F00E8F085258285AA
:1026A2002683A37F00EEF0852582852683A3A3746B
:1026B200DEF0852582852683A3A3A3742AF08525CF
:1026C20082852683A3A3A3A3A3ECFEF0852582859E
:1026D2002683A3A3A3A3E054E0F085258285268365
:1026E200A3A3A3A3A3A3A3E0543F4440F085258260
:1026F200852683A3A3A3A3A3A3A3E054CFF0E52835
:1027020042D6E52842D7E52855D160FAE528F452A9
:10271200D190DE0E7405F090DE11E0FE4401F0E58A
:1027220032C39CF532E5339DF533EC2534F534EDB7
:102732003535F53502260CE52170051236BC80F7D9
:102742002253BE7F43BE8090DE0B74F7F090DE070B
:1027520074FFF090DE0974FFF0438C10538CFED2AC
:10276200BD439A02758900C2C5758B00C2E843A9B0
:102772000243B902852582852683A3A3A3A3E0543D
:10278200E0F0852582852683A3A3A3A3A3A3E05417
:102792009F4420F0852582852683A3A3A3A3A3A318
:1027A200A3E04408F0852582852683A3A3A3A3A3DF
:1027B200A3A3E054FC4401F090DE01E054FEF07566
:1027C200240075220075230075210090DE0EE4F0CE
:1027D20090DE107404F090DE137404F090F6A6E418
:1027E200F090F6A5F090F69AF0A3F090F69C747330
:1027F200F0A374F4F0A3E4F090F69FF0A3F090F647
:10280200A1E4F090F6A2F090F6A3F0A3F090DE0E11
:102812007405F090DE107408F090DE137408F090E6
:10282200DE12E04480F090F6B8E4F090F6B7F09053
:10283200F6ACF0A3F090F6AE7493F0A374F4F0A3A8
:10284200E4F090F6B1F0A3F090F6B3E4F090F6B4B1
:10285200F090F6B5F0A3F0439A022212397A8582FB
:10286200278527F005F07401800225E0D5F0FBF5FD
:1028720028E527C40354F824C8F525E434F6F526E0
:1028820090FAED7402F043BE80022743D29122C235
:102892009122AA82AB83ACF090F6A6E06034D2908B
:1028A2009003E812424CC2909003E812424CD2903C
:1028B2009003E812424CC2909003E812424CD2902C
:1028C2009003E812424CC2909003E812424C90FFEF
:1028D200FF2290F697EAF0A3EBF0A3ECF090F69AC1
:1028E200E536F0A3E537F090F6A67401F09000000B
:1028F20022AA82AB8390F6A6E06034D2909003E8DD
:1029020012424CC2909003E812424CD2909003E8DB
:1029120012424CC2909003E812424CD2909003E8CB
:1029220012424CC2909003E812424C90FFFF227C6C
:102932000090F697EAF0A3EBF0A3ECF090F69AE59C
:1029420038F0A3E539F090F6A67401F09000002269
:102952007A0290DE0EE4F090F69AE0FBA3E0FCC36C
:1029620074209BE49C50047D2080048B057A0A8DA0
:10297200067F00EBC39EFBEC9FFC90F69AEBF0A364
:10298200ECF08D03EB60047C0180027C00EC60368D
:1029920090F697E0FCA3E0FDA3E0FE8C828D838E8F
:1029A200F012497190DE20F090F697E0FCA3E0FD72
:1029B200A3E0FE0CBC00010D90F697ECF0A3EDF045
:1029C200A3EEF01B80BE90DE11E04AF090F69AE092
:1029D200FAA3E0FB4A700590F6A6E4F02290F6A670
:1029E2007402F07582002290F69CE0FAA3E0FB905C
:1029F200DE11E0FCB40100E433FC20E0F290DE0ED4
:102A0200E4F090DE16E0FC7D0090F69FECF0A3ED82
:102A1200F090F6A5E0FE30E10A90F6A67403F0907D
:102A2200FFFF2290F6A5E0FE43060290F6A5EEF027
:102A320090F69FE0FEA3E0FFC374209EE49F50182F
:102A4200D29090012CC002C00312424CC29090015D
:102A52002C12424CD003D00290F69FE0FCA3E0FD82
:102A6200EC4D60027401FE601690DE20E0FE8A8268
:102A72008B83F0A3AA82AB831CBCFF011D80E1E51E
:102A82002B452C6009852B82852C8312148B90F6A2
:102A92009FE0FAA3E0FBC3EA9420EB9400501CE50C
:102AA20029452A6009852982852A8312148B90DEA2
:102AB20011E0FA4408F090F6A6E4F090DE11E0444A
:102AC20040F090F69FE0FAA3E08A82F583228582A5
:102AD2002D85832E2285822F85833022753601E44F
:102AE200F53790002475F040022894AA82AB83AC9B
:102AF200F074022AFAE43BFB8A828B838CF012493F
:102B020071FAA31249718A247521012285826F7B91
:102B12009A7C4A7D8074012BFEE43CFF8D008E82FC
:102B22008F8388F0124971FEAF6EBEFF028052EEB3
:102B3200B56F2BEF70047EFF80F01F8B828C838D2C
:102B4200F01249712BFBE43CFC74012BF8E43CF9D4
:102B52008D02888289838AF0124971FE80CC8B8231
:102B62008C838DF01249712BFBE43CFC74012BFA2F
:102B7200E43CF88D018A82888389F0124971FE80D3
:102B8200A98B828C838DF02285823A85833B85F0E6
:102B92003C7402253AF544E4353BF545853C4685CF
:102BA20044828545838546F0124971F8A312497122
:102BB200F989427543007401B54206E4B5430280C7
:102BC2001A7402B54206E4B54302802C7403B5427E
:102BD20007E4B54303022C78022C958982756E00B6
:102BE200122B0E85823D85833E85F03F124971FA94
:102BF2008A40754100022CAE898288048C6E122BA9
:102C02000E85823D85833E85F03F7402253DFCE4BE
:102C1200353EFDAE3F8C828D838EF0124971FC8C65
:102C2200407541008544828545838546F01249718D
:102C3200A3124971FC7D007401253DFEE4353EFF7F
:102C4200AA3F8E828F838AF0124971FE7A00ECB518
:102C52000606EDB502028054854482854583854689
:102C6200F0124971FAA3124971FB7518108A828B0E
:102C72008312429180E2898288028A6E122B0E852B
:102C8200823D85833E85F03F124971FA8A40754143
:102C92000080198982886E122B0E85823D85833EC3
:102CA20085F03F124971FA8A407541007406253A4F
:102CB200FAE4353BFBAC3C8A828B838CF01249717F
:102CC200FAA3124971FBC3EA9540EB954150048A7D
:102CD200408B41854036854137853D82853E8385DF
:102CE2003FF002289490DE0EE4F090DE11E0FA301C
:102CF200E40D90F6A6E4F090DE11E0FB4480F0EAE9
:102D020030E22490DE11E4F090FAEE7404F090F6D2
:102D1200A6E4F0D2909000C8C00212424CC2909039
:102D220000C812424CD00290F6A6E0FBBB0319D2B7
:102D3200909001F4C00212424CC2909001F41242EF
:102D42004CD00290F6A6E4F090F6A6E06003022FC3
:102D520086EA20E003022F8690DE0EE4F07A007B02
:102D6200477C007D40BA0800501690DE20E0FE8BC2
:102D7200828C838DF01247DCA3AB82AC830A80E5A0
:102D8200E547FA20E703022E8E74605AFB6015BBFA
:102D92002003022F70BB4003022E53BB6003022E9E
:102DA2007B022F70741F5AFB7046AC48BC00028035
:102DB2001CBC06028005BC082B800C90004775F0F5
:102DC20040122B8A022F70122ADE022F70E4F54F76
:102DD200F550753602E4F53790004F75F040122831
:102DE20094022F7090004775F0401238B7022F708E
:102DF200BB011AAC48BC0003022F70BC0A03022FAD
:102E02007090004775F0401238B7022F70BB022D48
:102E1200AC48BC00028008BC1203022F70801275FD
:102E22003602E4F537904A7A75F080122894022F20
:102E32007090004775F0401238B7022F709000472B
:102E420075F0401238B790DE11E0FC4420F0022FFA
:102E520070E52D452E6016746CC0E0742EC0E0C083
:102E62002DC02E90004775F04022022F709000472F
:102E720075F040122F9D022F7090DE11E04420F079
:102E820090004775F0401238B7022F7074605AFCF8
:102E92006015BC2003022F70BC4003022F39BC60B6
:102EA20003022F5F022F70741F5AFB703FAA48BAA9
:102EB2000103022F70BA0303022F70BA0502800BBE
:102EC200BA0703022F70BA0917800990DE00E5499C
:102ED200F0022F7090004775F040122AED022F7019
:102EE20090004775F0401238B7022F70BB011CAA40
:102EF20048BA01028078BA03028073BA1102806E66
:102F020090004775F0401238B78063BB0217AA4899
:102F1200BA01028059BA0302805490004775F0400A
:102F22001238B7804990DE11E04420F090004775D6
:102F3200F0401238B78037E52D452E60157452C027
:102F4200E0742FC0E0C02DC02E90004775F04022E3
:102F5200801C90004775F040122F9D801190004711
:102F620075F0401238B790DE11E0FA4420F090DE9E
:102F720011E0FA4440F0E54D454E700890DE11E054
:102F8200FA4408F090F6A6E0FABA01031229529028
:102F9200F6A6E0FABA02030229E922AA82AB83ACBE
:102FA200F0124971FD20E7030230CC74012AFDE4DE
:102FB2003BFE8C078D828E838FF0124971FD601F5C
:102FC200BD0102802CBD0202803EBD0303023046D9
:102FD200BD040302306CBDFE03023086023140752F
:102FE2003602E4F53790FAED75F0001228940231BA
:102FF2004090DE00E0FD7E00753828E4F5398D82D0
:103002008E831228F302314074022AFDE43BFE8CC7
:10301200078D828E838FF0124971FDA3124971FED2
:1030220074062AFFE43BF88C018F82888389F012B0
:103032004971F538A3124971F5398D828E831228B0
:10304200F302314074062AFDE43BFE8C078D828E2A
:10305200838FF0124971F536A3124971F5378A82CE
:103062008B838CF012289402314090F69CE0FDA3F1
:10307200E0FEA3E08D828E83753810E4F5391228C4
:10308200F302314074022AFDE43B8C077E007F404C
:10309200756E7D756F4A757080757104E4F5728D79
:1030A200828E838FF0124311E5828583F045F060B2
:1030B20013D29090012C12424CC29090012C1242D9
:1030C2004C02314075C98302314090F6BCE0FDBD2F
:1030D200015F74022AFAE43BFB8A828B838CF01232
:1030E2004971FAA3124971FB90DE0EE4F090DE16EC
:1030F200E0FC7D007518088C828D83C002C003C07D
:1031020004C005124291D005D004D003D002EC4D88
:1031120060047E0180027E00EE601690DE20E0FEFA
:103122008A828B83F0A3AA82AB831CBCFF011D8021
:10313200DD90F6A5E0FA5302FD90F6A5EAF09000C4
:10314200002290F6B7E0FA30E10A90FAEE7405F048
:1031520090FFFF2290DE0E7405F090DE16E0FA7BFF
:103162000090DE17E0FDE42AFAED3BFB90F6B5E0B5
:10317200FCA3E0FD4C705590F6B1E4F0A3F090DEB4
:103182002AE090F6B3F090DE2AE090F6B4F090DEFA
:103192002AE0FC7D0090F6B5ECF0A3EDF090DE2A7B
:1031A200E0FFE4FE2CFCEF3DFD90F6B5ECF0A3ED64
:1031B200F0EA24FCFAEB34FFFBC374049C74029D16
:1031C200500A90F6B57404F0A37402F0E52855D1C4
:1031D200601AD290900014C002C00312424CC290F6
:1031E20090001412424CD003D00280E090F6AEE080
:1031F200FCA3E0FDA3E090F6B1E0F551A3E0F552A7
:10320200E5512CFCE5523DFD7480252842D68525EA
:103212008285268374DEF0852582852683A3742A1F
:10322200F0852582852683A3A38D06EEF08525826F
:10323200852683A3A3A3ECF0852582852683A3A3F9
:10324200A3A3A3A3A3E0543FF0852582852683A3ED
:10325200A3A3A3A3A3A3E054CF4410F07405252590
:10326200FCE43526FD90DE16E08C828D83F074043A
:103272002525FCE43526FD90DE17E0FE8C828D8349
:10328200541FF5F0E054E045F0F0E5512AFCE55218
:103292003BFDC374049C74029D500B7404C395518E
:1032A200FA74029552FBC374409AE49B501B90FA45
:1032B200EE7406F090DE14E054FEF07518108A8267
:1032C2008B8312429190FFFE22E52842D6E52842E6
:1032D200D7EA2551FAEB3552FB90F6B1EAF0A3EBAF
:1032E200F0E52855D160FAE528F452D190F6B1E024
:1032F200FAA3E0FB90F6B5E0FCA3E0FDC3EA9CEB89
:103302009D403090F6B7E0FA43020290F6B7EAF039
:1033120090F6B5E4F0A3F090DE0E7405F0AA2274E4
:10332200BF5523FB8A228B2390DE14E054FEF090DB
:1033320000012290DE0E7405F0AA2274BF5523FB11
:103342008A228B2390DE14E054FEF090000022903B
:10335200F6B7E090F6AEE0FAA3E0FB90F6B3E0FC3D
:10336200BCFF02800302369F90F6B4E0FDBD8002EE
:103372008033BD8103023410BD8203023597BD83C1
:10338200030235AFBD84030234C2BD85030235C5D5
:10339200BD86030235E5BD87030235FBBD8F0302FF
:1033A200361B0236738A828B83E0FEA3AA82AB832A
:1033B2007F0090F6B5EEF0A3EFF08A828B83E0F8FF
:1033C200A3AA82AB8388017800E82EFEE93FFF9032
:1033D200F6B5EEF0A3EFF08A828B83E0F8A3885370
:1033E200755400E0F97800E82553F553E93554F5B2
:1033F20054AA53AB548D318E328F338A348B358C31
:103402008212260290F6B5E4F0A3F00236918A8287
:103412008B83E0FEA38E53755400E0FEA3AA82AB19
:10342200838E077E00EE2553F553EF3554F554A8ED
:1034320053A95490F6B9E8F0A3E9F090F6B1E0FE92
:10344200A3E0FFEE24FEF553EF34FFF5548A588BC8
:1034520059855356855457E55645576005755501AC
:103462008003755500E555603BC00490F6B9E0FC59
:10347200A3E0F874012CF9E438FE90F6B9E9F0A360
:10348200EEF0855882855983E0FEA38582588583B4
:10349200598C828883EEF0155674FFB55602155783
:1034A200D00480B390F6B5E0FEA3E0FF8E348F35F2
:1034B2008D31753202E4F5338C8212260202369186
:1034C20090F6B7E0FE20E22D8A828B83E0FEA38E87
:1034D20053755400E0FEA3AA82AB838E077E00EEF2
:1034E2002553F553EF3554F554A853A95490F6B922
:1034F200E8F0A3E9F090F6B5E0FEA3E0FF8E538F6B
:1035020054C374409553E495545006755340E4F502
:1035120054EEC39553FEEF9554FF90F6B5EEF0A32B
:10352200EFF08A5A8B5B855356855457E5564557BB
:1035320060057558018003755800E558603BC0046A
:1035420090F6B9E0FCA3E0F874012CF9E438FE909F
:10355200F6B9E9F0A3EEF0855A82855B83E0FEA31B
:1035620085825A85835B8C828883EEF0155674FFC0
:10357200B556021557D00480B390F6B5E0FEA3E02D
:10358200FF8E348F358D31753202E4F5338C821221
:10359200260202369190F6B1E0F532A3E0F5338DC2
:1035A200318A348B358C821226020236917534822E
:1035B20075354A8D3175320DE4F5338C821226024F
:1035C20002369190FAEFE0FEA3E0FFA3E0A3E08EC3
:1035D200348F358D31753204E4F5338C8212260234
:1035E20002369175346C75354A8D3175320EE4F5BB
:1035F200338C8212260202369190F6B1E0F532A3A4
:10360200E0F5338D318A348B358C8212260290009C
:10361200C812424C12399A80768A048B057E007554
:103622006E90756F4A757080757109E4F5728C82BF
:103632008D838EF0C002C003124311E5828583F0B0
:10364200D003D00245F0704775C98090F6B3E0FC14
:1036520090F6B4E0F53190F6B1E0F532A3E0F5333F
:103662008A348B358C82C002C003122602D003D06A
:103672000290F6B3E0FC90F6B4E0F53190F6B1E0DA
:10368200F532A3E0F5338A348B358C821226029010
:10369200F6B7E0FA5302FD90F6B7EAF022E52F45BD
:1036A200306009852F8285308312148B90F6B7E043
:1036B200FA5302FD90F6B7EAF022AA22AB23EA30CF
:1036C200E01175210274FE5522FCAD238C228D235C
:1036D20043BE01EA5406602C90FAED740AF075219B
:1036E2000374FD5522FAAB238A228B2390DE01E07C
:1036F2004404F090000812424C90DE01E0FA54FBC0
:10370200F075210190DE0EE4F090DE11E0FA30E275
:103712001B90DE11E0FA54DBF090F69AE4F0A3F08D
:1037220090F69FE4F0A3F090F6A6E4F090DE0E741B
:1037320005F090DE11E0FA30E52190DE11E0FA5456
:10374200CFF090FAEE7408F090F6ACE4F0A3F090AB
:10375200F6B1E4F0A3F090F6B8E4F090DE14E0FAEB
:1037620030E62190DE14E0FA549FF090FAEE7408ED
:10377200F090F6ACE4F0A3F090F6B1E4F0A3F09090
:10378200F6B8E4F0E52220E2057404B5211412270C
:103792004390FAED740BF074FB5522FAAB238A22A4
:1037A2008B23E52230E411122CE774E75522FA74D8
:1037B2000F5523FB8A228B23E52330E62190FAED75
:1037C200740CF0123144AA82AB83E4BA0104BB0048
:1037D2000104FABAFF028006BA0103123351AA2287
:1037E200AB23EA54E07005EB54BD601E90FAEE7410
:1037F20009F07518108A828B8312429174E0552267
:10380200FA74BD5523FB8A228B2322C0E0C082C0FA
:1038120083C002C003C004C005C0D075D000E5BE9D
:1038220030E6FB90DE06E0FA7B00E5224202E52369
:1038320042038A228B2390DE02E0FCE4C454F0CCE3
:10384200C4CC6CCC54F0CC6CFDEC4202ED42038A49
:10385200228B2390DE04E025E0FDE4FC4202ED42EF
:10386200038A22EBF52330E11890F6B7E0FA53020F
:10387200FE90F6B7EAF0AA2274FD5523FB8A228B4A
:1038820023758B00C2E8D0D0D005D004D003D0027B
:10389200D083D082D0E032C0E0E5BE30E6FBC2AFDA
:1038A200E58930E70375210353BEFC758900C2C563
:0638B200D2AFD0E032228B
:104A6500534443437622014348524F4E4F532072DD
:104A750030313933000000005253544E00554E4931
:104A85004D504C454D454E544544005245534554B3
:104A95005F4E4F57001201000200000020501D47D5
:104AA500600001010203010A060002000000200166
:104AB500000902200001010080FA0904000002FF3C
:104AC500FF010007058502400001070505024000BA
:104AD50001040309040C03520066004300610074DD
:104AE500001E034300680072006F006E006F0073C4
:104AF50000200044006F006E0067006C0065000A2E
:0B4B050003310030003000310000FFE1
:1038B800AA82AB837C007D008A068B078E828F8369
:1038C800E493F8A3AE82AF83E860070CBC00ED0D6B
:1038D80080EA8A348B357531F08C328D337582FEEF
:1038E800022602E58290F6C1F07534C17535F67589
:1038F80031F1753201E4F5337582FE022602AA839E
:10390800E58290F6C2F0A3EAF07534C27535F67513
:1039180031F2753202E4F5337582FE022602AA827C
:10392800AB83ACF0FD90F6C4EAF0A3EBF0A3ECF0A7
:10393800A3EDF07534C47535F67531F3753204E4CA
:08394800F5337582FE02260230
:0514E600E4F50DF50E18
:103950007AC87BF68BD57AC87BF68AD47AD07BF688
:103960008BD37AD07BF68AD2756E00756F18E4F52A
:103970007090F6C875F0000247197403B50D06E49F
:10398000B50E02800280047582FF22AA0DAB0E05DF
:103990000DE4B50D02050E8A822290DF46E0FABAE8
:1039A000F00E90DF47E0FABA0D0690DF487469F038
:1039B000C2AF759A0075B80075A80012289153BE61
:1039C0007F75D69FC29002000022124790AA82AB58
:1039D00083ACF0FDC002C003C004C0059037BD75C4
:1039E000F086743D12461FAA82AB83ACF0FDE581E0
:1039F00024FCF581E4C0E0C0E074C0C0E07441C0C4
:103A0000E08A828B838CF0ED1248AEAA82AB83AC45
:103A1000F0FDE58124FCF5818A828B838CF0ED1228
:103A200047A3AA82AB83ACF090DF09ECF090DF0AE9
:103A3000EBF090DF0BEAF02275E10490DF3BE0FA57
:103A4000BA01F890FAE7E0F5E190FAE7E0FABA0493
:103A5000012290DF3BE0FABA010280ED2290FAE702
:103A6000E0FABA02012290DF13E054F0F0E0440FD4
:103A7000F090FAE77402F0023DBE90FAE7E0FABA7D
:103A800003012290DF13E054F0F0E0FA440AF090D2
:103A9000FAE77403F075E10390DF3BE0FABA13F83C
:103AA0002290FAE7E0FABA04012290DF13E0FA5418
:103AB000F0F05391EF75E10490DF3BE0FABA01F8C2
:103AC000539BFC53E9EF90FAE77404F02290FAEA72
:103AD000E4F0A3F090FAE1E4F0A3F090FAE3E4F06C
:103AE000A3F053C6C7759D00859E9E439E0485A97D
:103AF000A943B90190FAE77404F0756E00756F0080
:103B000075700490F6E175F0001247191224B0D2D6
:103B1000A87591D175E900751100439A0175E1040A
:103B200090DF3BE0FABA01F8227A007B00C3EA9406
:103B3000DCEB9405502490DF3CE0FC545060049092
:103B4000000122900032C002C003124273D003D0A1
:103B50000274322AFAE43BFB80D390000022AA824E
:103B6000AB8390FAECE4F090DF3BE0FCBC130FB2C7
:103B700090C002C0031236BCD003D00280E9C290CC
:103B800090FB04E4F090FAFAE514F0A3E515F09048
:103B9000FB00E516F0A3E517F090FAFCE512F0A3A0
:103BA000E513F090FAFEE512C39516F0E5139517AC
:103BB000A3F090FAFEE0FCA3E0FD85146E85156F7E
:103BC0008C828D83C002C0031247F5AC82AD83D0D6
:103BD00003D00290FB02EC2512F0ED3513A3F0E5C3
:103BE00012451370348A828B83E0FC7D008C128D29
:103BF0001390DF04E0FE530603BE00028014BE01F2
:103C0000028003023C7E74012CF512E43DF51302A0
:103C10003C7E0ABA00680B806590DF04E0FC530428
:103C200003BC00028028BC015585126E85136F7598
:103C30007001E4F5718A828B83C002C003124217BF
:103C4000D003D002AC128A828B83ECF08030E51472
:103C50004515700AC374FF9512E49513502090FB2C
:103C600002E0FCA3E07D0090DF02ECF090DF04E0D6
:103C700054FCF0E0FC4402F090FB047401F0D2A884
:103C800090FB05E0FC20E303023D6990DF04E0FCCB
:103C9000530403BC010690FAEC7401F090FAECE0D6
:103CA000FC2AF582E43BF58385126E85136FC00212
:103CB000C003C00412451DAD82AE83D004D003D032
:103CC0000290FB05E0FF530704BF0431EC2AFFE438
:103CD0003BF890FB05E0F974F059F5688F6488654E
:103CE0008D668E678F828883C002C003C005C006C0
:103CF000124544D006D005D003D002802FEC2AFC18
:103D0000E43BFF90FB05E0F874F058F56D8C698F8B
:103D10006A8D6B8E6C8C828F83C002C003C005C01D
:103D200006124559D006D005D003D00290FAECE037
:103D3000FC601E90FB05E0FC5304F0BC50098A8235
:103D40008B837410F080228D048A828B83ECF08048
:103D50001890FB05E0FC5304F0BC500890DF02749F
:103D600010F0800590DF02EDF08A0F8B1090FAF8CA
:103D7000E4F0A3F075E1037A607BEA90DF3BE0FCBE
:103D8000BC130280181ABAFF011BEA4B600FB290F5
:103D9000C002C0031236BCD003D00280DED290EA4B
:103DA0004B700690FAEE7413F090DF3BE0FABA1312
:103DB00007B2901236BC80F1C29075820122D2A85F
:103DC000756E00756F0075700290F6E175F0001267
:103DD000471990FAE1E4F0A3F090FAE3E4F0A3F0DD
:103DE00090FAE5E4F090FAE67401F090F6E0E4F081
:103DF000539BFC53E9EF75E10290DF3BE0FABA0D0B
:103E0000F84391102290FB067401F02290FB06E427
:103E1000F022C0E0C082C083C002C003C004C0055D
:103E2000C006C007C000C001C0D075D00090FAED38
:103E30007411F0C28990DF3BE0FABA0D02800302F0
:103E40003F46D29090FAF3E0FA602990FAF4E0FA53
:103E5000A3E0FB90FAF4E024FFFCA3E034FFFD9024
:103E6000FAF4ECF0A3EDF074FF2B400890DF04E0CF
:103E7000FA54FCF090FAE77402F090F6E0E025E0E6
:103E8000FBE424E1FAEB34F6FB90F6E0E025E024D5
:103E9000E1FCE434FAFD8C828D83E0FEA3E0FF7444
:103EA000012EF8E43FF98C828D83E8F0A3E9F0EE6F
:103EB0002AF582EF3BF583E5D9F090F6E0E025E0C6
:103EC00024E1F582E434FAF583E0FAA3E0FBC3943D
:103ED00002501790F6E0E025E024E1F582E434FAA0
:103EE000F583E0FAA3E0FB4A701790F6E0E025E0E6
:103EF000FA24E1F582E434FAF58374FFF0A3740147
:103F0000F090FAF4E0FAA3E0FB4A60030240049068
:103F1000FAF3E0FA700302400490FAF6E0FAA3E044
:103F2000FB90FAF4EAF0A3EBF090FAF4E0FAA3E0E5
:103F30007B0090DF02EAF090DF04E054FCF0E0FA4E
:103F40004402F002400490DF3BE0FABA130280031F
:103F500002400490FB04E0FA7003023FDD90FAF89F
:103F6000E0FAA3E0FB90FAFCE0FCA3E0FDEAB50474
:103F700043EBB5053F90FAFAE0FAA3E0FB4A603460
:103F800090FAFAE0FAA3E0FBBAFF05BB0002801446
:103F900090FAFAE024FFFAA3E034FFFB90FAFAEA81
:103FA000F0A3EBF090FB00E0FAA3E0FB90FAF8EA54
:103FB000F0A3EBF090FB02E0FAA3E0FB90FB02E041
:103FC00024FFFCA3E034FFFD90FB02ECF0A3EDF036
:103FD00074FF2B400890DF04E0FA54FCF090FAE7FD
:103FE0007403F090FAF8E0FAA3E0FB90FAF8E0240A
:103FF00001F0A3E03400F0EA250FF582EB3510F56F
:1040000083E0F5D9D0D0D001D000D007D006D005BC
:10401000D004D003D002D083D082D0E032C020C000
:10402000E0C0F0C082C083C002C003C004C005C0AD
:1040300006C007C000C001C0D075D0007A0090FA59
:10404000ED7410F0539BFCE5E94211E5E930E01C0A
:1040500090FAE8E0FBA3E08B047B00AD9C7E00902F
:10406000FAEAEB4DF0EC4EA3F053E9FEE5E95470AB
:1040700070030241D090FAE7E0FBBB030653118FB7
:104080000241CD90F6E0E0FBB40100E43324E5F515
:1040900082E434FAF583E0FBBB010280030241AD08
:1040A00090FB05E0FB20E10302418790DF04E0FB89
:1040B000530303BB01027A0190FB05E0FB530301AC
:1040C000BB016490F6E0E025E0FCE424E1FBEC3485
:1040D000F6FC8A057E00ED2BFBEE3CFC90F6E0E062
:1040E00025E0F8E424E1FFE834F6F8ED2FF564EE7E
:1040F00038F56590F6E0E025E024E1F582E434FA55
:10410000F583E0FDA3E0FE8A077800EDC39FF56626
:10411000EE98F56790FB05E0FD74F05DF5688B8225
:104120008C83124544806090F6E0E025E0FCE424B6
:10413000E1FBEC34F6FC8A057E00ED2BFBEE3CFC4B
:1041400090F6E0E025E0F8E424E1FFE834F6F8ED4D
:104150002FF569EE38F56A90F6E0E025E024E1F508
:1041600082E434FAF583E0FDA3E0FE7F00EDC39A1C
:10417000F56BEE9FF56C90FB05E0FA74F05AF56D67
:104180008B828C8312455990F6E0E06401F090F642
:10419000E0E025E0FA24E1F582E434FAF583E4F086
:1041A000A3F090FAE5E4F090FAE6F0801E90FAEEC3
:1041B0007412F0B29090F6E0E025E0FA24E1F58286
:1041C000E434FAF583E4F0A3F0B290C29053E9CF5F
:1041D000E5E930E61090FAEE7410F0B290123A3839
:1041E000B29053E9BFE5E930E71090FAEE7411F0B0
:1041F000B290123A38B29053E97FD0D0D001D000BB
:10420000D007D006D005D004D003D002D083D0820E
:10421000D0F0D0E0D02032AA82AB83AC6EAD6F8CF0
:10422000068D071CBCFF011DEE4F601FE5702CFEC4
:10423000E5713DFFEE2AFEEF3BFFEC2AF582ED3BF8
:0C424000F583E0F88E828F83F080D4229A
:104B10000000000000000000000000000000000095
:044B20000000000091
:10424C00AA82AB831ABAFF011BC3E49A74808BF069
:10425C0063F08095F0500F7C4C7D041CBCFF011D5D
:10426C00EC4D70F780DE22AA82E583CA25E0CA33C2
:10427C00FB1ABAFF011BC3E49A74808BF063F080C5
:10428C0095F040ED22AA82AB83D2909003E8C00255
:10429C00C00312424CC2909001F412424CD003D095
:1042AC00021518AC18EC20E754EA30E02490001901
:1042BC00C002C003C00412424CD29090022612429B
:1042CC004CC29090001912424CD004D003D0028002
:1042DC0022900113C002C003C00412424CD2909031
:1042EC00003212424CC29090011312424CD004D0B6
:1042FC0003D002EBC313CA13CAFB1C80A8C2909054
:10430C0003E802424CAA82AB83ACF0AD6EAE6FAF49
:10431C0070A871A972E84960057574018003757401
:10432C0000E5746046C000C0018A828B838CF01259
:10433C004971F88D828E838FF0124971F9E8C39917
:10434C00F573D001D000E5736010E573F575339506
:10435C00E0F576857582857683220ABA00010B0D0D
:10436C00BD00010E18B8FF011980AA90000022535D
:10437C00BEFBE5BE30E6FB53C6B8E5C620E6FB4304
:10438C00BE04E5BE30E6FB53C6C743E40C43E40170
:10439C002243FE03C29022C0E0C082C083C002C090
:1043AC0003C004C005C0D075D00090FAEFE0FAA3AA
:1043BC00E0FBA3E0FCA3E0FD90FAEF74012AF0E42B
:1043CC003BA3F0E43CA3F0E43DA3F0D0D0D005D067
:1043DC0004D003D002D083D082D0E03212397A8557
:1043EC0082608560F005F07401800225E0D5F0FB59
:1043FC00F561E560C40354F824C8F55CE434F6F5C3
:10440C005D855C82855D83A3A374DFF0855C82850A
:10441C005D83A3A3A374B1F0855C82855D83A3A3A4
:10442C00A3A3A37410F0855C82855D83A3A3A3A3CF
:10443C00A3A3E054E0441DF0855C82855D83A3A3B7
:10444C00A3A3A3A3A3E0543F4440F0855C82855D05
:10445C0083A3A3A3A3A3A3A3E054FC4401F01239A8
:10446C007A8582628562F005F07401800225E0D5C0
:10447C00F0FBF563E562C40354F824C8F55EE4343C
:10448C00F6F55F855E82855F8374DFF0855E8285DD
:10449C005F83A374B2F0855E82855F83A3A3A3A31D
:1044AC00A37410F0855E82855F83A3A3A3A3A3A34B
:1044BC00E054E0441EF0855E82855F83A3A3A3A332
:1044CC00A3A3A3E054CF4410F0855E82855F83A341
:1044DC00A3A3A3A3A3A3E054FC4401F022AA82ABA0
:1044EC0083E5B330E3FB855C82855D838B04ECF064
:1044FC00855C82855D83A37B00EAF0E56142D6E5AD
:10450C006E456FF5F0740145F0F5B3E5B330E3FBA0
:10451C0022AA82AB83AC6EAD6FEC540F60158C0687
:10452C008D070CBC00010DEE2AF582EF3BF583E400
:10453C00F080E68C828D832285646E85656F85663E
:10454C007085677175720085687302456E85696E3A
:10455C00856A6F856B70856C71757202856D7302DF
:10456C00456E858274858375E5B330E3FBE5702475
:10457C00F0FCE57134FFFD74505573FEE572457324
:10458C00F5F0740145F0FF74014572F8E4F576F529
:10459C0077C3E5769570E5779571400122C0078564
:1045AC005C82855D83E5762574FBE5773575FA8B42
:1045BC00018A078F01E9F0855C82855D83A3EBF0AE
:1045CC00855E82855F83A3A3E576256EFAE5773554
:1045DC006FFB8A078B018907EFF0855E82855F830D
:1045EC00A3A3A37B00EAF0E563456142D6D007EEB6
:1045FC00600CECB57608EDB5770488B380028FB308
:10460C00E5B330E3FB74102576F576E43577F57772
:10461C0002459D1246C2BC0003024880EF60FA308E
:10462C00D502B2D1E583B4FF03024896E582B4FF0C
:10463C0003024896258340072482400B02488024BD
:10464C0083145003024896F582EA8DF0A4A8F0EA90
:10465C008EF0A428F8E435F0F9EB8DF0A428E935B8
:10466C00F0F9E433CA8FF0A429F9EA35F0FAEBF843
:10467C008EF0A429F9EA35F0FAE433FBEC8DF0A4C2
:10468C0029F9EA35F0FAE43BFBE88FF0A42AFAEBBF
:10469C0035F0FBE433CCFD8EF0A42AFAEB35F0FBBD
:1046AC00E43CFCED8FF0A42BFBEC35F0FC20E70395
:1046BC001246F002485FAA82AB83A2F73392D16014
:1046CC0002D2F7F582ACF0E58124F9F8E6FD08E6B4
:1046DC00FE0886F008E6A2F73392D56002D2F7F511
:0446EC0083AFF02286
:0614BC00E478FFF6D8FD04
:1046F0007804EC700DC9CACBFCE58224F8F582D8A9
:10470000F122782020E7111582C3E933F9EA33FA60
:10471000EB33FBEC33FCD8EC22AC82AD83AE6FAF55
:1047200070BE0004EF600C1F0FE56E1247DCA3DEC5
:10473000FADFF88C828D8322AA82AB83ACF08A7375
:104740008B748C75A86EA96FAD70887689778D781B
:10475000A871A9728805890618B8FF0119ED4E6085
:10476000258576828577838578F0124971FDA3854A
:1047700082768583778A828B838CF0ED1247DCA367
:10478000AA82AB8380CE8573828574838575F0227F
:10149A007914E94400601B7A01904B1078F3759334
:1014AA00FAE493F2A308B800020593D9F4DAF275C4
:0214BA0093FF9E
:10479000FCABF0AA83A982749EC2D1F5821246F0C6
:1047A00002485F7F9E1247CA30D103024880C3EFA0
:1047B0009582500974FFF5F0F583F5822279001295
:1047C000498D89828A838BF0EC22AA82AB83A2F77F
:1047D0003392D16002D2F7F582ACF02220F710308C
:1047E000F6118883A88220F507F6A8837583002236
:1047F000F280F7F022E582856EF0A4C582C0F085D4
:104800006FF0A4D0F025F0C583856EF0A42583F564
:104810008322E56E456F60467A01E56E25E0F56E10
:10482000E56F334012F56FE582956EE583956F4035
:10483000030A80E6C3E56F13F56FE56E13F56EC3EB
:10484000E582956EF5F0E583956F4005F58385F07B
:0F48500082C3E56F13F56FE56E13F56EDAE122A3
:1014C2007800E84400600A79007593F0E4F309D8E3
:1014D200FC78F3E8440A600C790B90F000E4F0A386
:0414E200D8FCD9FA5F
:02148B00E47308
:10485F00B98003EA13B34010EA2401FAE43BFBE406
:10486F003CFC50047C800582BC000EBB000BBA00E0
:10487F0008E4F5F0F583F58222A2D1E582138CF0DE
:10488F0092F78B838A8222E4F583F58275F080F4A8
:10489F00A2D11322E4F583F58275F0C0747F221242
:1048AF0046C230D502B2D1BF0009BC00030248A3F3
:1048BF00024896BC0003024880E583B4FF0BE582F3
:1048CF00B4FF030248A3024880E582B4FF03024805
:1048DF0096C395835007247F400B02488024801491
:1048EF005003024896F582C3ED9AEE9BEF9C401160
:1048FF001582C3EA33F9EB33FAEC33FBE433FC8074
:10490F0005E4CCCBCAF9C08275F019C3E99DEA9EC4
:10491F00EB9FEC9400D5F002802D400EE99DF9EA53
:10492F009EFAEB9FFBEC9400FCC3B3E833F8E582EF
:10493F0033F582E58333F583C3E933F9EA33FAEBD1
:10494F0033FBEC33FC80C4B3E4F938FAE43582FB73
:10495F00E43583FCD082500405827C801246F0023D
:02496F00487787
:0D148D007581781249D0E582600302148653
:1049710020F71430F6148883A88220F507E6A8836F
:1049810075830022E280F7E49322E0226040F8255B
:1049910082500274FFF582E824F8501ECCCBCAF98C
:1049A100E4CC24F85014CBCAF9E4CB24F8500BCA58
:1049B100F9E4CA24F8500379002224086010F8C3EE
:1049C100EC13FCEB13FBEA13FAE913F9D8F12275A6
:0349D1008200223F
:00000001FF
