:0600000002008D022A122D
:01000B0032C2
:0100130032BA
:01001B0032B2
:0100230032AA
:01002B0032A2
:0300330002240D97
:01003B003292
:01004300328A
:03004B00022FA3DE
:0300530002034A5B
:03005B0002059CFF
:01006300326A
:03006B00022499D3
:01007300325A
:01007B003252
:03008300022C1D2F
:0300EB000200868A
:050086001211D080FE04
:1000EE00AA82AB8375E10490DF3BE0FCBC01F89083
:1000FE00DF06EAF075E10290DF3BE0FABA0DF82276
:10010E007A007B0090F007E0FCA3E0FD8A068B07E7
:10011E00C3EE9CEF9D503AEA2415FCEB34F0FD90B3
:10012E00F005E0F56EA3E0F56F8A828B83C002C006
:10013E0003C004C005123412AE82AF83D005D004C2
:10014E00D003D0028C828D83EEF00ABA00B60B80FB
:10015E00B390F001E4F0A3F0A3F0A3F022AA82E59D
:10016E009CC39AF59CE59C24FAF59C439E10D2BA4A
:10017E0022539EEF22AA82AB8390F000E0FC601C1B
:10018E00BC010280179035D4C002C0031224B8906F
:10019E00F000E0F5821224EBD003D002C002C003BF
:1001AE0012017FD003D00290F009E4F0A3F090F09A
:1001BE0009E0FCA3E0FD8C828D83C002C003120215
:1001CE0096D003D00290DF3BE0FCBC0DF890DF3AF6
:1001DE00E0FC53047FBC6000402F90F009E0FCA3CC
:1001EE00E0FD0CBC00010D90F009ECF0A3EDF0D297
:1001FE009190000AC002C003122E4CC29190000AC8
:10020E00122E4CD003D00280A590F0007402F09014
:10021E00FAEFE0FCA3E0FDA3E0A3E090F00BECF01E
:10022E00A3EDF090F00FEAF0A3EBF02290F000E4D3
:10023E00F090FAEFE0FAA3E0FBA3E0A3E090F00B5E
:10024E00EAF0A3EBF02290F0007404F090FAEFE0E5
:10025E00FAA3E0FBA3E0A3E090F00BEAF0A3EBF02F
:10026E002290F0007405F090F013E4F0A3F090FAF1
:10027E00EFE0FAA3E0FBA3E0A3E090F00BEAF0A31B
:10028E00EBF075820002016BAA82AB83EA2415F5AE
:10029E0082EB34F0F583E0FA7B008A828B830200D6
:1002AE00EE85826E85836F85F07090F011E075F0AB
:1002BE0029A4FA2487F582E434F3F583E508F0EAFD
:1002CE002487FAE434F3FB0ABA00010B7C0085089C
:1002DE00717572008A828B838CF012333890F01114
:1002EE00E0FA0A90F011EAF0BA0500400590F0111C
:1002FE00E4F022AA82AB8390F385EAF0A3EBF0221E
:10030E002290F009E0FAA3E0FB0ABA00010B90F08C
:10031E0009EAF0A3EBF0C3EA9470EB940340079064
:10032E00F009E4F0A3F090F009E0FAA3E0FBEA2470
:10033E0015F582EB34F0F583E0F58222C020C0E0A3
:10034E00C0F0C082C083C002C003C004C005C00696
:10035E00C007C000C001C0D075D00090FAE8E024FC
:10036E0001F0A3E03400F090F001E0FAA3E0FBA36B
:10037E00E0FCA3E0FD90FAE8E0FEA3E0FF78007950
:10038E0000C3EE9AEF9BE89CE99D500302057F9017
:10039E00FAE8E0FAA3E08A037A00AC9C7D00EC4216
:1003AE0002ED420390F00DEAF0A3EBF090F009E0BD
:1003BE00FAA3E0FB0ABA00010B90F009EAF0A3EBF6
:1003CE00F090F007E0FCA3E0FDC3EA9CEB9D400734
:1003DE0090F009E4F0A3F090DF3BE0FABA130302C9
:1003EE00057F90F009E0FAA3E0FB8A828B8312026C
:1003FE009690FAE8E4F0A3F090F000E0FABA030366
:10040E00020503BA0403020503BA050280030205BE
:10041E007F900019122E4C90F454741CF090F00939
:10042E00E0FAA3E0FB8A0490F455ECF08B0290F412
:10043E0056EAF090F4577442F090F458744CF090E1
:10044E00F4597441F090F45A7448F090F45B74428D
:10045E00F090F45C744CF090F45D7441F090F45EA6
:10046E007448F090F45F7442F090F460744CF09025
:10047E00F4617441F090F4627448F090F463744245
:10048E00F090F464744CF090F4657441F090F4665E
:10049E007448F090F4677442F090F468744CF090E5
:1004AE00F4697441F090F46A7448F090F46B7442FD
:1004BE00F090F46C744CF090F46D7441F090F46E16
:1004CE007448F090F46F7420F075121CE4F513E488
:1004DE00F514F515F516F51790F45512275E90F0F4
:1004EE0013E0FAA3E0FB0ABA00010B90F013EAF056
:1004FE00A3EBF0807C90F012E075F029A42487FA2B
:10050E00E434F3FB8A828B83E06066B2919000192B
:10051E00122E4C90F012E075F029A42487FAE434E0
:10052E00F3FB90DF04E05401FCB40100E4332AFC39
:10053E00E43BFD8A828B83E0FA8A12E4F513F5140C
:10054E00F515F516F5178C828D8312275E90F01235
:10055E00E0FA75F029A42487F582E434F3F583E4F8
:10056E00F00A90F012EAF0BA0500400590F012E49D
:10057E00F0D0D0D001D000D007D006D005D004D016
:10058E0003D002D083D082D0F0D0E0D0203232908F
:10059E00F000E4F090F011F090F012F090F009F00D
:1005AE00A3F090F0057453F0A3E4F090F0077453A9
:1005BE00F0A3E4F090F00DF0A3F090F00BE4F0A3B4
:1005CE00F090F001E4F0A3F0A3F0A3F090F00FE4AC
:1005DE00F0A3F090F013E4F0A3F012010E90F000EF
:1005EE00E4F0759DDC859E9E439E0443CB10227ADB
:1005FE00B27B098A828B831216D790FAEFE4F0A3AE
:10060E00F0A3F0A3F002059D90F000E0FABA00030B
:10061E000208C8BA01030207BDBA02030206D3BA22
:10062E0003030208C8BA04030208C8BA0503020885
:10063E00A9BA40028006BA410280372275E10490C1
:10064E00DF3BE0FABA01F890DF0374E5F090DF04C7
:10065E007404F090DF077412F090DF08E4F090DF7E
:10066E00147410F090DF17E0FA44C0F090F00074AC
:10067E0041F07A0090F013E0FBA3E0FC8A057E00C7
:10068E00C3ED9BEE9C502790DF06EAF075E10290D9
:10069E000002C002122E4CD002EA24E1FDE434F630
:1006AE00FE90DF3AE0FF8D828E83F00A80C675E100
:1006BE00048B327533007531017534E17535F6757D
:1006CE008243021202E51170030207B690FAED742E
:1006DE000DF0539AFEE51120E4030207B690F000E8
:1006EE007403F090FAEAE0FAA3E08A8212016B90AA
:1006FE0036021224B890FAEAE0FAA3E0FB8A828B63
:10070E008312250690F6E0E025E0FBE424E1FAEB07
:10071E0034F6FB8A828B831224B890F6E0E0FAB4AA
:10072E000100E433FA24E5FBE434FAFC8B828C837B
:10073E00E0707290DF04E0FB30E0378A03EB2BFCB5
:10074E00E4FB24E1F582EC34F6F583E0FD8D3275A1
:10075E003300EB24E1FBEC34F6FC74012BF534E4AE
:10076E003CF535753101758242C002121202D0027B
:10077E00802690DF02E0FB8B327533008A03EB2B71
:10078E00FCE424E1F534EC34F6F53575310175826F
:10079E0042C002121202D002EA24E5F582E434FAD3
:1007AE00F5837401F05311EF751100439A0122E5A0
:1007BE001170030208A290FAED740DF0539AFEE543
:1007CE001120E4030208A290F6E0E0FAB40100E47E
:1007DE0033FA903617C0021224B8D002EA2AFBE48C
:1007EE00FA24E1FCEB34F6FD8C828D83C002C0034B
:1007FE00122506D003D002EA24E1FAEB34F6FB8A86
:10080E00828B831224B890F6E0E0FAB40100E43350
:10081E00FA24E5FBE434FAFC8B828C83E070729050
:10082E00DF04E0FB30E0378A03EB2BFCE4FB24E132
:10083E00F582EC34F6F583E0FD8D32753300EB2452
:10084E00E1FBEC34F6FC74012BF534E43CF5357524
:10085E003101758242C002121202D002802690DF50
:10086E0002E0FB8B327533008A03EB2BFCE424E1B0
:10087E00F534EC34F6F535753101758242C002124D
:10088E001202D002EA24E5F582E434FAF58374010B
:10089E00F05311EF751100439A012290F013E0FA14
:1008AE00A3E0FB90F007E0FCA3E0FDC3EA9CEB9D08
:1008BE0050012290F0007404F022E5117001229094
:1008CE00FAED740DF0E511543070012290F6E0E06F
:1008DE00FAB40100E433FA24E5FBE434FAFC8B822B
:1008EE008C83E0600302097B90DF04E0FB30E0378D
:1008FE008A03EB2BFCE4FB24E1F582EC34F6F58362
:10090E00E0FD8D32753300EB24E1FBEC34F6FC7424
:10091E00012BF534E43CF535753101758242C00288
:10092E00121202D002803990FAF3E0FB600A90FABC
:10093E00F6E0FBA3E0FC800890DF02E0FDFB7C000C
:10094E008A05ED2DFEE424E1F534EE34F6F5357529
:10095E0031018B328C33758242C002121202D002E8
:10096E00EA24E5F582E434FAF5837401F05311CFED
:10097E0022E58290F470F090F6B7E0FA5302FD9003
:10098E00F6B7EAF090F6B3E0FA90F6B4E0F53190EF
:10099E00F470E0FB8B32753300850B34850C358A91
:1009AE008202120290F6AEE0FAA3E0FB90F6B3E0FC
:1009BE00FCBC42028003020F1290F6B4E0FCBC02B3
:1009CE0003020AF1BC0303020CA9BC0403020A9D34
:1009DE00BC0503020B86BC0603020C32BC070302E5
:1009EE000C48BC0803020C57BC0903020C80BC1057
:1009FE0003020CF4BC1103020D66BC1203020D8B34
:100A0E00BC1303020DE2BC1403020E09BC15030253
:100A1E000E1DBC1603020E50BC1703020CCDBC18E3
:100A2E0003020D51BC2003020E83BC2103020EFAF9
:100A3E00BC2203020E5FBC2303020DAFBC240302D3
:100A4E000DCABC40028008BC41028031020F08C0B2
:100A5E0002C00312017FD003D00290F0007440F068
:100A6E008A828B83E0FC7D0090F013ECF0A3EDF016
:100A7E008A0B8B0C75820112097F020F1290F00007
:100A8E00E4F08A0B8B0C75820112097F020F128A19
:100A9E00828B83E0FCA3AA82AB83BC0102800ABCDA
:100AAE0002028021BC0329800DC002C00312265D04
:100ABE00D003D002801AC291C002C0031226A1D068
:100ACE0003D002800BC002C00312267AD003D002DC
:100ADE0090F6B1E0FCA3E08C828A0B8B0C12097F9E
:100AEE00020F1290F000E060099036311224B80225
:100AFE000F128A828B83E0FCA3AA82AB837D008ACD
:100B0E00828B83E0FEA3AA82AB838E07E42CFCEFDC
:100B1E003DFD90F471ECF0A3EDF08A828B83E0FE44
:100B2E00A3AA82AB837F008A828B83E0F8A3AA827A
:100B3E00AB838801E42EF514E93FF5158A828B8389
:100B4E00E0FEA3AA82AB837F008A828B83E0F8A3A8
:100B5E00AA82AB838801E42EF516E93FF5178C12B5
:100B6E008D138A828B8312275E750B71750CF4754B
:100B7E00820112097F020F128A828B83E0FCA3AAE4
:100B8E0082AB8390FAF6ECF0A3E4F08A828B83E0DA
:100B9E00FD7C0090FAF6E0FEA3E0FF90FAF6EC2E54
:100BAE00F0ED3FA3F090FAF6E0FCA3E0FD4C6040C0
:100BBE0090FAF37401F090FAF4E0FCA3E0FD4C70AF
:100BCE00441226A190FAF6E0FCA3E0FD90FAF4ECB4
:100BDE00F0A3EDF090FAF4E0FCA3E090DF02ECF06D
:100BEE0090DF04E054FCF0E04402F012265D801524
:100BFE0090FAF3E4F090FAF4F0A3F090FAF6E4F041
:100C0E00A3F01226A190F6B3E0FC90F6B4E0F53115
:100C1E007534F67535FA753201E4F5338C8212129D
:100C2E0002020F128A828B83E090FB05F08A0B8BF7
:100C3E000C75820112097F020F12750B05750CFBE4
:100C4E0075820112097F020F1290FB05E0FC74F011
:100C5E005CF56F756E068A828B83C002C0031230FC
:100C6E00E9D003D0028A0B8B0C75821012097F0219
:100C7E000F1290FB05E0FC74F05CF56F756E048A44
:100C8E00828B83C002C0031230E9D003D0028A0BDC
:100C9E008B0C75821012097F020F128A828B83E0F1
:100CAE00FC7D008C828D83C002C003120301D00331
:100CBE00D0028A0B8B0C75820112097F020F128AE9
:100CCE00048B057E0090F6B1E0FFA3E08F088C82C6
:100CDE008D838EF01202AF750B56750C3675820130
:100CEE0012097F020F128A828B83E0FC7D0090F046
:100CFE0005ECF0A3EDF0C374709C74039D40357445
:100D0E00022AFAE43BFB8A6E8B6F75700090F00539
:100D1E00E0F571A3E0F57290F01575F0001233381E
:100D2E0074052400F50BE434F0F50C7582021209FB
:100D3E007F020F12750B58750C3675820812097FDB
:100D4E00020F1290F005E0FCA3E0750B15750CF088
:100D5E008C8212097F020F1212030F7D008D8312F7
:100D6E00029690F009E0FCA3E0FDEC2415F50BEDE6
:100D7E0034F0F50C75820112097F020F128A828BF4
:100D8E0083E0FC7D008C828D83C002C0031200EED6
:100D9E00D003D0028A0B8B0C75820112097F020FD1
:100DAE0012758200C002C00312016BD003D0028AFA
:100DBE000B8B0C75820112097F020F12C002C00349
:100DCE0012017FD003D0028A0B8B0C75820112099F
:100DDE007F020F128A828B83E0FC7D007E007F00F3
:100DEE0090F001ECF0A3EDF0A3EEF0A3EFF08A0B80
:100DFE008B0C75820112097F020F1274012400F50B
:100E0E000BE434F0F50C75820412097F020F128A7E
:100E1E00828B83E0FC7D008C6E8D6F75700075711A
:100E2E0015E4F57290F00075F000C002C0031233A5
:100E3E0038D003D0028A0B8B0C75821512097F02F3
:100E4E000F12750B00750CF075821512097F020FCB
:100E5E00128A828B83E0FC7D008C828D83C002C05F
:100E6E0003120183D003D0028A0B8B0C7582011200
:100E7E00097F020F1290FAEFE0FCA3E0FDA3E0FE63
:100E8E00A3E0FF90F00BECF0A3EDF08A828B83E0F1
:100E9E00FC90F000F090F000E0FDEC24FA4041ED03
:100EAE002D2D900EB473020EC6020EC6020EC60291
:100EBE000EE0020EE0020ED3C002C00312017FD07C
:100ECE0003D002801BC002C00312026FD003D002F7
:100EDE00800E758200C002C00312016BD003D002D7
:100EEE008A0B8B0C75820112097F8018750B0075A9
:100EFE000CF075820112097F800A8A0B8B0C7582A9
:100F0E000112097F90F6B7E0FA5302FD90F6B7EAA8
:100F1E00F0900000222290F6BCE0FABA014490F65E
:100F2E009CE0FAA3E0FBA3E090F6BFE0FCA3E0FD9B
:100F3E0090F69FE0FEA3E0FFEE4F60047801800282
:100F4E007800E8601D8A828B83E0F8A3AA82AB83C7
:100F5E008C828D83E8F0A3AC82AD831EBEFF011F91
:100F6E0080D690F6A5E0FA5302FD90F6A5EAF09031
:100F7E00DE11E04408F022AA82AB83ACF012357188
:100F8E00FD20E7030210AC74012AFDE43BFE8C0742
:100F9E008D828E838FF0123571FD601FBD01028030
:100FAE002CBD0202803EBD030302102EBD040302BF
:100FBE001053BDFE0302106C0210AC753602E4F540
:100FCE003790FAED75F0001214940210AC90DE001A
:100FDE00E0FD7E00753828E4F5398D828E8312147B
:100FEE00F30210AC74022AFDE43BFE8C078D828E58
:100FFE00838FF0123571FDA3123571FE74062AFF30
:10100E00E43BF88C018F82888389F0123571F538B4
:10101E00A3123571F5398D828E831214F30210AC42
:10102E0074062AFDE43BFE8C078D828E838FF012B0
:10103E003571F536A3123571F5378A828B838CF0B4
:10104E00121494805990F69CE0FDA3E0FEA3E08D6F
:10105E00828E83753810E4F5391214F380407402D1
:10106E002AFAE43B7B007C40756E60756F367570B6
:10107E0080757104E4F5728A828B838CF0122F11C5
:10108E00E5828583F045F06012D29190012C122EEC
:10109E004CC29190012C122E4C800375C983900086
:1010AE00002290DF2FE4F090DF30F090DF31F090EF
:1010BE00DF00740CF090DF01744EF090DF0274FFCD
:1010CE00F090DF037440F090DF04E4F090DF05F061
:1010DE0090DF06F090DF077406F090DF08E4F090E2
:1010EE00DF097424F090DF0A743AF090DF0B74F18C
:1010FE00F090DF0C74CAF090DF0D74A3F090DF0E49
:10110E007401F090DF0F7423F090DF107411F090E3
:10111E00DF117436F090DF127407F090DF13743F16
:10112E00F090DF147418F090DF157417F090DF163E
:10113E00746CF090DF177403F090DF187440F09029
:10114E00DF197491F090DF1A7456F090DF1B741053
:10115E00F090DF1C74E9F090DF1D742AF090DF1E12
:10116E00E4F090DF1F741FF090DF237488F090DF9F
:10117E00247431F090DF257409F090DF2E74C0F0E6
:10118E0090DF07740CF090DF097425F090DF0A747D
:10119E0095F090DF0B7455F090DF1A74B6F090DF77
:1011AE001B7410F090DF1C74EAF090DF1D742AF0AF
:1011BE0090DF1EE4F090DF1F741FF022122F7B02CF
:1011CE002F9D1211CA122550122FE812145D1226ED
:1011DE00CD1205FD12148ED2AF121339D29190009A
:1011EE0002122E4CC29190000A122E4C1222BC12E8
:0411FE00061680F859
:1035D4004648535320737461746520656E74657234
:1035E400696E672053594E4348494E472066726FAF
:1035F4006D2077726F6E67207374617465006E65F9
:1036040074776F726B207061636B65742873796E65
:103614006329006E6574776F726B207061636B65EC
:103624007428646973636F766572792900637261C3
:10363400702C20706C656173652075736520464835
:103644005353786D6974282920696E7374656164B5
:10365400210000004E4F204445414C005253544E2B
:013664000065
:10120200AA827B0190DE0E7405F0E532453370014F
:10121200227C107D2790DE11E0FE30E00D90FAEE88
:101222007401F01CBCFFEE1D80EBEC4D7014D291EA
:10123200900064122E4CC291900064122E4C90FFCA
:10124200FF22BB012F7B0090DE2A7440F0EAF0E51A
:1012520031F0AC327D0090DE2AECF0E533F0C3745D
:101262003B9532E4953350067C3B7D00801AAC32CC
:10127200AD338014C374409532E4953350067C40FC
:101282007D008004AC32AD337480252842D685259A
:1012920082852683AE34AF358F00E8F085258285BE
:1012A2002683A37F00EEF0852582852683A3A3747F
:1012B200DEF0852582852683A3A3A3742AF08525E3
:1012C20082852683A3A3A3A3A3ECFEF085258285B2
:1012D2002683A3A3A3A3E054E0F085258285268379
:1012E200A3A3A3A3A3A3A3E0543F4440F085258274
:1012F200852683A3A3A3A3A3A3A3E054CFF0E52849
:1013020042D6E52842D7E52855D160FAE528F452BD
:10131200D190DE0E7405F090DE11E0FE4401F0E59E
:1013220032C39CF532E5339DF533EC2534F534EDCB
:101332003535F53502120CE52170051222BC80F715
:101342002253BE7F43BE8090DE0B74F7F090DE071F
:1013520074FFF090DE0974FFF0438C10538CFED2C0
:10136200BD439A02758900C2C5758B00C2E843A9C4
:101372000243B902852582852683A3A3A3A3E05451
:10138200E0F0852582852683A3A3A3A3A3A3E0542B
:101392009F4420F0852582852683A3A3A3A3A3A32C
:1013A200A3E04408F0852582852683A3A3A3A3A3F3
:1013B200A3A3E054FC4401F090DE01E054FEF0757A
:1013C200240075220075230075210090DE0EE4F0E2
:1013D20090DE107404F090DE137404F090F6A6E42C
:1013E200F090F6A5F090F69AF0A3F090F69C747344
:1013F200F0A374F4F0A3E4F090F69FF0A3F090F65B
:10140200A1E4F090F6A2F090F6A3F0A3F090DE0E25
:101412007405F090DE107408F090DE137408F090FA
:10142200DE12E04480F090F6B8E4F090F6B7F09067
:10143200F6ACF0A3F090F6AE7493F0A374F4F0A3BC
:10144200E4F090F6B1F0A3F090F6B3E4F090F6B4C5
:10145200F090F6B5F0A3F0439A022212257A858223
:10146200278527F005F07401800225E0D5F0FBF511
:1014720028E527C40354F824C8F525E434F6F526F4
:1014820090FAED7402F043BE80021343D29022C25E
:101492009022AA82AB83ACF090F6A6E06034D2919F
:1014A2009003E8122E4CC2919003E8122E4CD29176
:1014B2009003E8122E4CC2919003E8122E4CD29166
:1014C2009003E8122E4CC2919003E8122E4C90FF2A
:1014D200FF2290F697EAF0A3EBF0A3ECF090F69AD5
:1014E200E536F0A3E537F090F6A67401F09000001F
:1014F20022AA82AB8390F6A6E06034D2919003E8F0
:10150200122E4CC2919003E8122E4CD2919003E815
:10151200122E4CC2919003E8122E4CD2919003E805
:10152200122E4CC2919003E8122E4C90FFFF227CA7
:101532000090F697EAF0A3EBF0A3ECF090F69AE5B0
:1015420038F0A3E539F090F6A67401F0900000227D
:101552007A0290DE0EE4F090F69AE0FBA3E0FCC380
:1015620074209BE49C50047D2080048B057A0A8DB4
:10157200067F00EBC39EFBEC9FFC90F69AEBF0A378
:10158200ECF08D03EB60047C0180027C00EC6036A1
:1015920090F697E0FCA3E0FDA3E0FE8C828D838EA3
:1015A200F012357190DE20F090F697E0FCA3E0FD9A
:1015B200A3E0FE0CBC00010D90F697ECF0A3EDF059
:1015C200A3EEF01B80BE90DE11E04AF090F69AE0A6
:1015D200FAA3E0FB4A700590F6A6E4F02290F6A684
:1015E2007402F07582002290F69CE0FAA3E0FB9070
:1015F200DE11E0FCB40100E433FC20E0F290DE0EE8
:10160200E4F090DE16E0FC7D0090F69FECF0A3ED96
:10161200F090F6A5E0FE30E10A90F6A67403F09091
:10162200FFFF2290F6A5E0FE43060290F6A5EEF03B
:1016320090F69FE0FEA3E0FFC374209EE49F501843
:10164200D29190012CC002C003122E4CC291900183
:101652002C122E4CD003D00290F69FE0FCA3E0FDAA
:10166200EC4D60027401FE601690DE20E0FE8A827C
:101672008B83F0A3AA82AB831CBCFF011D80E1E532
:101682002B452C6009852B82852C8312008B90F6CA
:101692009FE0FAA3E0FBC3EA9420EB9400501CE520
:1016A20029452A6009852982852A8312008B90DECA
:1016B20011E0FA4408F090F6A6E4F090DE11E0445E
:1016C20040F090F69FE0FAA3E08A82F583228582B9
:1016D2002D85832E2285822F85833022753601E463
:1016E200F53790002475F040021494AA82AB83ACC3
:1016F200F074022AFAE43BFB8A828B838CF0123567
:1017020071FAA31235718A247521012285826F7BB9
:101712009D7C367D8074012BFEE43CFF8D008E8221
:101722008F8388F0123571FEAF6EBEFF028052EEDB
:10173200B56F2BEF70047EFF80F01F8B828C838D40
:10174200F01235712BFBE43CFC74012BF8E43CF9FC
:101752008D02888289838AF0123571FE80CC8B8259
:101762008C838DF01235712BFBE43CFC74012BFA57
:10177200E43CF88D018A82888389F0123571FE80FB
:10178200A98B828C838DF02285823A85833B85F0FA
:101792003C7402253AF544E4353BF545853C4685E3
:1017A20044828545838546F0123571F8A31235715E
:1017B200F989427543007401B54206E4B5430280DB
:1017C2001A7402B54206E4B54302802C7403B54292
:1017D20007E4B543030218780218958982756E00F2
:1017E20012170E85823D85833E85F03F123571FAD0
:1017F2008A407541000218AE898288048C6E1217E5
:101802000E85823D85833E85F03F7402253DFCE4D2
:10181200353EFDAE3F8C828D838EF0123571FC8C8D
:10182200407541008544828545838546F0123571B5
:10183200A3123571FC7D007401253DFEE4353EFFA7
:10184200AA3F8E828F838AF0123571FE7A00ECB540
:101852000606EDB50202805485448285458385469D
:10186200F0123571FAA3123571FB7518108A828B4A
:1018720083122E9180E2898288028A6E12170E8567
:10188200823D85833E85F03F123571FA8A4075416B
:101892000080198982886E12170E85823D85833EEB
:1018A20085F03F123571FA8A407541007406253A77
:1018B200FAE4353BFBAC3C8A828B838CF0123571A7
:1018C200FAA3123571FBC3EA9540EB954150048AA5
:1018D200408B41854036854137853D82853E8385F3
:1018E2003FF002149490DE0EE4F090DE11E0FA3044
:1018F200E40D90F6A6E4F090DE11E0FB4480F0EAFD
:1019020030E22490DE11E4F090FAEE7404F090F6E6
:10191200A6E4F0D2919000C8C002122E4CC291905F
:1019220000C8122E4CD00290F6A6E0FBBB0319D2DF
:10193200919001F4C002122E4CC2919001F4122E29
:101942004CD00290F6A6E4F090F6A6E06003021BEB
:1019520086EA20E003021B8690DE0EE4F07A007B2A
:10196200477C007D40BA0800501690DE20E0FE8BD6
:10197200828C838DF01233DCA3AB82AC830A80E5C8
:10198200E547FA20E703021A8E74605AFB6015BB22
:101992002003021B70BB4003021A53BB6003021AEE
:1019A2007B021B70741F5AFB7046AC48BC0002805D
:1019B2001CBC06028005BC082B800C90004775F009
:1019C2004012178A021B701216DE021B70E4F54FDA
:1019D200F550753602E4F53790004F75F040121459
:1019E20094021B7090004775F0401224B7021B70DE
:1019F200BB011AAC48BC0003021B70BC0A03021BE9
:101A02007090004775F0401224B7021B70BB022D84
:101A1200AC48BC00028008BC1203021B7080127525
:101A22003602E4F53790367D75F080121494021B6D
:101A32007090004775F0401224B7021B7090004767
:101A420075F0401224B790DE11E0FC4420F0021B36
:101A520070E52D452E6016746CC0E0741AC0E0C0AB
:101A62002DC02E90004775F04022021B7090004757
:101A720075F040121B9D021B7090DE11E04420F0B5
:101A820090004775F0401224B7021B7074605AFC34
:101A92006015BC2003021B70BC4003021B39BC60F2
:101AA20003021B5F021B70741F5AFB703FAA48BAE5
:101AB2000103021B70BA0303021B70BA0502800BFA
:101AC200BA0703021B70BA0917800990DE00E549C4
:101AD200F0021B7090004775F0401216ED021B7069
:101AE20090004775F0401224B7021B70BB011CAA7C
:101AF20048BA01028078BA03028073BA1102806E7A
:101B020090004775F0401224B78063BB0217AA48C1
:101B1200BA01028059BA0302805490004775F0401E
:101B22001224B7804990DE11E04420F090004775FE
:101B3200F0401224B78037E52D452E60157452C04F
:101B4200E0741BC0E0C02DC02E90004775F040220B
:101B5200801C90004775F040121B9D801190004739
:101B620075F0401224B790DE11E0FA4420F090DEC6
:101B720011E0FA4440F0E54D454E700890DE11E068
:101B8200FA4408F090F6A6E0FABA01031215529050
:101B9200F6A6E0FABA02030215E922AA82AB83ACE6
:101BA200F0123571FD20E703021CCC74012AFDE41A
:101BB2003BFE8C078D828E838FF0123571FD601F84
:101BC200BD0102802CBD0202803EBD0303021C4601
:101BD200BD0403021C6CBDFE03021C86021D40757F
:101BE2003602E4F53790FAED75F000121494021DF6
:101BF2004090DE00E0FD7E00753828E4F5398D82E4
:101C02008E831214F3021D4074022AFDE43BFE8C03
:101C1200078D828E838FF0123571FDA3123571FE0E
:101C220074062AFFE43BF88C018F82888389F012C4
:101C32003571F538A3123571F5398D828E83121400
:101C4200F3021D4074062AFDE43BFE8C078D828E52
:101C5200838FF0123571F536A3123571F5378A820A
:101C62008B838CF0121494021D4090F69CE0FDA32D
:101C7200E0FEA3E08D828E83753810E4F5391214EC
:101C8200F3021D4074022AFDE43B8C077E007F4074
:101C9200756E80756F36757080757104E4F5728D9E
:101CA200828E838FF0122F11E5828583F045F060DA
:101CB20013D29190012C122E4CC29190012C122E13
:101CC2004C021D4075C983021D4090F6BCE0FDBD6B
:101CD200015F74022AFAE43BFB8A828B838CF01246
:101CE2003571FAA3123571FB90DE0EE4F090DE1628
:101CF200E0FC7D007518088C828D83C002C003C091
:101D020004C005122E91D005D004D003D002EC4DB0
:101D120060047E0180027E00EE601690DE20E0FE0E
:101D22008A828B83F0A3AA82AB831CBCFF011D8035
:101D3200DD90F6A5E0FA5302FD90F6A5EAF09000D8
:101D4200002290F6B7E0FA30E10A90FAEE7405F05C
:101D520090FFFF2290DE0E7405F090DE16E0FA7B13
:101D62000090DE17E0FDE42AFAED3BFB90F6B5E0C9
:101D7200FCA3E0FD4C705590F6B1E4F0A3F090DEC8
:101D82002AE090F6B3F090DE2AE090F6B4F090DE0E
:101D92002AE0FC7D0090F6B5ECF0A3EDF090DE2A8F
:101DA200E0FFE4FE2CFCEF3DFD90F6B5ECF0A3ED78
:101DB200F0EA24FCFAEB34FFFBC374049C74029D2A
:101DC200500A90F6B57404F0A37402F0E52855D1D8
:101DD200601AD291900014C002C003122E4CC2911C
:101DE200900014122E4CD003D00280E090F6AEE0A8
:101DF200FCA3E0FDA3E090F6B1E0F551A3E0F552BB
:101E0200E5512CFCE5523DFD7480252842D68525FE
:101E12008285268374DEF0852582852683A3742A33
:101E2200F0852582852683A3A38D06EEF085258283
:101E3200852683A3A3A3ECF0852582852683A3A30D
:101E4200A3A3A3A3A3E0543FF0852582852683A301
:101E5200A3A3A3A3A3A3E054CF4410F074052525A4
:101E6200FCE43526FD90DE16E08C828D83F074044E
:101E72002525FCE43526FD90DE17E0FE8C828D835D
:101E8200541FF5F0E054E045F0F0E5512AFCE5522C
:101E92003BFDC374049C74029D500B7404C39551A2
:101EA200FA74029552FBC374409AE49B501B90FA59
:101EB200EE7406F090DE14E054FEF07518108A827B
:101EC2008B83122E9190FFFE22E52842D6E528420E
:101ED200D7EA2551FAEB3552FB90F6B1EAF0A3EBC3
:101EE200F0E52855D160FAE528F452D190F6B1E038
:101EF200FAA3E0FB90F6B5E0FCA3E0FDC3EA9CEB9D
:101F02009D403090F6B7E0FA43020290F6B7EAF04D
:101F120090F6B5E4F0A3F090DE0E7405F0AA2274F8
:101F2200BF5523FB8A228B2390DE14E054FEF090EF
:101F320000012290DE0E7405F0AA2274BF5523FB25
:101F42008A228B2390DE14E054FEF090000022904F
:101F5200F6B7E090F6AEE0FAA3E0FB90F6B3E0FC51
:101F6200BCFF02800302229F90F6B4E0FDBD800216
:101F72008033BD8103022010BD8203022197BD83FD
:101F8200030221AFBD84030220C2BD85030221C525
:101F9200BD86030221E5BD87030221FBBD8F03023B
:101FA200221B0222738A828B83E0FEA3AA82AB8366
:101FB2007F0090F6B5EEF0A3EFF08A828B83E0F813
:101FC200A3AA82AB8388017800E82EFEE93FFF9046
:101FD200F6B5EEF0A3EFF08A828B83E0F8A3885384
:101FE200755400E0F97800E82553F553E93554F5C6
:101FF20054AA53AB548D318E328F338A348B358C45
:102002008212120290F6B5E4F0A3F00222918A82C3
:102012008B83E0FEA38E53755400E0FEA3AA82AB2D
:10202200838E077E00EE2553F553EF3554F554A801
:1020320053A95490F6B9E8F0A3E9F090F6B1E0FEA6
:10204200A3E0FFEE24FEF553EF34FFF5548A588BDC
:1020520059855356855457E55645576005755501C0
:102062008003755500E555603BC00490F6B9E0FC6D
:10207200A3E0F874012CF9E438FE90F6B9E9F0A374
:10208200EEF0855882855983E0FEA38582588583C8
:10209200598C828883EEF0155674FFB55602155797
:1020A200D00480B390F6B5E0FEA3E0FF8E348F3506
:1020B2008D31753202E4F5338C82121202022291C2
:1020C20090F6B7E0FE20E22D8A828B83E0FEA38E9B
:1020D20053755400E0FEA3AA82AB838E077E00EE06
:1020E2002553F553EF3554F554A853A95490F6B936
:1020F200E8F0A3E9F090F6B5E0FEA3E0FF8E538F7F
:1021020054C374409553E495545006755340E4F516
:1021120054EEC39553FEEF9554FF90F6B5EEF0A33F
:10212200EFF08A5A8B5B855356855457E5564557CF
:1021320060057558018003755800E558603BC0047E
:1021420090F6B9E0FCA3E0F874012CF9E438FE90B3
:10215200F6B9E9F0A3EEF0855A82855B83E0FEA32F
:1021620085825A85835B8C828883EEF0155674FFD4
:10217200B556021557D00480B390F6B5E0FEA3E041
:10218200FF8E348F358D31753202E4F5338C821235
:10219200120202229190F6B1E0F532A3E0F5338DFE
:1021A200318A348B358C8212120202229175348567
:1021B2007535368D3175320DE4F5338C821212028B
:1021C20002229190FAEFE0FEA3E0FFA3E0A3E08EEB
:1021D200348F358D31753204E4F5338C821212025C
:1021E20002229175346C7535368D31753211E4F5F4
:1021F200338C8212120202229190F6B1E0F532A3E0
:10220200E0F5338D318A348B358C821212029000C4
:10221200C8122E4C12259A80768A048B057E007590
:102222006E93756F36757080757109E4F5728C82E4
:102232008D838EF0C002C003122F11E5828583F0D8
:10224200D003D00245F0704775C98090F6B3E0FC28
:1022520090F6B4E0F53190F6B1E0F532A3E0F53353
:102262008A348B358C82C002C003121202D003D092
:102272000290F6B3E0FC90F6B4E0F53190F6B1E0EE
:10228200F532A3E0F5338A348B358C821212029038
:10229200F6B7E0FA5302FD90F6B7EAF022E52F45D1
:1022A200306009852F8285308312008B90F6B7E06B
:1022B200FA5302FD90F6B7EAF022AA22AB23EA30E3
:1022C200E01175210274FE5522FCAD238C228D2370
:1022D20043BE01EA5406602C90FAED740AF07521AF
:1022E2000374FD5522FAAB238A228B2390DE01E090
:1022F2004404F0900008122E4C90DE01E0FA54FBE8
:10230200F075210190DE0EE4F090DE11E0FA30E289
:102312001B90DE11E0FA54DBF090F69AE4F0A3F0A1
:1023220090F69FE4F0A3F090F6A6E4F090DE0E742F
:1023320005F090DE11E0FA30E52190DE11E0FA546A
:10234200CFF090FAEE7408F090F6ACE4F0A3F090BF
:10235200F6B1E4F0A3F090F6B8E4F090DE14E0FAFF
:1023620030E62190DE14E0FA549FF090FAEE740801
:10237200F090F6ACE4F0A3F090F6B1E4F0A3F090A4
:10238200F6B8E4F0E52220E2057404B52114121334
:102392004390FAED740BF074FB5522FAAB238A22B8
:1023A2008B23E52230E4111218E774E75522FA7400
:1023B2000F5523FB8A228B23E52330E62190FAED89
:1023C200740CF0121D44AA82AB83E4BA0104BB0070
:1023D2000104FABAFF028006BA0103121F51AA22AF
:1023E200AB23EA54E07005EB54BD601E90FAEE7424
:1023F20009F07518108A828B83122E9174E055228F
:10240200FA74BD5523FB8A228B2322C0E0C082C00E
:1024120083C002C003C004C005C0D075D000E5BEB1
:1024220030E6FB90DE06E0FA7B00E5224202E5237D
:1024320042038A228B2390DE02E0FCE4C454F0CCF7
:10244200C4CC6CCC54F0CC6CFDEC4202ED42038A5D
:10245200228B2390DE04E025E0FDE4FC4202ED4203
:10246200038A22EBF52330E11890F6B7E0FA530223
:10247200FE90F6B7EAF0AA2274FD5523FB8A228B5E
:1024820023758B00C2E8D0D0D005D004D003D0028F
:10249200D083D082D0E032C0E0E5BE30E6FBC2AFEE
:1024A200E58930E70375210353BEFC758900C2C577
:0624B200D2AFD0E032229F
:1036650053444343762201444F4E53444F4E474CF7
:1036750045207230313933000000005253544E005A
:10368500554E494D504C454D454E544544005245C7
:103695005345545F4E4F57001201000200000020B1
:1036A500501D48600001010203010A0600020000E6
:1036B500002001000902200001010080FA09040030
:1036C5000002FFFF0100070585024000010705050F
:1036D50002400001040309040C0352006600430084
:1036E50061007400180344006F006E007300200031
:1036F50044006F006E0067006C0065000A0331002E
:0837050030003000330000FF2A
:1024B800AA82AB837C007D008A068B078E828F837D
:1024C800E493F8A3AE82AF83E860070CBC00ED0D7F
:1024D80080EA8A348B357531F08C328D337582FE03
:1024E800021202E58290F6C1F07534C17535F675B1
:1024F80031F1753201E4F5337582FE021202AA83C6
:10250800E58290F6C2F0A3EAF07534C27535F67527
:1025180031F2753202E4F5337582FE021202AA82A4
:10252800AB83ACF0FD90F6C4EAF0A3EBF0A3ECF0BB
:10253800A3EDF07534C47535F67531F3753204E4DE
:08254800F5337582FE02120258
:0500E600E4F50DF50E2C
:102550007AC87BF68BD57AC87BF68AD47AD07BF69C
:102560008BD37AD07BF68AD2756E00756F18E4F53E
:102570007090F6C875F0000233197403B50D06E4C7
:10258000B50E02800280047582FF22AA0DAB0E05F3
:102590000DE4B50D02050E8A822290DF46E0FABAFC
:1025A000F00E90DF47E0FABA0D0690DF487469F04C
:1025B000C2AF759A0075B80075A80012149153BE89
:1025C0007F75D69FC29102000022123390AA82AB7F
:1025D00083ACF0FDC002C003C004C0059037BD75D8
:1025E000F086743D12321FAA82AB83ACF0FDE58108
:1025F00024FCF581E4C0E0C0E074C0C0E07441C0D8
:10260000E08A828B838CF0ED1234AEAA82AB83AC6D
:10261000F0FDE58124FCF5818A828B838CF0ED123C
:1026200033A3AA82AB83ACF090DF09ECF090DF0A11
:10263000EBF090DF0BEAF02275E10490DF3BE0FA6B
:10264000BA01F890FAE7E0F5E190FAE7E0FABA04A7
:10265000012290DF3BE0FABA010280ED2290FAE716
:10266000E0FABA02012290DF13E054F0F0E0440FE8
:10267000F090FAE77402F00229BE90FAE7E0FABAA5
:1026800003012290DF13E054F0F0E0FA440AF090E6
:10269000FAE77403F075E10390DF3BE0FABA13F850
:1026A0002290FAE7E0FABA04012290DF13E0FA542C
:1026B000F0F05391EF75E10490DF3BE0FABA01F8D6
:1026C000539BFC53E9EF90FAE77404F02290FAEA86
:1026D000E4F0A3F090FAE1E4F0A3F090FAE3E4F080
:1026E000A3F053C6C7759D00859E9E439E0485A991
:1026F000A943B90190FAE77404F0756E00756F0094
:1027000075700490F6E175F0001233191210B0D212
:10271000A87591D175E900751100439A0175E1041E
:1027200090DF3BE0FABA01F8227A007B00C3EA941A
:10273000DCEB9405502490DF3CE0FC5450600490A6
:10274000000122900032C002C003122E73D003D0C9
:102750000274322AFAE43BFB80D390000022AA8262
:10276000AB8390FAECE4F090DF3BE0FCBC130FB2DB
:1027700091C002C0031222BCD003D00280E9C291F2
:1027800090FB04E4F090FAFAE514F0A3E515F0905C
:10279000FB00E516F0A3E517F090FAFCE512F0A3B4
:1027A000E513F090FAFEE512C39516F0E5139517C0
:1027B000A3F090FAFEE0FCA3E0FD85146E85156F92
:1027C0008C828D83C002C0031233F5AC82AD83D0FE
:1027D00003D00290FB02EC2512F0ED3513A3F0E5D7
:1027E00012451370348A828B83E0FC7D008C128D3D
:1027F0001390DF04E0FE530603BE00028014BE0106
:1028000002800302287E74012CF512E43DF51302C8
:10281000287E0ABA00680B806590DF04E0FC530450
:1028200003BC00028028BC015585126E85136F75AC
:102830007001E4F5718A828B83C002C003122E17E7
:10284000D003D002AC128A828B83ECF08030E51486
:102850004515700AC374FF9512E49513502090FB40
:1028600002E0FCA3E07D0090DF02ECF090DF04E0EA
:1028700054FCF0E0FC4402F090FB047401F0D2A898
:1028800090FB05E0FC20E30302296990DF04E0FCF3
:10289000530403BC010690FAEC7401F090FAECE0EA
:1028A000FC2AF582E43BF58385126E85136FC00226
:1028B000C003C00412311DAD82AE83D004D003D05A
:1028C0000290FB05E0FF530704BF0431EC2AFFE44C
:1028D0003BF890FB05E0F974F059F5688F64886562
:1028E0008D668E678F828883C002C003C005C006D4
:1028F000123144D006D005D003D002802FEC2AFC40
:10290000E43BFF90FB05E0F874F058F56D8C698F9F
:102910006A8D6B8E6C8C828F83C002C003C005C031
:1029200006123159D006D005D003D00290FAECE05F
:10293000FC601E90FB05E0FC5304F0BC50098A8249
:102940008B837410F080228D048A828B83ECF0805C
:102950001890FB05E0FC5304F0BC500890DF0274B3
:1029600010F0800590DF02EDF08A0F8B1090FAF8DE
:10297000E4F0A3F075E1037A607BEA90DF3BE0FCD2
:10298000BC130280181ABAFF011BEA4B600FB29108
:10299000C002C0031222BCD003D00280DED291EA72
:1029A0004B700690FAEE7413F090DF3BE0FABA1326
:1029B00007B2911222BC80F1C29175820122D2A885
:1029C000756E00756F0075700290F6E175F000127B
:1029D000331990FAE1E4F0A3F090FAE3E4F0A3F005
:1029E00090FAE5E4F090FAE67401F090F6E0E4F095
:1029F000539BFC53E9EF75E10290DF3BE0FABA0D1F
:102A0000F84391102290FB067401F02290FB06E43B
:102A1000F022C0E0C082C083C002C003C004C00571
:102A2000C006C007C000C001C0D075D00090FAED4C
:102A30007411F0C28990DF3BE0FABA0D0280030204
:102A40002B46D29190FAF3E0FA602990FAF4E0FA7A
:102A5000A3E0FB90FAF4E024FFFCA3E034FFFD9038
:102A6000FAF4ECF0A3EDF074FF2B400890DF04E0E3
:102A7000FA54FCF090FAE77402F090F6E0E025E0FA
:102A8000FBE424E1FAEB34F6FB90F6E0E025E024E9
:102A9000E1FCE434FAFD8C828D83E0FEA3E0FF7458
:102AA000012EF8E43FF98C828D83E8F0A3E9F0EE83
:102AB0002AF582EF3BF583E5D9F090F6E0E025E0DA
:102AC00024E1F582E434FAF583E0FAA3E0FBC39451
:102AD00002501790F6E0E025E024E1F582E434FAB4
:102AE000F583E0FAA3E0FB4A701790F6E0E025E0FA
:102AF000FA24E1F582E434FAF58374FFF0A374015B
:102B0000F090FAF4E0FAA3E0FB4A6003022C049090
:102B1000FAF3E0FA7003022C0490FAF6E0FAA3E06C
:102B2000FB90FAF4EAF0A3EBF090FAF4E0FAA3E0F9
:102B30007B0090DF02EAF090DF04E054FCF0E0FA62
:102B40004402F0022C0490DF3BE0FABA1302800347
:102B5000022C0490FB04E0FA7003022BDD90FAF8DB
:102B6000E0FAA3E0FB90FAFCE0FCA3E0FDEAB50488
:102B700043EBB5053F90FAFAE0FAA3E0FB4A603474
:102B800090FAFAE0FAA3E0FBBAFF05BB000280145A
:102B900090FAFAE024FFFAA3E034FFFB90FAFAEA95
:102BA000F0A3EBF090FB00E0FAA3E0FB90FAF8EA68
:102BB000F0A3EBF090FB02E0FAA3E0FB90FB02E055
:102BC00024FFFCA3E034FFFD90FB02ECF0A3EDF04A
:102BD00074FF2B400890DF04E0FA54FCF090FAE711
:102BE0007403F090FAF8E0FAA3E0FB90FAF8E0241E
:102BF00001F0A3E03400F0EA250FF582EB3510F583
:102C000083E0F5D9D0D0D001D000D007D006D005D0
:102C1000D004D003D002D083D082D0E032C020C014
:102C2000E0C0F0C082C083C002C003C004C005C0C1
:102C300006C007C000C001C0D075D0007A0090FA6D
:102C4000ED7410F0539BFCE5E94211E5E930E01C1E
:102C500090FAE8E0FBA3E08B047B00AD9C7E009043
:102C6000FAEAEB4DF0EC4EA3F053E9FEE5E95470BF
:102C70007003022DD090FAE7E0FBBB030653118FDF
:102C8000022DCD90F6E0E0FBB40100E43324E5F53D
:102C900082E434FAF583E0FBBB01028003022DAD30
:102CA00090FB05E0FB20E103022D8790DF04E0FBB1
:102CB000530303BB01027A0190FB05E0FB530301C0
:102CC000BB016490F6E0E025E0FCE424E1FBEC3499
:102CD000F6FC8A057E00ED2BFBEE3CFC90F6E0E076
:102CE00025E0F8E424E1FFE834F6F8ED2FF564EE92
:102CF00038F56590F6E0E025E024E1F582E434FA69
:102D0000F583E0FDA3E0FE8A077800EDC39FF5663A
:102D1000EE98F56790FB05E0FD74F05DF5688B8239
:102D20008C83123144806090F6E0E025E0FCE424DE
:102D3000E1FBEC34F6FC8A057E00ED2BFBEE3CFC5F
:102D400090F6E0E025E0F8E424E1FFE834F6F8ED61
:102D50002FF569EE38F56A90F6E0E025E024E1F51C
:102D600082E434FAF583E0FDA3E0FE7F00EDC39A30
:102D7000F56BEE9FF56C90FB05E0FA74F05AF56D7B
:102D80008B828C8312315990F6E0E06401F090F66A
:102D9000E0E025E0FA24E1F582E434FAF583E4F09A
:102DA000A3F090FAE5E4F090FAE6F0801E90FAEED7
:102DB0007412F0B29190F6E0E025E0FA24E1F58299
:102DC000E434FAF583E4F0A3F0B291C29153E9CF71
:102DD000E5E930E61090FAEE7410F0B29112263860
:102DE000B29153E9BFE5E930E71090FAEE7411F0C3
:102DF000B291122638B29153E97FD0D0D001D000E1
:102E0000D007D006D005D004D003D002D083D08222
:102E1000D0F0D0E0D02032AA82AB83AC6EAD6F8C04
:102E2000068D071CBCFF011DEE4F601FE5702CFED8
:102E3000E5713DFFEE2AFEEF3BFFEC2AF582ED3B0C
:0C2E4000F583E0F88E828F83F080D422AE
:10370D0000000000000000000000000000000000AC
:04371D0000000000A8
:102E4C00AA82AB831ABAFF011BC3E49A74808BF07D
:102E5C0063F08095F0500F7C4C7D041CBCFF011D71
:102E6C00EC4D70F780DE22AA82E583CA25E0CA33D6
:102E7C00FB1ABAFF011BC3E49A74808BF063F080D9
:102E8C0095F040ED22AA82AB83D2919003E8C00268
:102E9C00C003122E4CC2919001F4122E4CD003D0D0
:102EAC00021518AC18EC20E754EA30E02490001915
:102EBC00C002C003C004122E4CD291900226122ED6
:102ECC004CC291900019122E4CD004D003D0028029
:102EDC0022900113C002C003C004122E4CD2919058
:102EEC000032122E4CC291900113122E4CD004D0F1
:102EFC0003D002EBC313CA13CAFB1C80A8C2919067
:102F0C0003E8022E4CAA82AB83ACF0AD6EAE6FAF71
:102F1C0070A871A972E84960057574018003757415
:102F2C0000E5746046C000C0018A828B838CF0126D
:102F3C003571F88D828E838FF0123571F9E8C39953
:102F4C00F573D001D000E5736010E573F57533951A
:102F5C00E0F576857582857683220ABA00010B0D21
:102F6C00BD00010E18B8FF011980AA900000225371
:102F7C00BEFBE5BE30E6FB53C6B8E5C620E6FB4318
:102F8C00BE04E5BE30E6FB53C6C743E40C43E40184
:102F9C002243FE03C29122C0E0C082C083C002C0A3
:102FAC0003C004C005C0D075D00090FAEFE0FAA3BE
:102FBC00E0FBA3E0FCA3E0FD90FAEF74012AF0E43F
:102FCC003BA3F0E43CA3F0E43DA3F0D0D0D005D07B
:102FDC0004D003D002D083D082D0E03212257A857F
:102FEC0082608560F005F07401800225E0D5F0FB6D
:102FFC00F561E560C40354F824C8F55CE434F6F5D7
:10300C005D855C82855D83A3A374DFF0855C82851E
:10301C005D83A3A3A374B1F0855C82855D83A3A3B8
:10302C00A3A3A37410F0855C82855D83A3A3A3A3E3
:10303C00A3A3E054E0441DF0855C82855D83A3A3CB
:10304C00A3A3A3A3A3E0543F4440F0855C82855D19
:10305C0083A3A3A3A3A3A3A3E054FC4401F01225D0
:10306C007A8582628562F005F07401800225E0D5D4
:10307C00F0FBF563E562C40354F824C8F55EE43450
:10308C00F6F55F855E82855F8374DFF0855E8285F1
:10309C005F83A374B2F0855E82855F83A3A3A3A331
:1030AC00A37410F0855E82855F83A3A3A3A3A3A35F
:1030BC00E054E0441EF0855E82855F83A3A3A3A346
:1030CC00A3A3A3E054CF4410F0855E82855F83A355
:1030DC00A3A3A3A3A3A3E054FC4401F022AA82ABB4
:1030EC0083E5B330E3FB855C82855D838B04ECF078
:1030FC00855C82855D83A37B00EAF0E56142D6E5C1
:10310C006E456FF5F0740145F0F5B3E5B330E3FBB4
:10311C0022AA82AB83AC6EAD6FEC540F60158C069B
:10312C008D070CBC00010DEE2AF582EF3BF583E414
:10313C00F080E68C828D832285646E85656F856652
:10314C007085677175720085687302316E85696E62
:10315C00856A6F856B70856C71757202856D7302F3
:10316C00316E858274858375E5B330E3FBE570249D
:10317C00F0FCE57134FFFD74505573FEE572457338
:10318C00F5F0740145F0FF74014572F8E4F576F53D
:10319C0077C3E5769570E5779571400122C0078578
:1031AC005C82855D83E5762574FBE5773575FA8B56
:1031BC00018A078F01E9F0855C82855D83A3EBF0C2
:1031CC00855E82855F83A3A3E576256EFAE5773568
:1031DC006FFB8A078B018907EFF0855E82855F8321
:1031EC00A3A3A37B00EAF0E563456142D6D007EECA
:1031FC00600CECB57608EDB5770488B380028FB31C
:10320C00E5B330E3FB74102576F576E43577F57786
:10321C0002319D1232C2BC0003023480EF60FA30DE
:10322C00D502B2D1E583B4FF03023496E582B4FF34
:10323C0003023496258340072482400B02348024F9
:10324C0083145003023496F582EA8DF0A4A8F0EAB8
:10325C008EF0A428F8E435F0F9EB8DF0A428E935CC
:10326C00F0F9E433CA8FF0A429F9EA35F0FAEBF857
:10327C008EF0A429F9EA35F0FAE433FBEC8DF0A4D6
:10328C0029F9EA35F0FAE43BFBE88FF0A42AFAEBD3
:10329C0035F0FBE433CCFD8EF0A42AFAEB35F0FBD1
:1032AC00E43CFCED8FF0A42BFBEC35F0FC20E703A9
:1032BC001232F002345FAA82AB83A2F73392D16050
:1032CC0002D2F7F582ACF0E58124F9F8E6FD08E6C8
:1032DC00FE0886F008E6A2F73392D56002D2F7F525
:0432EC0083AFF0229A
:0600BC00E478FFF6D8FD18
:1032F0007804EC700DC9CACBFCE58224F8F582D8BD
:10330000F122782020E7111582C3E933F9EA33FA74
:10331000EB33FBEC33FCD8EC22AC82AD83AE6FAF69
:1033200070BE0004EF600C1F0FE56E1233DCA3DEED
:10333000FADFF88C828D8322AA82AB83ACF08A7389
:103340008B748C75A86EA96FAD70887689778D782F
:10335000A871A9728805890618B8FF0119ED4E6099
:10336000258576828577838578F0123571FDA38572
:1033700082768583778A828B838CF0ED1233DCA38F
:10338000AA82AB8380CE8573828574838575F02293
:10009A007914E94400601B7A0190370D78F375935F
:1000AA00FAE493F2A308B800020593D9F4DAF275D8
:0200BA0093FFB2
:10339000FCABF0AA83A982749EC2D1F5821232F0EE
:1033A00002345F7F9E1233CA30D103023480C3EFF0
:1033B0009582500974FFF5F0F583F58222790012A9
:1033C000358D89828A838BF0EC22AA82AB83A2F7A7
:1033D0003392D16002D2F7F582ACF02220F71030A0
:1033E000F6118883A88220F507F6A883758300224A
:1033F000F280F7F022E582856EF0A4C582C0F085E8
:103400006FF0A4D0F025F0C583856EF0A42583F578
:103410008322E56E456F60467A01E56E25E0F56E24
:10342000E56F334012F56FE582956EE583956F4049
:10343000030A80E6C3E56F13F56FE56E13F56EC3FF
:10344000E582956EF5F0E583956F4005F58385F08F
:0F34500082C3E56F13F56FE56E13F56EDAE122B7
:1000C2007800E84400600A79007593F0E4F309D8F7
:1000D200FC78F3E8440A600C790B90F000E4F0A39A
:0400E200D8FCD9FA73
:02008B00E4731C
:10345F00B98003EA13B34010EA2401FAE43BFBE41A
:10346F003CFC50047C800582BC000EBB000BBA00F4
:10347F0008E4F5F0F583F58222A2D1E582138CF0F2
:10348F0092F78B838A8222E4F583F58275F080F4BC
:10349F00A2D11322E4F583F58275F0C0747F221256
:1034AF0032C230D502B2D1BF0009BC00030234A32F
:1034BF00023496BC0003023480E583B4FF0BE5822F
:1034CF00B4FF030234A3023480E582B4FF03023455
:1034DF0096C395835007247F400B023480248014B9
:1034EF005003023496F582C3ED9AEE9BEF9C401188
:1034FF001582C3EA33F9EB33FAEC33FBE433FC8088
:10350F0005E4CCCBCAF9C08275F019C3E99DEA9ED8
:10351F00EB9FEC9400D5F002802D400EE99DF9EA67
:10352F009EFAEB9FFBEC9400FCC3B3E833F8E58203
:10353F0033F582E58333F583C3E933F9EA33FAEBE5
:10354F0033FBEC33FC80C4B3E4F938FAE43582FB87
:10355F00E43583FCD082500405827C801232F00265
:02356F003477AF
:0D008D007581781235D0E58260030200868F
:1035710020F71430F6148883A88220F507E6A88383
:1035810075830022E280F7E49322E0226040F8256F
:1035910082500274FFF582E824F8501ECCCBCAF9A0
:1035A100E4CC24F85014CBCAF9E4CB24F8500BCA6C
:1035B100F9E4CA24F8500379002224086010F8C302
:1035C100EC13FCEB13FBEA13FAE913F9D8F12275BA
:0335D10082002253
:00000001FF
