:0600000002008D02258EB6
:01000B0032C2
:0100130032BA
:01001B0032B2
:0100230032AA
:01002B0032A2
:0300330002216443
:01003B003292
:01004300328A
:03004B000228AADE
:0300530002034560
:03005B0002057F1C
:01006300326A
:03006B000221F07F
:01007300325A
:01007B003252
:0300830002265002
:0300E6000200868F
:0500860012101080FEC5
:1000E900AA82AB8375E10490DF3BE0FCBC01F89088
:1000F900DF06EAF075E10290DF3BE0FABA0DF8227B
:100109007A007B0090F007E0FCA3E0FD8A068B07EC
:10011900C3EE9CEF9D503AEA2415FCEB34F0FD90B8
:10012900F005E0F50EA3E0F50F8A828B83C002C0CB
:1001390003C004C005122AC5AE82AF83D005D0041E
:10014900D003D0028C828D83EEF00ABA00B60B8000
:10015900B390F001E4F0A3F0A3F0A3F022AA82E5A2
:100169009CC39AF59CE59C24FAF59C439E10D2BA4F
:1001790022539EEF22AA82AB8390F000E0FC601C20
:10018900BC01028017902C87C002C00312220F9075
:10019900F000E0F582122242D003D002C002C0036F
:1001A90012017AD003D00290F009E4F0A3F090F0A4
:1001B90009E0FCA3E0FD8C828D83C002C00312021A
:1001C90091D003D00290DF3BE0FCBC0DF890DF3A00
:1001D900E0FC53047FBC6000402F90F009E0FCA3D1
:1001E900E0FD0CBC00010D90F009ECF0A3EDF0D29C
:1001F9009190000AC002C003122753C29190000ACD
:10020900122753D003D00280A590F0007402F09019
:10021900F8E4E0FCA3E0FDA3E0A3E090F00BECF030
:10022900A3EDF090F00FEAF0A3EBF02290F000E4D8
:10023900F090F8E4E0FAA3E0FBA3E0A3E090F00B70
:10024900EAF0A3EBF02290F0007404F090F8E4E0F7
:10025900FAA3E0FBA3E0A3E090F00BEAF0A3EBF034
:100269002290F0007405F090F013E4F0A3F090F8F8
:10027900E4E0FAA3E0FBA3E0A3E090F00BEAF0A32B
:10028900EBF0758200020166AA82AB83EA2415F5B8
:1002990082EB34F0F583E0FA7B008A828B830200DB
:1002A900E985820E85830F85F01090F011E075F0D5
:1002B90029A4FA2487F582E434F3F583E508F0EA02
:1002C9002487FAE434F3FB0ABA00010B7C008508A1
:1002D900117512008A828B838CF0122A0890F01112
:1002E900E0FA0A90F011EAF0BA0500400590F01121
:1002F900E4F022AA82AB8390F385EAF0A3EBF02223
:100309002290F009E0FAA3E0FB0ABA00010B90F091
:1003190009EAF0A3EBF0C3EA9470EB940340079069
:10032900F009E4F0A3F090F009E0FAA3E0FBEA2475
:1003390015F582EB34F0F583E0F58222C020C0E0A8
:10034900C0F0C082C083C002C003C004C005C0069B
:10035900C007C000C001C0D075D00090F8D6E02415
:1003690001F0A3E03400F090F001E0FAA3E0FBA370
:10037900E0FCA3E0FD90F8D6E0FEA3E0FF78007969
:1003890000C3EE9AEF9BE89CE99D50030205629039
:10039900F8D6E0FAA3E08A037A00AC9C7D00EC422F
:1003A90002ED420390F00DEAF0A3EBF090F009E0C2
:1003B900FAA3E0FB0ABA00010B90F009EAF0A3EBFB
:1003C900F090F007E0FCA3E0FDC3EA9CEB9D400739
:1003D90090F009E4F0A3F090DF3BE0FABA130302CE
:1003E900056290F009E0FAA3E0FB8A828B8312028E
:1003F9009190F8D6E4F0A3F090F000E0FABA030384
:100409000204F2BA04030204F2BA050280030205E7
:100419006290001912275390F454741CF090F0095B
:10042900E0FAA3E0FB8A0490F455ECF08B0290F417
:1004390056EAF090F4577442F090F458744CF090E6
:10044900F4597441F090F45A7448F090F45B744292
:10045900F090F45C744CF090F45D7441F090F45EAB
:100469007448F090F45F7442F090F460744CF0902A
:10047900F4617441F090F4627448F090F46374424A
:10048900F090F464744CF090F4657441F090F46663
:100499007448F090F4677442F090F468744CF090EA
:1004A900F4697441F090F46A7448F090F46B744202
:1004B900F090F46C744CF090F46D7441F090F46E1B
:1004C9007448F090F46F7420F0750C1C90F4551278
:1004D900244890F013E0FAA3E0FB0ABA00010B905C
:1004E900F013EAF0A3EBF0807090F012E075F029B8
:1004F900A42487FAE434F3FB8A828B83E0605AB23E
:100509009190001912275390F012E075F029A42454
:1005190087FAE434F3FB90DF04E05401FCB40100F2
:10052900E4332AFCE43BFD8A828B83E0F50C8C8260
:100539008D8312244890F012E0FA75F029A42487DB
:10054900F582E434F3F583E4F00A90F012EAF0BAA4
:100559000500400590F012E4F0D0D0D001D000D0D1
:1005690007D006D005D004D003D002D083D082D0E2
:10057900F0D0E0D020323290F000E4F090F011F0A9
:1005890090F012F090F009F0A3F090F0057453F098
:10059900A3E4F090F0077453F0A3E4F090F00DF0A9
:1005A900A3F090F00BE4F0A3F090F001E4F0A3F0D5
:1005B900A3F0A3F090F00FE4F0A3F090F013E4F0AF
:1005C900A3F012010990F000E4F0759DDC859E9E70
:1005D900439E0443CB10227A8E7B098A828B831235
:1005E900149990F8E4E4F0A3F0A3F0A3F0120580C5
:1005F90002233A90F000E0FABA00030208B6BA0101
:10060900030207A7BA02030206B9BA03030208B62E
:10061900BA04030208B6BA0503020897BA40028071
:1006290006BA410280372275E10490DF3BE0FABA4D
:1006390001F890DF0374E5F090DF047404F090DFB3
:10064900077412F090DF08E4F090DF147410F09052
:10065900DF17E0FA44C0F090F0007441F07A00909E
:10066900F013E0FBA3E0FC8A057E00C3ED9BEE9C42
:10067900502790DF06EAF075E102900002C00212ED
:100689002753D002EA24D5FDE434F7FE90DF3AE09F
:10069900FF8D828E83F00A80C675E1048B0F751079
:1006A90000750E017511D57512F775824302103C5C
:1006B900E50B70030207A090F8E2740DF0539AFE5F
:1006C900E50B20E4030207A090F0007403F090F812
:1006D900D8E0FAA3E08A82120166902CB512220FA3
:1006E90090F8D8E0FAA3E0FB8A828B8312225D900E
:1006F900F5D0E0FB7A00EA24D1FAEB34F5FB8A82E3
:100709008B8312220F90F5D0E0FAB40100E433FA9A
:1007190024D3FBE434F7FC8B828C83E0600302076B
:100729009D90DF04E0FB30E0378A038B047B00EB0C
:1007390024D1F582EC34F5F583E0FD8D0F751000B9
:10074900EB24D1FBEC34F5FC74012BF511E43CF5F9
:1007590012750E01758242C00212103CD002802728
:1007690090DF02E0FB8B0F7510008A038B047B007E
:10077900EB24D1F511EC34F5F512750E01758242B1
:10078900C00212103CD002EA24D3F582E434F7F512
:10079900837401F0530BEF750B00439A0122E50BAB
:1007A900700302089090F8E2740DF0539AFEE50B7D
:1007B90020E40302089090F5D0E0FAB40100E43394
:1007C900FA902CCAC00212220FD0028A037A00EAD8
:1007D90024D1FCEB34F5FD8C828D83C002C0031259
:1007E900225DD003D002EA24D1FAEB34F5FB8A82E8
:1007F9008B8312220F90F5D0E0FAB40100E433FAAA
:1008090024D3FBE434F7FC8B828C83E06003020879
:100819008D90DF04E0FB30E0378A038B047B00EB2B
:1008290024D1F582EC34F5F583E0FD8D0F751000C8
:10083900EB24D1FBEC34F5FC74012BF511E43CF508
:1008490012750E01758242C00212103CD002802737
:1008590090DF02E0FB8B0F7510008A038B047B008D
:10086900EB24D1F511EC34F5F512750E01758242C0
:10087900C00212103CD002EA24D3F582E434F7F521
:10088900837401F0530BEF750B00439A012290F02A
:1008990013E0FAA3E0FB90F007E0FCA3E0FDC3EA54
:1008A9009CEB9D50012290F0007404F022E50B703E
:1008B900012290F8E2740DF0E50B5430700122909A
:1008C900F5D0E0FAB40100E433FA24D3FBE434F7B9
:1008D900FC8B828C83E0600302095790DF04E0FB04
:1008E90030E0378A038B047B00EB24D1F582EC34AA
:1008F900F5F583E0FD8D0F751000EB24D1FBEC3489
:10090900F5FC74012BF511E43CF512750E017582A5
:1009190042C00212103CD002802790DF02E0FB8B1C
:100929000F7510008A038B047B00EB24D1F511ECC1
:1009390034F5F512750E01758242C00212103CD0D1
:1009490002EA24D3F582E434F7F5837401F0530BFA
:10095900CF22E58290F470F090F5B7E0FA5302FDEA
:1009690090F5B7EAF090F5B3E0FA90F5B4E0F50E3A
:1009790090F470E0FB8B0F751000850911850A1240
:100989008A8202103C90F5AEE0FAA3E0FB90F5B341
:10099900E0FCBC42028003020D5290F5B4E0FCBCBD
:1009A9000203020AADBC0303020AE9BC0403020AFA
:1009B9005BBC1003020B34BC1103020BA6BC12036F
:1009C900020BCBBC1303020C22BC1403020C49BC5E
:1009D9001503020C5DBC1603020C90BC1703020B35
:1009E9000DBC1803020B91BC2003020CC3BC2103EC
:1009F900020D3ABC2203020C9FBC2303020BEFBC7D
:100A09002403020C0ABC40028008BC410280310266
:100A19000D48C002C00312017AD003D00290F00041
:100A29007440F08A828B83E0FC7D0090F013ECF037
:100A3900A3EDF08A098B0A75820112095B020D5236
:100A490090F000E4F08A098B0A75820112095B02B1
:100A59000D528A828B83E0FCA3AA82AB83BC01027C
:100A6900800ABC0202801FBC0327800DC002C0039C
:100A790012233AD003D0028018C002C00312237E89
:100A8900D003D002800BC002C003122357D003D079
:100A99000290F5B1E0FCA3E08C828A098B0A120965
:100AA9005B020D5290F000E06009902CE412220FD5
:100AB900020D528A828B83E0FCA3AA82AB837D005C
:100AC90090F471ECF0A3EDF08C0C8A828B831224E4
:100AD90048750971750AF475820112095B020D5294
:100AE9008A828B83E0FC7D008C828D83C002C003E7
:100AF9001202FCD003D0028A098B0A7582011209FD
:100B09005B020D528A048B057E0090F5B1E0FFA3CC
:100B1900E08F088C828D838EF01202AA75090975FF
:100B29000A2D75820112095B020D528A828B83E0BC
:100B3900FC7D0090F005ECF0A3EDF0C374709C749B
:100B4900039D403574022AFAE43BFB8A0E8B0F752C
:100B5900100090F005E0F511A3E0F51290F015757D
:100B6900F000122A0874052400F509E434F0F50AA6
:100B790075820212095B020D5275090B750A2D75F2
:100B8900820812095B020D5290F005E0FCA3E075A2
:100B99000915750AF08C8212095B020D5212030ABB
:100BA9007D008D8312029190F009E0FCA3E0FDEC39
:100BB9002415F509ED34F0F50A75820112095B0275
:100BC9000D528A828B83E0FC7D008C828D83C0026A
:100BD900C0031200E9D003D0028A098B0A75820189
:100BE90012095B020D52758200C002C00312016630
:100BF900D003D0028A098B0A75820112095B020DA2
:100C090052C002C00312017AD003D0028A098B0AAA
:100C190075820112095B020D528A828B83E0FC7D89
:100C2900007E007F0090F001ECF0A3EDF0A3EEF060
:100C3900A3EFF08A098B0A75820112095B020D5232
:100C490074012400F509E434F0F50A7582041209E7
:100C59005B020D528A828B83E0FC7D008C0E8D0F26
:100C6900751000751115E4F51290F00075F000C0CB
:100C790002C003122A08D003D0028A098B0A75829E
:100C89001512095B020D52750900750AF075821576
:100C990012095B020D528A828B83E0FC7D008C82F3
:100CA9008D83C002C00312017ED003D0028A098B52
:100CB9000A75820112095B020D5290F8E4E0FCA367
:100CC900E0FDA3E0FEA3E0FF90F00BECF0A3EDF054
:100CD9008A828B83E0FC90F000F090F000E0FDEC5C
:100CE90024FA4041ED2D2D900CF473020D06020DEE
:100CF90006020D06020D20020D20020D13C002C0CE
:100D09000312017AD003D002801BC002C003120271
:100D19006AD003D002800E758200C002C00312019E
:100D290066D003D0028A098B0A75820112095B8099
:100D390018750900750AF075820112095B800A8A23
:100D4900098B0A75820112095B90F5B7E0FA530223
:100D5900FD90F5B7EAF0900000222290F5BCE0FA88
:100D6900BA014490F59CE0FAA3E0FBA3E090F5BF3B
:100D7900E0FCA3E0FD90F59FE0FEA3E0FFEE4F60ED
:100D890004780180027800E8601D8A828B83E0F88C
:100D9900A3AA82AB838C828D83E8F0A3AC82AD8356
:100DA9001EBEFF011F80D690F5A5E0FA5302FD9003
:100DB900F5A5EAF090DE11E04408F022AA82AB839F
:100DC900ACF0122C24FD20E703020EEC74012AFD7D
:100DD900E43BFE8C078D828E838FF0122C24FD60FC
:100DE9001FBD0102802CBD0202803EBD0303020E1D
:100DF9006EBD0403020E93BDFE03020EAC020EEC9F
:100E0900752D02E4F52E90F8E275F00012125602E3
:100E19000EEC90DE00E0FD7E00752F28E4F5308DA4
:100E2900828E831212B5020EEC74022AFDE43BFE97
:100E39008C078D828E838FF0122C24FDA3122C2413
:100E4900FE74062AFFE43BF88C018F82888389F0BF
:100E5900122C24F52FA3122C24F5308D828E8312A7
:100E690012B5020EEC74062AFDE43BFE8C078D8256
:100E79008E838FF0122C24F52DA3122C24F52E8AA3
:100E8900828B838CF0121256805990F59CE0FDA359
:100E9900E0FEA3E08D828E83752F10E4F5301212E7
:100EA900B5804074022AFAE43B7B007C40750E133E
:100EB900750F2D751080751104E4F5128A828B83E4
:100EC9008CF0122818E5828583F045F06012D291E2
:100ED90090012C122753C29190012C1227538003A1
:100EE90075C9839000002290DF2FE4F090DF30F085
:100EF90090DF31F090DF00740CF090DF01744EF058
:100F090090DF0274FFF090DF037440F090DF04E497
:100F1900F090DF05F090DF06F090DF077406F0909F
:100F2900DF08E4F090DF097424F090DF0A743AF0E6
:100F390090DF0B74F1F090DF0C74CAF090DF0D7440
:100F4900A3F090DF0E7401F090DF0F7423F090DFAF
:100F5900107411F090DF117436F090DF127407F0FD
:100F690090DF13743FF090DF147418F090DF15745C
:100F790017F090DF16746CF090DF177403F090DFB0
:100F8900187440F090DF197491F090DF1A7456F0DC
:100F990090DF1B7410F090DF1C74E9F090DF1D7472
:100FA9002AF090DF1EE4F090DF1F741FF090DF231A
:100FB9007488F090DF247431F090DF257409F09083
:100FC900DF2E74C0F090DF07740CF090DF097425F0
:100FD900F090DF0A7495F090DF0B7455F090DF1AEA
:100FE90074B6F090DF1B7410F090DF1C74EAF09077
:100FF900DF1D742AF090DF1EE4F090DF1F741FF0EC
:10100900221228820228A412100A1212441223B0B2
:101019001205E0121250D2AF12111FD291900002A4
:10102900122753C29190000A122753122013120556
:03103900FC80F840
:102C87004648535320737461746520656E7465728A
:102C9700696E672053594E4348494E472066726F05
:102CA7006D2077726F6E67207374617465006E654F
:102CB70074776F726B207061636B65742873796EBC
:102CC7006329006E6574776F726B207061636B6543
:102CD7007428646973636F7665727929006372611A
:102CE700702C20706C65617365207573652046488C
:102CF7005353786D6974282920696E73746561640C
:102D0700210000004E4F204445414C005253544E81
:012D170000BB
:10103C00AA827B0190DE0E7405F0E50F451070015D
:10104C00227C1E7D0090DE11E0FE30E00D90F8E376
:10105C007401F01CBCFFEE1D80EBBB012F7B0090DC
:10106C00DE2A7440F0EAF0E50EF0AC0F7D0090DE65
:10107C002AECF0E510F0C3743B950FE49510500684
:10108C007C3B7D00801AAC0FAD108014C37440956E
:10109C000FE4951050067C407D008004AC0FAD1021
:1010AC0043D682AE11AF128F0090F5C1E8F07F00ED
:1010BC0090F5C2EEF090F5C374DEF090F5C4742A8E
:1010CC00F08C0690F5C6EEF090F5C5E054E0F0908B
:1010DC00F5C8E0543F4440F090F5C8E054CFF043DD
:1010EC00D60243D702E5D130E1FB53D1FD90DE0EA1
:1010FC007405F090DE11E0FE4401F0E50FC39CF5A1
:10110C000FE5109DF510EC2511F511ED3512F512CA
:10111C00021046E521700512201380F72253BE7F82
:10112C0043BE8090DE0B74F7F090DE0774FFF090F6
:10113C00DE0974FFF0438C10538CFED2BD439A022F
:10114C00758900C2C5758B00C2E843A90243B90278
:10115C007AC17BF58BD37AC17BF58AD290F5C5E049
:10116C00541FF090F5C7E0547FF090F5C5E054E0C3
:10117C00F090F5C7E0549F4420F090F5C7E054E0A0
:10118C00F090F5C8E04408F0E054FBF090F5C8E0AE
:10119C0054FC4401F090DE01E054FEF0752400751F
:1011AC00220075230075210090DE0EE4F090DE1015
:1011BC007404F090DE137404F090F5A6E4F090F54E
:1011CC00A5F090F59AF0A3F090F59C7473F0A374CD
:1011DC00F4F0A3E4F090F59FF0A3F090F5A1E4F007
:1011EC0090F5A2F090F5A3F0A3F090DE0E7405F04C
:1011FC0090DE107408F090DE137408F090DE12E0AC
:10120C004480F090F5B8E4F090F5B7F090F5ACF0C0
:10121C00A3F090F5AE7493F0A374F4F0A3E4F09003
:10122C00F5B1F0A3F090F5B3E4F090F5B4F090F5CF
:10123C00B5F0A3F0439A022290F8E27402F043BE98
:10124C0080021129D29022C29022AA82AB83ACF0E8
:10125C0090F5A6E06034D2919003E8122753C29126
:10126C009003E8122753D2919003E8122753C291AE
:10127C009003E8122753D2919003E8122753C2919E
:10128C009003E812275390FFFF2290F597EAF0A302
:10129C00EBF0A3ECF090F59AE52DF0A3E52EF09091
:1012AC00F5A67401F090000022AA82AB8390F5A6FB
:1012BC00E06034D2919003E8122753C2919003E876
:1012CC00122753D2919003E8122753C2919003E84E
:1012DC00122753D2919003E8122753C2919003E83E
:1012EC0012275390FFFF227C0090F597EAF0A3EBB6
:1012FC00F0A3ECF090F59AE52FF0A3E530F090F523
:10130C00A67401F0900000227A0290DE0EE4F090B8
:10131C00F59AE0FBA3E0FCC374209BE49C50047D95
:10132C002080048B057A0A8D067F00EBC39EFBECB4
:10133C009FFC90F59AEBF0A3ECF08D03EB60047C32
:10134C000180027C00EC603690F597E0FCA3E0FD98
:10135C00A3E0FE8C828D838EF0122C2490DE20F084
:10136C0090F597E0FCA3E0FDA3E0FE0CBC00010DA2
:10137C0090F597ECF0A3EDF0A3EEF01B80BE90DEA1
:10138C0011E04AF090F59AE0FAA3E0FB4A70059060
:10139C00F5A6E4F02290F5A67402F0758200229076
:1013AC00F59CE0FAA3E0FB90DE11E0FCB40100E454
:1013BC0033FC20E0F290DE0EE4F090DE16E0FC7DD3
:1013CC000090F59FECF0A3EDF090F5A5E0FE30E178
:1013DC000A90F5A67403F090FFFF2290F5A5E0FEAD
:1013EC0043060290F5A5EEF090F59FE0FEA3E0FF1A
:1013FC00C374209EE49F5018D29190012CC002C05F
:10140C0003122753C29190012C122753D003D00200
:10141C0090F59FE0FCA3E0FDEC4D60027401FE60D2
:10142C001690DE20E0FE8A828B83F0A3AA82AB8327
:10143C001CBCFF011D80E1E527452860098527823A
:10144C0085288312008B90F59FE0FAA3E0FBC3EA9A
:10145C009420EB9400501CE52545266009852582D7
:10146C0085268312008B90DE11E0FA4408F090F58B
:10147C00A6E4F090DE11E04440F090F59FE0FAA372
:10148C00E08A82F5832285822985832A2285822B14
:10149C0085832C22752D01E4F52E90002475F040E7
:1014AC00021256AA82AB83ACF074022AFAE43BFB1C
:1014BC008A828B838CF0122C24FAA3122C248A247B
:1014CC007521012285820F7B4B7C2D7D8074012B35
:1014DC00FEE43CFF8D008E828F8388F0122C24FE5C
:1014EC00AF0EBEFF028052EEB50F2BEF70047EFFE5
:1014FC0080F01F8B828C838DF0122C242BFBE43C10
:10150C00FC74012BF8E43CF98D02888289838AF003
:10151C00122C24FE80CC8B828C838DF0122C242BED
:10152C00FBE43CFC74012BFAE43CF88D018A8288C4
:10153C008389F0122C24FE80A98B828C838DF0225F
:10154C0085823185833285F03374022531F53BE495
:10155C003532F53C85333D853B82853C83853DF0BA
:10156C00122C24F8A3122C24F98939753A00740131
:10157C00B53906E4B53A02801A7402B53906E4B5F9
:10158C003A02802C7403B53907E4B53A0302163AD3
:10159C000216578982750E001214D0858234858309
:1015AC003585F036122C24FA8A37753800021670FD
:1015BC00898288048C0E1214D085823485833585FB
:1015CC00F03674022534FCE43535FDAE368C828D54
:1015DC00838EF0122C24FC8C37753800853B828569
:1015EC003C83853DF0122C24A3122C24FC7D00742A
:1015FC00012534FEE43535FFAA368E828F838AF0BE
:10160C00122C24FE7A00ECB50606EDB502028054CD
:10161C00853B82853C83853DF0122C24FAA3122C49
:10162C0024FB750D108A828B8312279880E28982A5
:10163C0088028A0E1214D085823485833585F03663
:10164C00122C24FA8A3775380080198982880E1278
:10165C0014D085823485833585F036122C24FA8A91
:10166C003775380074062531FAE43532FBAC338A11
:10167C00828B838CF0122C24FAA3122C24FBC3EA49
:10168C009537EB953850048A378B3885372D85384C
:10169C002E8534828535838536F002125690DE0E07
:1016AC00E4F090DE11E0FA30E40D90F5A6E4F09051
:1016BC00DE11E0FB4480F0EA30E22490DE11E4F02D
:1016CC0090F8E37404F090F5A6E4F0D2919000C881
:1016DC00C002122753C2919000C8122753D0029017
:1016EC00F5A6E0FBBB0319D2919001F4C0021227BE
:1016FC0053C2919001F4122753D00290F5A6E4F056
:10170C0090F5A6E06003021948EA20E003021948AC
:10171C0090DE0EE4F07A007B3E7C007D40BA08003F
:10172C00501690DE20E0FE8B828C838DF0122AAC5A
:10173C00A3AB82AC830A80E5E53EFA20E7030218EE
:10174C005074605AFB6015BB2003021932BB400376
:10175C00021815BB600302183D021932741F5AFBA4
:10176C007046AC3FBC0002801CBC06028005BC0865
:10177C002B800C90003E75F04012154C0219321261
:10178C0014A0021932E4F546F547752D02E4F52E46
:10179C0090004675F04012125602193290003E75B8
:1017AC00F04012220E021932BB011AAC3FBC0003EE
:1017BC00021932BC0A0302193290003E75F0401235
:1017CC00220E021932BB022DAC3FBC00028008BCB9
:1017DC0012030219328012752D02E4F52E902D2B76
:1017EC0075F08012125602193290003E75F04012BC
:1017FC00220E02193290003E75F04012220E90DE3D
:10180C0011E0FC4420F0021932E529452A601674D7
:10181C002EC0E07418C0E0C029C02A90003E75F0BC
:10182C00402202193290003E75F04012195F0219E5
:10183C003290DE11E04420F090003E75F040122210
:10184C000E02193274605AFC6015BC200302193266
:10185C00BC40030218FBBC6003021921021932744C
:10186C001F5AFB703FAA3FBA0103021932BA030395
:10187C00021932BA0502800BBA0703021932BA09EF
:10188C0017800990DE00E540F002193290003E7599
:10189C00F0401214AF02193290003E75F040122243
:1018AC000E021932BB011CAA3FBA01028078BA039E
:1018BC00028073BA1102806E90003E75F0401222C5
:1018CC000E8063BB0217AA3FBA01028059BA030209
:1018DC00805490003E75F04012220E804990DE112B
:1018EC00E04420F090003E75F04012220E8037E567
:1018FC0029452A60157414C0E07419C0E0C029C0D1
:10190C002A90003E75F04022801C90003E75F040FD
:10191C0012195F801190003E75F04012220E90DE7D
:10192C0011E0FA4420F090DE11E0FA4440F0E54476
:10193C004545700890DE11E0FA4408F090F5A6E0F9
:10194C00FABA010312131490F5A6E0FABA020302D4
:10195C0013AB22AA82AB83ACF0122C24FD20E7033C
:10196C00021A8E74012AFDE43BFE8C078D828E8355
:10197C008FF0122C24FD601FBD0102802CBD0202D1
:10198C00803EBD0303021A08BD0403021A2EBDFEDD
:10199C0003021A48021B02752D02E4F52E90F8E2A0
:1019AC0075F000121256021B0290DE00E0FD7E0064
:1019BC00752F28E4F5308D828E831212B5021B022E
:1019CC0074022AFDE43BFE8C078D828E838FF0120D
:1019DC002C24FDA3122C24FE74062AFFE43BF88C65
:1019EC00018F82888389F0122C24F52FA3122C24CA
:1019FC00F5308D828E831212B5021B0274062AFDFD
:101A0C00E43BFE8C078D828E838FF0122C24F52DF7
:101A1C00A3122C24F52E8A828B838CF01212560280
:101A2C001B0290F59CE0FDA3E0FEA3E08D828E836B
:101A3C00752F10E4F5301212B5021B0274022AFD48
:101A4C00E43B8C077E007F40750E2E750F2D7510B4
:101A5C0080751104E4F5128D828E838FF012281894
:101A6C00E5828583F045F06013D29190012C12270A
:101A7C0053C29190012C122753021B0275C9830289
:101A8C001B0290F5BCE0FDBD015F74022AFAE43B39
:101A9C00FB8A828B838CF0122C24FAA3122C24FB4D
:101AAC0090DE0EE4F090DE16E0FC7D00750D088CE7
:101ABC00828D83C002C003C004C005122798D005D4
:101ACC00D004D003D002EC4D60047E0180027E0075
:101ADC00EE601690DE20E0FE8A828B83F0A3AA8251
:101AEC00AB831CBCFF011D80DD90F5A5E0FA530211
:101AFC00FD90F5A5EAF09000002290F5B7E0FA30E1
:101B0C00E10A90F8E37405F090FFFF2290DE0E746A
:101B1C0005F090DE16E0FA7B0090DE17E0FDE42A7B
:101B2C00FAED3BFB90F5B5E0FCA3E0FD4C70559055
:101B3C00F5B1E4F0A3F090DE2AE090F5B3F090DE7E
:101B4C002AE090F5B4F090DE2AE0FC7D0090F5B52B
:101B5C00ECF0A3EDF090DE2AE0FFE4FE2CFCEF3D70
:101B6C00FD90F5B5ECF0A3EDF0EA24FCFAEB34FFB4
:101B7C00FBC374049C74019D500A90F5B57404F079
:101B8C00A37401F0E5D130E11AD291900014C00297
:101B9C00C003122753C291900014122753D003D0C4
:101BAC000280E190F5AEE0FCA3E0FDA3E090F5B17E
:101BBC00E0F548A3E0F549E5482CFCE5493DFD433B
:101BCC00D68290F5C174DEF090F5C2742AF08D06C1
:101BDC0090F5C3EEF090F5C4ECF090F5C8E0543FEE
:101BEC00F090F5C8E054CF4410F090DE16E090F57C
:101BFC00C6F090DE17E090F5C5541FF5F0E054E008
:101C0C0045F0F0E5482AFCE5493BFDC374049C749F
:101C1C00019D500B7404C39548FA74019549FBC39C
:101C2C0074409AE49B501B90F8E37406F090DE1419
:101C3C00E054FEF0750D108A828B8312279890FF6A
:101C4C00FE2243D60243D702EA2548FAEB3549FB7C
:101C5C0090F5B1EAF0A3EBF0E5D130E1FB53D1FD07
:101C6C0090F5B1E0FAA3E0FB90F5B5E0FCA3E0FD44
:101C7C00C3EA9CEB9D403090F5B7E0FA430202902A
:101C8C00F5B7EAF090F5B5E4F0A3F090DE0E74052C
:101C9C00F0AA2274BF5523FB8A228B2390DE14E01A
:101CAC0054FEF09000012290DE0E7405F0AA22740E
:101CBC00BF5523FB8A228B2390DE14E054FEF09058
:101CCC0000002290F5B7E090F5AEE0FAA3E0FB90AF
:101CDC00F5B3E0FCBCFF028003021FF690F5B4E004
:101CEC00FDBD8002802DBD8103021D88BD820302D3
:101CFC001F0FBD8303021F27BD8403021E3ABD853F
:101D0C0003021F3DBD8603021F5DBD8F03021F72C0
:101D1C00021FCA8A828B83E0FEA3AA82AB837F0058
:101D2C0090F5B5EEF0A3EFF08A828B83E0F8A3AACE
:101D3C0082AB8388017800E82EFEE93FFF90F5B571
:101D4C00EEF0A3EFF08A828B83E0F8A3884A754B00
:101D5C0000E0F97800E8254AF54AE9354BF54BAA3D
:101D6C004AAB4B8D0E8E0F8F108A118B128C8212F8
:101D7C00103C90F5B5E4F0A3F0021FE88A828B8347
:101D8C00E0FEA38E4A754B00E0FEA3AA82AB838EC5
:101D9C00077E00EE254AF54AEF354BF54BA84AA9CC
:101DAC004B90F5B9E8F0A3E9F090F5B1E0FEA3E0B3
:101DBC00FFEE24FEF54AEF34FFF54B8A4F8B50852E
:101DCC004A4D854B4EE54D454E6005754C018003E3
:101DDC00754C00E54C603BC00490F5B9E0FCA3E009
:101DEC00F874012CF9E438FE90F5B9E9F0A3EEF0A3
:101DFC00854F82855083E0FEA385824F8583508C6E
:101E0C00828883EEF0154D74FFB54D02154ED0044B
:101E1C0080B390F5B5E0FEA3E0FF8E118F128D0E0E
:101E2C00750F02E4F5108C8212103C021FE890F53D
:101E3C00B7E0FE20E22D8A828B83E0FEA38E4A75EA
:101E4C004B00E0FEA3AA82AB838E077E00EE254AF0
:101E5C00F54AEF354BF54BA84AA94B90F5B9E8F08C
:101E6C00A3E9F090F5B5E0FEA3E0FF8E4A8F4BC3DB
:101E7C007440954AE4954B5006754A40E4F54BEE98
:101E8C00C3954AFEEF954BFF90F5B5EEF0A3EFF03E
:101E9C008A518B52854A4D854B4EE54D454E60051A
:101EAC00754F018003754F00E54F603BC00490F502
:101EBC00B9E0FCA3E0F874012CF9E438FE90F5B914
:101ECC00E9F0A3EEF0855182855283E0FEA3858272
:101EDC00518583528C828883EEF0154D74FFB54D7D
:101EEC0002154ED00480B390F5B5E0FEA3E0FF8E52
:101EFC00118F128D0E750F02E4F5108C8212103CAE
:101F0C00021FE890F5B1E0F50FA3E0F5108D0E8AF5
:101F1C00118B128C8212103C021FE8751133751252
:101F2C002D8D0E750F0DE4F5108C8212103C021FD6
:101F3C00E890F8E4E0FEA3E0FFA3E0A3E08E118FAD
:101F4C00128D0E750F04E4F5108C8212103C021FDA
:101F5C00E875111F75122D8D0E750F0CE4F5108C94
:101F6C008212103C80768A048B057E00750E4175BA
:101F7C000F2D751080751109E4F5128C828D838EEE
:101F8C00F0C002C003122818E5828583F0D003D07C
:101F9C000245F0704775C98090F5B3E0FC90F5B43C
:101FAC00E0F50E90F5B1E0F50FA3E0F5108A118B7A
:101FBC00128C82C002C00312103CD003D00290F5E8
:101FCC00B3E0FC90F5B4E0F50E90F5B1E0F50FA39D
:101FDC00E0F5108A118B128C8212103C90F5B7E050
:101FEC00FA5302FD90F5B7EAF022E52B452C600977
:101FFC00852B82852C8312008B90F5B7E0FA530267
:10200C00FD90F5B7EAF022AA22AB23EA30E0117575
:10201C00210274FE5522FCAD238C228D2343BE017C
:10202C00EA5406602C90F8E2740AF075210374FDF2
:10203C005522FAAB238A228B2390DE01E04404F074
:10204C0090000812275390DE01E0FA54FBF0752142
:10205C000190DE0EE4F090DE11E0FA30E21B90DE2F
:10206C0011E0FA54DBF090F59AE4F0A3F090F59FB0
:10207C00E4F0A3F090F5A6E4F090DE0E7405F09079
:10208C00DE11E0FA30E52190DE11E0FA54CFF09049
:10209C00F8E37408F090F5ACE4F0A3F090F5B1E43B
:1020AC00F0A3F090F5B8E4F090DE14E0FA30E621FD
:1020BC0090DE14E0FA549FF090F8E37408F090F579
:1020CC00ACE4F0A3F090F5B1E4F0A3F090F5B8E433
:1020DC00F0E52220E2057404B5211412112990F8C0
:1020EC00E2740BF074FB5522FAAB238A228B23E5A6
:1020FC002230E4111216A974E75522FA740F5523F5
:10210C00FB8A228B23E52330E62190F8E2740CF055
:10211C00121B06AA82AB83E4BA0104BB000104FAC9
:10212C00BAFF028006BA0103121CCFAA22AB23EA23
:10213C0054E07005EB54BD601E90F8E37409F07523
:10214C000D108A828B8312279874E05522FA74BD85
:10215C005523FB8A228B2322C0E0C082C083C0029D
:10216C00C003C004C005C0D075D000E5BE30E6FB8E
:10217C0090DE06E0FA7B00E5224202E52342038A68
:10218C00228B2390DE02E0FCE4C454F0CCC4CC6C73
:10219C00CC54F0CC6CFDEC4202ED42038A228B2332
:1021AC0090DE04E025E0FDE4FC4202ED42038A22CD
:1021BC00EBF52330E11890F5B7E0FA5302FE90F5F9
:1021CC00B7EAF0AA2274FD5523FB8A228B23758B68
:1021DC0000C2E8D0D0D005D004D003D002D083D038
:1021EC0082D0E032C0E0E5BE30E6FBC2AFE589301C
:1021FC00E70375210353BEFC758900C2C5D2AFD06D
:03220C00E032229B
:102D180053444343762201444F4E53444F4E474C4D
:102D28004500000000005253544E00554E494D5086
:102D38004C454D454E5445440052455345545F4E0D
:102D48004F570012010002000000205104154700EF
:102D580001010203010A0600020000002001000927
:102D680002200001010080FA0904000002FFFF01AF
:102D7800000705850240000107050502400001041F
:102D88000309042403610074006C006100730020CF
:102D98000069006E0073007400720075006D0065B4
:102DA800006E00740073001E0343004300310031BD
:102DB8000031003100200055005300420020006E11
:102DC80000690063000A0330003000330037000058
:012DD800FFFB
:10220F00AA82AB837C007D008A068B078E828F8328
:10221F00E493F8A3AE82AF83E860070CBC00ED0D2A
:10222F0080EA8A118B12750EF08C0F8D107582FE5D
:10223F0002103CE58290F5C9F07511C97512F5755C
:10224F000EF1750F01E4F5107582FE02103CAA83A2
:10225F00E58290F5CAF0A3EAF07511CA7512F5750B
:10226F000EF2750F02E4F5107582FE02103CAA8281
:10227F00AB83ACF0FD90F5CCEAF0A3EBF0A3ECF060
:10228F00A3EDF07511CC7512F5750EF3750F04E40F
:10229F00F5107582FE02103C122A60AA82AB83AC45
:1022AF00F0FDC002C003C004C0059037BD75F086B5
:1022BF00743D1228EFAA82AB83ACF0FDE58124FCBC
:1022CF00F581E4C0E0C0E074C0C0E07441C0E08AB2
:1022DF00828B838CF0ED122B61AA82AB83ACF0FD65
:1022EF00E58124FCF5818A828B838CF0ED122A73B1
:1022FF00AA82AB83ACF090DF09ECF090DF0AEBF031
:10230F0090DF0BEAF02275E10490DF3BE0FABA01AF
:10231F00F890F8D5E0F5E190F8D5E0FABA0401228B
:10232F0090DF3BE0FABA010280ED2290F8D5E0FA97
:10233F00BA02012290DF13E054F0F0E0440FF09066
:10234F00F8D57402F002254090F8D5E0FABA0301EF
:10235F002290DF13E054F0F0E0FA440AF090F8D541
:10236F007403F075E10390DF3BE0FABA13F82290A3
:10237F00F8D5E0FABA04012290DF13E0FA54F0F036
:10238F005391EF75E10490DF3BE0FABA01F843D6C1
:10239F008153D1FE539BFC53E9EF90F8D57404F0B1
:1023AF002290F8D8E4F0A3F090F7D1E4F090F7D2B0
:1023BF00F053C6C7759D00859E9E439E0485A9A9AF
:1023CF0043B90190F8D57404F07ADA7BF88BD57A9B
:1023DF00DA7BF88AD4750E00750F0075100290F530
:1023EF00D175F0001229E9120EF0D2A87591D175AE
:1023FF00E900750B00439A0175E10490DF3BE0FAA9
:10240F00BA01F8227A007B00C3EA94DCEB94055002
:10241F002490DF3CE0FC54506004900001229000B7
:10242F0032C002C00312277AD003D00274322AFAC4
:10243F00E43BFB80D390000022AA82AB837CD57D46
:10244F00F77E0090DF3BE0FFBF131BB291C002C0CD
:10245F0003C004C005C006122013D006D005D00457
:10246F00D003D00280DDE50C70258A828B83E0FFDC
:10247F008F0C90DF04E0F8530003B800028009B816
:10248F000128EF04F50C80220ABA001E0B801B9066
:10249F00DF04E0FF530703BF0002800EBF010B9064
:1024AF00F7D5E50CF00CBC00010DD2A88A0E8B0FEE
:1024BF00751000850C117512008C828D838EF012B1
:1024CF002A0890F8E8E4F075E1037A607BEA90DF80
:1024DF003BE0FCBC130280181ABAFF011BEA4B60E9
:1024EF000FB291C002C003122013D003D00280DEBE
:1024FF00EA4B700690F8E37413F07A607BEA90DF92
:10250F003BE0FCBC13181ABAFF011BEA4B600FB279
:10251F0091C002C003122013D003D00280E0EA4B17
:10252F00700990F8E37414F0122315C291758201AB
:10253F0022D2A8750E00750F0075100190F5D17598
:10254F00F0001229E990F7D1E4F090F7D2F090F76C
:10255F00D3F090F7D47401F090F5D0E4F0539BFCD6
:10256F0053E9EF75E10290DF3BE0FABA0DF84391C2
:10257F00102290F8E97401F02290F8E9E4F022C0FB
:10258F00E0C082C083C002C003C004C005C006C043
:10259F0007C0D075D00090F8E27411F090DF3BE0E7
:1025AF00FABA0D5F90F8D57402F090F5D0E0FB7A8F
:1025BF0000EA24D1FAEB34F5FB90F5D0E024D1FCFE
:1025CF00E434F7FD8C828D83E0FE04FF8C828D83D3
:1025DF00F07C00EE2AF582EC3BF583E5D9F090F51F
:1025EF00D0E024D1FAE434F7FB8A828B83E0703A8F
:1025FF0090F5D0E0FA24D1F582E434F7F58374FF37
:10260F00F0802790DF3BE0FABA131F90F8D57403E0
:10261F00F090F8E8E0FA90F8E8E02401F0EA24D529
:10262F00F582E434F7F583E0F5D9C289D0D0D0072D
:10263F00D006D005D004D003D002D083D082D0E012
:10264F0032C020C0E0C0F0C082C083C002C003C04F
:10265F0004C005C006C007C000C001C0D075D000BF
:10266F0090F8E27410F0539BFCE5E9420BE5E9307A
:10267F00E01C90F8D6E0FAA3E08A037A00AC9C7DC8
:10268F000090F8D8EA4CF0EB4DA3F053E9FEE5E9E2
:10269F005470700302270C90F8D5E0FABA03084380
:1026AF00D681530B8F805390F5D0E0FAB40100E43C
:1026BF003324D3F582E434F7F583E0FABA0121909D
:1026CF00F5D0E06401F090F5D0E0FA24D1F582E482
:1026DF0034F7F583E4F090F7D3F090F7D4F0801A45
:1026EF0090F8E37412F0B29190F5D0E0FA24D1F59E
:1026FF0082E434F7F583E4F0B29153E9CFE5E930A2
:10270F00E61090F8E37410F0B291122315B29153C2
:10271F00E9BFE5E930E71090F8E37411F0B29112D8
:10272F002315B29153E97FD0D0D001D000D007D07C
:10273F0006D005D004D003D002D083D082D0F0D001
:04274F00E0D0203284
:022DD9000000F8
:10275300AA82AB831ABAFF011BC3E49A74808BF07D
:1027630063F08095F0500F7C4C7D041CBCFF011D71
:10277300EC4D70F780DE22AA82E583CA25E0CA33D6
:10278300FB1ABAFF011BC3E49A74808BF063F080D9
:1027930095F040ED22AA82AB83D2919003E8C00268
:1027A300C003122753C2919001F4122753D003D0D0
:1027B30002150DAC0DEC20E754EA30E0249000192B
:1027C300C002C003C004122753D2919002261227DD
:1027D30053C291900019122753D004D003D0028022
:1027E30022900113C002C003C004122753D2919058
:1027F3000032122753C291900113122753D004D0F1
:1028030003D002EBC313CA13CAFB1C80A8C2919066
:1028130003E8022753AA82AB83ACF0AD0EAE0FAF31
:1028230010A811A912E849600575140180037514F5
:1028330000E5146046C000C0018A828B838CF012CD
:102843002C24F88D828E838FF0122C24F9E8C399FF
:10285300F513D001D000E5136010E513F51533959A
:10286300E0F516851582851683220ABA00010B0D41
:10287300BD00010E18B8FF011980AA900000225371
:10288300BEFBE5BE30E6FB53C6B8E5C620E6FB4318
:10289300BE04E5BE30E6FB53C6C743E40C43E40184
:1028A3002243FE03C29122C0E0C082C083C002C0A3
:1028B30003C004C005C0D075D00090F8E4E0FAA3CB
:1028C300E0FBA3E0FCA3E0FD90F8E474012AF0E44C
:1028D3003BA3F0E43CA3F0E43DA3F0D0D0D005D07B
:1028E30004D003D002D083D082D0E032122992BC2C
:1028F3000003022B33EF60FA30D502B2D1E583B483
:10290300FF03022B49E582B4FF03022B49258340D1
:10291300072482400B022B332483145003022B49D8
:10292300F582EA8DF0A4A8F0EA8EF0A428F8E43545
:10293300F0F9EB8DF0A428E935F0F9E433CA8FF010
:10294300A429F9EA35F0FAEBF88EF0A429F9EA356F
:10295300F0FAE433FBEC8DF0A429F9EA35F0FAE45C
:102963003BFBE88FF0A42AFAEB35F0FBE433CCFD14
:102973008EF0A42AFAEB35F0FBE43CFCED8FF0A4D7
:102983002BFBEC35F0FC20E7031229C0022B12AA23
:1029930082AB83A2F73392D16002D2F7F582ACF017
:1029A300E58124F9F8E6FD08E6FE0886F008E6A2CC
:0D29B300F73392D56002D2F7F583AFF02222
:0600BC00E478FFF6D8FD18
:1029C0007804EC700DC9CACBFCE58224F8F582D8F6
:1029D000F122782020E7111582C3E933F9EA33FAAE
:1029E000EB33FBEC33FCD8EC22AC82AD83AE0FAF03
:1029F00010BE0004EF600C1F0FE50E122AACA3DE20
:102A0000FADFF88C828D8322AA82AB83ACF08A1322
:102A10008B148C15A80EA90FAD10881689178D1868
:102A2000A811A9128805890618B8FF0119ED4E6092
:102A3000258516828517838518F0122C24FDA38521
:102A400082168583178A828B838CF0ED122AACA3C1
:102A5000AA82AB8380CE8513828514838515F022EC
:10009A007902E94400601B7A01902DD978E87593BA
:1000AA00F8E493F2A308B800020593D9F4DAF275DA
:0200BA0093FFB2
:102A6000FCABF0AA83A982749EC2D1F5821229C060
:102A7000022B127F9E122A9A30D103022B33C3EF0E
:102A80009582500974FFF5F0F583F58222790012E2
:102A90002C4089828A838BF0EC22AA82AB83A2F736
:102AA0003392D16002D2F7F582ACF02220F71030D9
:102AB000F6118883A88220F507F6A8837583002283
:102AC000F280F7F022E50E450F60467A01E50E250B
:102AD000E0F50EE50F334012F50FE582950EE58324
:102AE000950F40030A80E6C3E50F13F50FE50E13BB
:102AF000F50EC3E582950EF5F0E583950F4005F5DB
:102B00008385F082C3E50F13F50FE50E13F50EDA9A
:022B1000E122C0
:1000C2007800E84400600A79007593F0E4F309D8F7
:1000D200FC78E8E84408600C790990F000E4F0A3A9
:0400E200D8FCD9FA73
:02008B00E4731C
:102B1200B98003EA13B34010EA2401FAE43BFBE470
:102B22003CFC50047C800582BC000EBB000BBA004A
:102B320008E4F5F0F583F58222A2D1E582138CF048
:102B420092F78B838A8222E4F583F58275F080F412
:102B5200A2D11322E4F583F58275F0C0747F2212AC
:102B6200299230D502B2D1BF0009BC0003022B5614
:102B7200022B49BC0003022B33E583B4FF0BE58231
:102B8200B4FF03022B56022B33E582B4FF03022B60
:102B920049C395835007247F400B022B33248014B2
:102BA2005003022B49F582C3ED9AEE9BEF9C401134
:102BB2001582C3EA33F9EB33FAEC33FBE433FC80DE
:102BC20005E4CCCBCAF9C08275F019C3E99DEA9E2F
:102BD200EB9FEC9400D5F002802D400EE99DF9EABE
:102BE2009EFAEB9FFBEC9400FCC3B3E833F8E5825A
:102BF20033F582E58333F583C3E933F9EA33FAEB3C
:102C020033FBEC33FC80C4B3E4F938FAE43582FBDD
:102C1200E43583FCD082500405827C801229C002F4
:022C22002B2A5B
:0D008D00758152122C83E58260030200860B
:102C240020F71430F6148883A88220F507E6A883D9
:102C340075830022E280F7E49322E0226040F825C5
:102C440082500274FFF582E824F8501ECCCBCAF9F6
:102C5400E4CC24F85014CBCAF9E4CB24F8500BCAC2
:102C6400F9E4CA24F8500379002224086010F8C358
:102C7400EC13FCEB13FBEA13FAE913F9D8F1227510
:032C8400820022A9
:00000001FF
